:020000040000FA
:0600000002011D021E0BAF
:03002B0002253972
:03005300021E7E0C
:03006B0002250764
:10008300021CBFE5C754F84401F5C77901220000FB
:100093000080FB120086B90003020107E47921788E
:1000A30008B800028004F709D8FCE479297802B87B
:1000B30000028004F709D8FCE490028178D0790724
:1000C3008002F0A3D8FCD9FA781A90014D7A01BACC
:1000D30000028007E493A3F608DAF9900950AA8294
:1000E300AB8390014E783479048015E493A3AC82FA
:1000F300AD838A828B83F0A3AA82AB838C828D83A8
:10010300D8E9D9E77582D27583A0740312012F75DC
:100113008291758300740012012F75D00075813FA1
:10012300751881751902759F00020096C09FF59F8F
:10013300E473D09F22D083D082C09FE493C0E07445
:100143000193C0E0740293F59F2201FF0000B40005
:100153000028002800283075A000A000A000A000FF
:1001630000080008E001F00010001000100010006B
:100173001000100050005000500010001000D00775
:100183000000000000000F003075070010000100A0
:1001930081FF0000FF7F069D068506FF02020A0A13
:1001A300025000A0000000E803021C8201000004CA
:1001B30082021882010000A109022A81010000B213
:1001C30002021882010000A209020A82010000C88B
:1001D30002021882010000A309020C82030000CA74
:1001E30002021882010000A409020E82030000CB60
:1001F30002021882010000A509021082010000A674
:1002030009FF0100FF20021C82010000FB8102188C
:10021300820100000A0A0212820000000000021498
:100223008203000018035B0C5B0C5B0C5B0C5B0C28
:100233005B0C5B0C5B0C5B0C5B0C5B0C5B0C5B0C83
:10024300E90E010FE30EFFFF0202020202020202A5
:1002530002010D0000001001021C82010000078250
:100263000218820100004D0A023C82010000780757
:100273000218820100004E0A022E8201000015813D
:100283000218820100004F0A022C82010000F9804B
:10029300021882010000500A022A820100008180B4
:1002A300021882010000510A022882010000B7806F
:1002B300021882010000520A022682010000A58072
:1002C300021882010000530A022482010000938075
:1002D300021882010000540A0222820100000781F1
:1002E300021882010000550A022082010000560A0A
:1002F30001E803053F10FF0001307503020106000A
:1003030000000000000000000000000000000000EA
:100313000000000000000000000000FFFF06008056
:100323000CE803140953696D706C65424C455065C4
:10033300726970686572616C051250002003020ACD
:10034300000201050302F0FF53696D706C652042E2
:100353004C45205065726970686572616C0F1300BB
:100363000015130A4368617261637465726973747B
:100373006963203100024368617261637465726965
:100383007374696320320008436861726163746542
:100393007269737469632033001043686172616327
:1003A300746572697374696320340002436861720F
:1003B30061637465726973746963203500021C821A
:1003C300010000FE81021882010000680B023282E4
:1003D3000300003A09021682010000690B02188229
:1003E3000100007A0B0234820100003B09021682ED
:1003F3000100007B0B0218820100008C0B02368285
:100403000200003C090216820100008D0B021882D3
:100413000100009E0B0238820000003D0902148295
:100423000300003E090216820100009F0B0218829E
:10043300010000B00B023A82040000440902168254
:10044300010000B10B104B65792050726573732066
:10045300537461746500021C82010000018202185A
:10046300820100004A0C0242820000004909021482
:10047300820300004A090216820100004B0C12019C
:1004830038A29403120138B99403120138E8940393
:100493001201382195031201384995031201387767
:1004A30095031201388E9503120138A595031201A5
:1004B30038BB9503120138E29503120138F5950311
:1004C3001201380B96031201381E960312013843AA
:1004D300960312013811A40212013810A502120169
:1004E3003845A50212013866A50212013876A50225
:1004F30012013897A502120138A3A602120138701F
:10050300A702120138E3A70212013869A8021201F7
:1005130038ACA802120138E3A80212013869A90213
:100523001201383BAA0212013899AA02120138B10A
:10053300AA021201382BAB021201382EAB021201B0
:100543003831AB02120138D8AB02120138F0AB02DA
:1005530012013820AC0212013840AC021201382ECD
:10056300AD02120138E4AD02120138C9DD021201F5
:1005730038F1DD021201381FDE0212013856DE02A5
:10058300120138BEDE0212013807DF0212013852AF
:10059300DF0212013890DF02120138CDDF021201AF
:1005A30038FBDF02120138A2E002120138ACE0028C
:1005B300120138B9E002120138ECE002120138AE40
:1005C300E102120138BAE102120138D2E10212014A
:1005D30038DCE102120138FE9D031201380C9E0340
:1005E300120138249E031201383C9E031201380C79
:1005F300AA01120138AAAA0112013822AB01120181
:100603003837AC0112013871AC011201381AAD014F
:10061300120138EFAD0112013853AF01120138AAAC
:10062300AF0112013831B00112013818B1011201C2
:100633003865B101120138F3B10112013817B20163
:10064300120138ECB3011201382DB4011201384FF5
:10065300B401120138D0B401120138BAB501120144
:100663003880B6011201381CC602120138EEC602E8
:1006730012013897C702120138DAC702120138672C
:10068300C802120138F3C802120138D4C902120198
:100693003803CA02120138FFCA0212013847CB02DB
:1006A30012013849CC021201388DCC02120138B341
:1006B300CC021201386D9F0312013800800312012E
:1006C300381680031201383C800312013864810319
:1006D3001201386E8103120138C78203120138C731
:1006E3008303120138D6D802120138E3D90212016A
:1006F3003817DA0212013859DA0212013813DC0210
:100703001201385F6D00120138C26D001201380703
:100713006F00120138176F001201383A6F0012018F
:1007230038856F001201382A7000120138207100D9
:10073300120138EA7100120138627300120138A401
:1007430073001201384274001201388F74001201D1
:1007530038B57400120138A37600120138A8760068
:10076300120138897800120138DD78001201383F10
:1007730079001201386779001201380B7A001201EF
:1007830038CD7A00120138FE7A00120138017B005D
:10079300120138497B001201388B7B00120138F2B9
:1007A3007B00120138438A03120138568A0312016F
:1007B300386F8A03120138BA8A03120138958B0302
:1007C300120138248C031201386F8C03120138682C
:1007D3002500120138742500120138AD25001201DD
:1007E30038F22500120138A926001201382F2700FC
:1007F300120138942700120138C02700120138F97A
:1008030027001201380D2A00120138E92B001201CA
:1008130038D42D001201380B2F001201386B310030
:100823001201385732001201389D3300120138AAE1
:100833003400120138C73400120138FF34001201AA
:10084300381935001201388135001201381B3A007E
:10085300120138BC3A001201380D3B001201383442
:100863003B00120138823B00120138A03B00120109
:1008730038F43B00120138CD3C00120138543E00DD
:10088300120138DC3E0012013828CD021201383241
:10089300CD02120138FDCD0212013841CE02120100
:1008A3003867CE02120138B3CE02120138EBCE0202
:1008B30012013814CF0212013851D0021201387ECE
:1008C300D002120138ABD002120138F6D002120165
:1008D3003811D1021201385CD10212013896D102CB
:1008E300120138D0D10212013825D20212013890F8
:1008F300D202120138D9D20212013803D3021201F3
:100903003828D3021201386BF80212013835F90284
:1009130012013818FA021201388EFA02120138D085
:10092300FA02120138FDFB021201380080021201A3
:10093300382980021201384280021201388781026D
:1009430012013865820212013884820212013811C1
:100953008302120138548302120138A18402120166
:1009630038408502120138BF8702120138568802C7
:100973001201382A89021201380C8A0212013878CE
:100983008B021201380B8C021201381899031201E1
:1009930038819903120138D59903120138FC990360
:1009A300120138B1EB021201381EEC021201386950
:1009B300EC021201385EED021201385AEE02120106
:1009C3003844EF021201384FAE0212013891AE02E1
:1009D3001201386BAF0212013844B0021201383FE2
:1009E300B1021201381EB2021201388AB202120198
:1009F3003851B302120138BCB30212013823B402D6
:100A03001201384EB402120138BFB4021201385237
:100A1300B502120138BBB502120138D0B50212017A
:100A23003818B60212013831B60212013896B602EE
:100A330012013899B602120138BC7C00120138E465
:100A43007C00120138227D00120138E07D00120182
:100A5300384B7E00120138677E001201388F7E000A
:100A6300120138BF7E00120138CE7E0012013848D1
:100A73007F001201386E7F0012013833C701120163
:100A83003810C9011201380BCB01120138DECB013A
:100A930012013829CC0112013874CC0112013892A9
:100AA300CC01120138D4CC01120138EFCC01120170
:100AB300383BCD0112013875CD0112013898CD01B3
:100AC300120138E5CD0112013858CE011201386AFE
:100AD300D00112013814D20112013864D20112017B
:100AE30038C9D3011201381FD4011201388DD40142
:100AF300120138D8D40112013802D501120138820B
:100B03008C02120138AD8C02120138949302120147
:100B130038B89502120138739702120138D098023F
:100B2300120138433F00120138DA3F00120138073F
:100B330040001201384D40001201388C410012016F
:100B430038234300120138784300120138ED430083
:100B53001201381C4500120138774600120138791A
:100B63004700120138D64800120138EF480012013D
:100B7300384C49001201382E4A00120138614A00EC
:100B8300120138D14A001201384B4B001201389A36
:100B93004B00120138664C001201386B4D001201F4
:100BA300384A4E00120138D54E00120138434F0027
:100BB300120138B74F00120138E04F001201389F7D
:100BC3005000120138195200120138365200120136
:100BD30038555200120138E652001201380B530007
:100BE300120138335300120138AE53001201380892
:100BF30054001201385C55001201381956001201D5
:100C030038EC56001201382DD5011201387DD5017B
:100C130012013889D50112013866D60112013896BE
:100C2300D601120138CED6011201384DD701120177
:100C33003885D701120138D7D70112013814D801EA
:100C430012013839DA0112013865DC01120138600A
:100C5300DE011201383BE0011201385D250012016B
:100C6300385B9601120138A59601120138849C0164
:100C7300120138059E0112013864A4011201385F84
:100C8300A5011201389CA501120138BFA50112016B
:100C93003801A6011201380AA60112013814A6016F
:100CA30012013800A701120138F4A7011201381A02
:100CB3005700120138926100120138986100120145
:100CC30038A4680012013857FC02120138EDFC0207
:100CD30012013803FD021201387DFD02120138D3DF
:100CE300FD0212013811FE021201386EFE021201DA
:100CF30038EBFE02120138F4FE0212013800FF0243
:100D030012013813FF021201384FFF021201386536
:100D1300FF02120138C4FF0212013806F002120169
:100D23003813F0021201382DF0021201386CF00270
:100D3300120138AAF0021201380FF102120138240D
:100D4300F1021201382FF1021201383CF1021201B3
:100D53003853F10212013861F1021201386CF102C9
:100D630012013878F10212013887F1021201389228
:100D7300F102120138B5F1021201385EF2021201DA
:100D8300386EF20212013888F202120138A5F2021B
:100D9300120138C1F202120138E6F202120138F0F0
:100DA300F20212013804F30212013823F302120192
:100DB3003884F3021201388AF30212013890F302E5
:100DC30012013896F302120138A2F302120138D548
:100DD300F30212013801E30112013883E301120126
:100DE300382CE40112013874E50112013882E7015D
:100DF30012013868E8011201389DE801120138BF79
:100E0300E80112013868E90112013838EB011201D7
:100E13003861EB01120138D9EB011201380BEC01F7
:100E230012013818EC0112013863EC011201388702
:100E3300EC01120138D8EE01120138E2EF01120180
:100E4300383EF001120138B5B801120138C6B901B4
:100E5300120138AABA01120138B4BA01120138D604
:100E6300BA01120138E2BA0112013886BC0112013B
:100E730038B3BC01120138C9BD011201381EBE01CD
:100E83001201386DBF0112013842C0011201389EB0
:100E9300C00112013809C1011201383EC10112011A
:100EA3003881C1011201384BC40112013863C401F6
:100EB300120138F4C40112013802C5011201384F7E
:100EC300C5011201385DC501120138C9C5011201FE
:100ED3003844C6011201389BC601120138F3980247
:100EE300120138159902120138269B02120138E5C6
:100EF3009D021201380F9F02120138CD9F02120189
:100F030038B9A002120138E992031201380E930393
:100F1300120138849303120138FFBE02120138080C
:100F2300BF0212013811BF02120138E9BF021201D8
:100F3300389AC102120138CAC102120138F5C1023E
:100F430012013825C20212013850C202120138843C
:100F5300C202120138B0C202120138F3C2021201F6
:100F6300381EC30212013865C302120138BAC30224
:100F7300120138FCC30212013856C402120138812F
:100F8300C402120138D0C40212013800C502120192
:100F9300382BC50212013859C5021201387CC5022B
:100FA300120138F69F0312013822A0031201384FB1
:100FB300A00312013859A00312013869A0031201DA
:100FC3003850D3021201385AD30212013898D3028F
:100FD300120138E1D3021201381BD4021201387511
:100FE300D40212013896D4021201389FD40212019E
:100FF30038ECD40212013815D5021201381FD5027C
:101003001201388BD5021201381DD602120138673E
:10101300D6021201389DD60212013829D7021201D5
:10102300386AD702120138A1D702120138B3D702A6
:10103300120138D2D702120138DBD702120138A8C5
:10104300D802120138289C0312013805FE0112014F
:10105300383BFE0112013871FE01120138BCFF0159
:10106300120138D59E03120138EB9E03120138F5A5
:101073009E031201383F9F0312013873A00312012C
:101083003817E7021201382CE702120138DCE702B5
:101093001201381CE80212013835E80212013870D7
:1010A300E802120138BDE802120138EFE80212012A
:1010B3003831E90212013832EB02120138A4EB0293
:1010C300120138319B031201385A9B0312013889EC
:1010D3009B03120138A19B03120138E39B03120106
:1010E300386587031201388A8703120138B48703EE
:1010F3001201382AA1031201384782011201382450
:101103008401120138CA85011201387E8601120159
:1011130038088701120138898701120138B2870123
:10112300120138708B01120138F68B011201381D40
:101133008D01120138578D01120138988D0112016A
:1011430038E08E011201383D8F01120138868F017C
:10115300120138F18F0112013862900112013894A3
:101163009001120138AC9001120138D8910112019B
:1011730038E89101120138929301120138A99301C1
:10118300120138DB93011201388F95011201381CCB
:101193009601120138E27F0012013880A103120187
:1011A30038BFA103120138E7A1031201381F9D03C1
:1011B3001201382F9D03120138449D03120138F8A0
:1011C3009D031201382D9A03120138B29A031201BA
:1011D30038189B03120138E997031201380B98035F
:1011E3001201386C98031201387E9803120138CE2D
:1011F30098031201380C99031201380F9903120155
:101203003852F40212013866F402120138E0F40293
:10121300120138C4F5021201389BF702120138009B
:10122300F80212013857F802120138F87F00120150
:1012330038DE8E03120138729003120138D3900303
:10124300120138199103120138559603120138A778
:1012530096031201381A9703120138839703120178
:1012630038998C03120138C38C03120138918D0312
:101273001201386C8E03120138BDB6021201388494
:10128300B702120138BBB702120138E5B7021201E7
:101293003845B8021201389BB80212013800B9026E
:1012A30012013898B902120138A7BA021201383E66
:1012B300BC02120138CBBC0212013832BD0212014A
:1012C3003849BD0212013863BE02120138A1BE02C1
:1012D3001201388BF00112013822F40112013899FE
:1012E300F501120138E9F50112013806F601120180
:1012F3003884F601120138A6F8011201386CFC019A
:1013030012013871E20212013812E5021201383873
:10131300E602120138E2E602120138D18303120118
:1013230038168403120138338403120138E9840325
:101333001201383C85031201381286031201382C3E
:1013430087031201381C91031201386191031201C2
:1013530038B59103120138389203120138B0920361
:10136300120138B67F00120138C9A103E06670107C
:1013730008A3E066700A08A3E066700408A3E066A9
:1013830022C3E7960809E7960809E7960809E7964E
:1013930022C3E09608A3E09608A3E09608A3E0968C
:1013A30022C008C3E096F50808A3E096420808A304
:1013B300E096420808A3E09645087001D3D00822BE
:1013C300080808EAC0E0EBC0E086F0E7A4FA1809D1
:1013D30086F0E7A42AFA180986F0E7A42AFA18097E
:1013E30086F0E7A42AFA1986F0E7A4FBE5F02AFAC7
:1013F300190886F0E7A42BFBE5F03AFA190886F002
:10140300E7A42BFBE5F03AFA18180986F0E7A4C520
:10141300F02BFBE43AFA1908E7C5F0C6A426F6E573
:10142300F03BFBE43AFA1886F0E7A4F6E5F0082669
:10143300F6E43B08F6E43A08F6D0E0FBD0E0FA2203
:10144300E4CFC0E0E4CEC0E0E4CDC0E0E4CCC0E053
:1014530075F020C3E633F608E633F608E633F608FC
:10146300E633F6181818EC33FCED33FDEE33FEEFDC
:1014730033FFC3EC9709ED9709EE9709EF97191915
:1014830019400FFFEC97FC09ED97FD09EE97FE1944
:101493001906D5F0BEECF709EDF709EEF709EFF7FA
:1014A300191919D0E0FCD0E0FDD0E0FED0E0FF2216
:1014B3006016080808C6C313C618C613C618C61391
:1014C300C618C613C6D5E0EA2270090808082260C8
:1014D30016181818C6C333C608C633C608C633C69B
:1014E30008C633C6D5E0EA22E627F60809E637F64A
:1014F3000809E637F60809E637F622E026F608A3D8
:10150300E036F608A3E036F608A3E036F622E02636
:10151300F008A3E036F008A3E036F008A3E036F0C5
:1015230022C3E697F60809E697F60809E697F60850
:1015330009E697F622C3E096F008A3E096F008A325
:10154300E096F008A3E096F022E056F608A3E056F2
:10155300F608A3E056F608A3E056F622E056F00894
:10156300A3E056F008A3E056F008A3E056F022E00B
:10157300F608A3E0F608A3E0F608A3E0F622E6F0F7
:1015830008A3E6F008A3E6F008A3E6F022E0FAA336
:10159300E0FBA3E0FCA3E0FD22EAF0A3EBF0A3EC65
:1015A300F0A3EDF022CAC0E0E6F0A308DAFAD0E037
:1015B300FA22CAC0E0E0A3C582CCC582C583CDC5EB
:1015C30083F0A3C582CCC582C583CDC583DAE6D0BB
:1015D300E0CA22C3E498F8E499F91216178026C3E7
:1015E300E49AFAE49BFBE920E7E9121617E498F87A
:1015F300E499F922C3E498F8E499F9121617E498E8
:10160300F8E499F9C3E49AFAE49BFB22EB20E7CFD1
:10161300E920E7E0B90010BB0008E88AF084F8AAE3
:10162300F022E4FBC8FA22EB70227B10C833C8C94E
:1016330033C9335007C39AC3DBF280069A50012A99
:10164300DBEAC833F4C8C933F4C9FA2275F008E4F5
:10165300C833C8C933C933C99AC99B5004C92AC9F5
:101663003BD5F0ECFBC833F4C8E4C9FA22600D089B
:10167300C6A2E713C618C613C6D5E0F322600C084A
:10168300C6C313C618C613C6D5E0F422700422607D
:101693000D18C6C333C608C633C6D5E0F4182225D1
:1016A3001810AF08F518400215198008F518400204
:1016B3001519D2AF22C0D0251810AF08F518500263
:1016C30005198008F51850020519D2AFD0D022258C
:1016D30018F58210AF08F518400215198008F5189F
:1016E30040021519D2AF851983222518F582E435F6
:1016F30019F58322E4732518C582C0E0E51934FF88
:10170300C583C0E0E518C3958224F810AF0885832C
:10171300198582188008858319858218D2AFCEF087
:10172300A3E520F0A37808E608F0A3DEFAEFF0A320
:10173300E58124FAF8E608F0A3E608F0A3E608F04A
:10174300A30808E608F0A3E608F0A315811581D0E5
:10175300E0FED0E0F8158115811581E8C0E0EEC008
:10176300E0222518C582C0E0E51934FFC583C0E037
:10177300E518C3958224F910AF088583198582186B
:101783008008858319858218D2AFCEF0A3E520F0B7
:10179300A37808E608F0A3DEFAEFF0A3E58124FBC3
:1017A300F8E608F0A3E608F0A30808E608F0A3E6C5
:1017B30008F0A315811581D0E0FED0E0F81581155E
:1017C30081E8C0E0EEC0E022851983851882E0A39A
:1017D300FEE0A3F5207808E0A3F608DFFAE0A3FF14
:1017E300E0A3C0E0E0A3C0E0E0A3C0E0E0A3C0E06A
:1017F300E0A3C0E010AF08858218858319800885AF
:101803008218858319D2AFD083D08202013585191E
:1018130083851882E0A3FEE0A3F5207808E0A3F611
:1018230008DFFAE0A3FFE0A3C0E0E0A3C0E0E0A389
:10183300C0E0E0A3C0E010AF08858218858319805B
:1018430008858218858319D2AFD083D08222C0D075
:101853002518C582C0E0E51934FFC583C0E0E5184B
:10186300C3958224F310AF088583198582188008F5
:10187300858319858218D2AFC8F0A3E9F0A3EAF0F3
:10188300A3EBF0A37908E709F0A3D8FAECF0A3EDF2
:10189300F0A3EEF0A3EFF0A3D0E0F0A3D0E0F0A329
:1018A300D0E0F0A3E520F0A3E5F0F0A322851983AF
:1018B300851882E0C0E0A3E0F9A3E0FAA3E0FBA36C
:1018C3007808E0F608A3DFFAE0FCA3E0FDA3E0FE5E
:1018D300A3E0FFA3E0C0E0A3E0C0E0A3E0F5D0A352
:1018E300E0F520A3E0A3F5F010AF08858319858206
:1018F300188008858319858218D2AFD082D083D00F
:10190300E0F8D0E03274048006740280027401C0EF
:10191300E0F4041216D2D0E01215A8227404800455
:1019230074028000CCC0E0EDC0E0E518C39CCCADF0
:101933001950011D10AF068C188D1980068C188D57
:1019430019D2AF1215B5D0E0FDD0E0FC22D083D080
:1019530082E9C0E0E493A3C386F0C5F095F0F908EB
:10196300E493A386F0C5F095F0700BE493A3C399B9
:101973004005E9048002A3E475F002A42582F58200
:10198300E5F03583F583D0E0F9E493A3C0E0E49375
:10199300C0E022D083D082ECC0E0EDC0E0E493A3AA
:1019A300FCE493A3FDED4C600D1219E2EC24FFFC63
:1019B300ED34FFFD80EFE493A3FCE493A3FDED4C32
:1019C300600D121A21EC24FFFCED34FFFD80EFD0F3
:1019D300E0FDD0E0FCE493A3C0E0E493C0E022C0C8
:1019E300E0C3E49396087401939618400FE493665A
:1019F300700808740193661870007019A3A3C3E4F8
:101A03009396087401939618A3A3400DD0E0D0E0F9
:101A1300D0E00219D2A3A3A3A3A3A3D0E022C0E0E2
:101A2300C0F088F0E4936670080874019366187038
:101A330000A8F0A3A3700BD0F0D0E0D0E0D0E00278
:101A430019D2A3A3D0F0D0E02274F5121765EAFEF1
:101A5300EBFFEE2434F8EF3400F988088909EE240B
:101A630035F582EF3400F583E0F8EE2437F582EFA5
:101A73003400F583E0F50AEC850AF0A4FCAAF085AE
:101A83000AF0EDA42AFDE82CF8E43DF97A257B0061
:101A9300121617EA850882850983F05407F8740142
:101AA300B800028004C333D8FCC0E0E0131313541E
:101AB3001FF8EE28F8EF3400F9E8245DF582E934E5
:101AC30000F583D0E0F8E0586008EE2434F582EFA7
:101AD300801EEE2436F582EF3400F583E0F5F0EA5C
:101AE30084A8F0EE28F8EF3400F9E82438F582E909
:101AF3003400F583E0F97F0402181174F5121765B9
:101B0300EAFEEBFFEE2434F582EF3400F583E0C008
:101B1300E0EE2435F582EF3400F583D0E0F08E82D9
:101B23008F83A3A3A3A3A3A3A3C082C0838E828F07
:101B330083A3A3A3A3A3E0F8A3E0F9D083D082E017
:101B4300C398F508A3E099F509EE2480F582EF34F4
:101B530000F583E064017069EE2481F582EF3400BF
:101B6300F583E0F8A3E0F98E828F83A3A3A3A3A355
:101B7300A3A3E0FCA3E0FD8E828F83A3A3A3A3A36F
:101B8300E0FAA3E0FBC3EA9CEB9D5027C3EC98ED7E
:101B930099402EC3EA98EB9950277CFD7D04EEFA19
:101BA300EFFB120BB9EE2480F582EF3400F583E4EA
:101BB300F0800EC3EA98EB9940E0C3EC98ED99509E
:101BC300D9EE2434F8EF3400F9E8FCE9FDEE2435CE
:101BD300F582EF3400F583E0F8EE2437F582EF3435
:101BE30000F583E0F50AE508850AF0A4F508AAF0F4
:101BF300850AF0E509A42AF509E82508F8E435097A
:101C0300F97A257B00121617EA8C828D83F054072C
:101C1300F87401B800028004C333D8FCC0E0E013B9
:101C23001313541FF8EE28F8EF3400F9E8245DF598
:101C330082E93400F583D0E0F8E0586008EE2434FC
:101C4300F582EF801EEE2436F582EF3400F583E053
:101C5300F5F0EA84A8F0EE28F8EF3400F9E8243828
:101C6300F582E93400F583E0F91224F9021AF9C088
:101C730082C083851882851983E0F8A3E0F9C3EA5B
:101C83009CEB9D5012C3EC98ED994019C3EA98EB75
:101C930099501279018010C3EA98EB9940F5C3EC8F
:101CA30098ED9950EE7900D083D08222EAC39CFA52
:101CB300EB9DFB22008521878522C622C0E0C0D090
:101CC300E8C0E0E9C0E0EAC0E0EBC0E0ECC0E0ED72
:101CD300C0E0C008C009C00AC00BC082C083C0F006
:101CE300759B00906182E0A2E64003021D9DE59191
:101CF300A2E64003021D9D7591BF9003C2E06405F7
:101D03007008120CF1120CFD8003120CF775210000
:101D1300120D57E99003C3F07900120D4B120B35E6
:101D23007A017B009003C1E0F912101B907803E065
:101D330064426003021DE690055FE014F060030255
:101D43001DE6C2AF121D4A00782AD0E0F618D0E093
:101D5300F6E59F5407F9700590817F80039081AB6E
:101D63007808121572E9C4C0E07829E65508F50829
:101D730008E65509F509740B7808121680D0E0259A
:101D830008F8906270E0A2E740F8E8C3339062720B
:101D9300F0906270E0D2E0F08049E0A2E55024E5E3
:101DA30091A2E5501E7591DF9003C2E0640D70139C
:101DB3009003E4E004F064287002E4F07A00E0F9B0
:101DC300120DC9906181E0A2E35009E5E9A2E35055
:101DD3000375E9F7A3E0A2E75009E591A2E75003F1
:101DE30075917FD0F0D083D082D00BD00AD009D0A8
:101DF30008D0E0FDD0E0FCD0E0FBD0E0FAD0E0F981
:101E0300D0E0F8D0D0D0E032C0E0C0D0C082C083F0
:101E1300906183E0A2E05009E5BFA2E0500375BFE3
:101E2300FEE0A2E15009E5BFA2E1500375BFFDE06A
:101E3300A2E25009E5BFA2E2500375BFFBE0A2E3B3
:101E43005009E5BFA2E3500375BFF7E0A2E45009D0
:101E5300E5BFA2E4500375BFEFE0A2E55009E5BF7B
:101E6300A2E5500375BFDFE0A2E65009E5BFA2E695
:101E7300500375BFBFD083D0828088C0E0C0D0E854
:101E8300C0E0E9C0E0EAC0E0EBC0E0ECC0E0EDC0D8
:101E9300E0C0F0E5A7A2E6500FE5A1A2E650095382
:101EA300A7BF75A1BF121EE3E5A7A2E5500CE5A1EC
:101EB300A2E5500653A7DF75A1DFE5A7A2E150090C
:101EC300E5A1A2E1500375A1FDE5A7A2E2500CE54F
:101ED300A1A2E2500653A7FB75A1FBD0F0021DF4AB
:101EE30074F81217657521019003C2E0640670153A
:101EF300120C858A828B83A3A3A3A3A3A3E0FAA3D3
:101F0300E0FB120CDFA2AFE433FED2AF9003C8E0D4
:101F1300640170187A207B009003C1E0F91210A5C8
:101F23007A207B009003C1E0F9121021906182E0D6
:101F3300D2E6F090055EE0602185C622801690030C
:101F4300C7E064017008E5C654F84405F5C653BEFE
:101F5300FC121CB87401652160E4EEA2E092AF7F2D
:101F630001021811008E238F2485822885832785FB
:101F73001882851983E0CEA3E0CF85288285278345
:101F8300EBC9EAC8EDCBECCA75F010C3E833C8E976
:101F930033C9EA33CAEB33CBC3EA9EF526EB9FF58D
:101FA30025B35004AB25AA26EC33CCED33CDD5F0C5
:101FB300DAAE23AF242274EB12176574FA1216A259
:101FC3008A088B098C148D159003C2E024F7C394FF
:101FD3000550069081EB02211B120C858A0A8B0B9C
:101FE300AE0AAF0BEE4F7003022118AC08AD0985A2
:101FF3001882851983AA82AB83120D0F8E828F8379
:10200300A3A378081215729081CB780812154C851A
:102013001882851983780C1215729081CB780C1273
:10202300154C7808790C121384501F7808790C1218
:10203300152490817378081213A4404785081085EE
:102043000911850A12850B138041850C10850D112A
:10205300850E12850F137810790812152490817359
:1020630078101213A4501C7510007511007512001E
:102073007513017810790C1215247810790812144D
:10208300EB80089081EB78101215727409781012A6
:1020930014CC90819B780812157278107908121469
:1020A300438E828F83A3A3A3A3A3A3E0F8A3E0F9A2
:1020B3007AD07B0312161788088909E4F50AF50B11
:1020C300781079081214EB74041216EDE0F8A3E00B
:1020D300F97AD07B03121617E8FA8A08E4F509782F
:1020E3001079081213845007781079081215249078
:1020F30003C2E06408600AE064066005E0640570FA
:102103001C90817778101213A4501290817B781061
:102113001214FE80089081E77810121572851482DC
:10212300851583781012158174061216B87F0E0276
:10213300181174F7121765120D2190055CE0640104
:102143007010906245E4F0A3F053F4F343FE0C5394
:1021530090F3120CCDE5C654804449F5C6E59E5470
:102163007F644970F8906185740FF090055AE0F42C
:102173007002A3E0604E90055BE0600814601B14DE
:10218300602E804075080175090090055AE07808B3
:1021930012168FE508F45280802A7508017509002C
:1021A30090055AE0780812168FE508F452908014CF
:1021B30075080175090090055AE0780812168FE535
:1021C30008F452A079007F0202181174F712176500
:1021D300E9FEEAFF74016E700C7A807B009003C104
:1021E300E0F912101B902560E493F46008E493F97E
:1021F300120B29800953C680E59E547F70FA120C96
:10220300D390055CE064017003120B4190055AE022
:10221300F47002A3E0604B90055BE0600814601A61
:1022230014602C803D75080175090090055AE0780B
:102233000812168FE5084280802875080175090089
:1022430090055AE0780812168FE5084290801375BE
:10225300080175090090055AE0780812168FE50801
:1022630042A0120D21120C858A088B09A808A9091E
:10227300E8496015E5E170FCE82414F582E93400CF
:10228300F583E0F46003E0F5E174016F700A7A010D
:102293009003C1E0F912106F0221C974F11217659E
:1022A3008A088B098C0A8D0B740F1216ED780C12A9
:1022B30015729081CB780812154C9081CB780C1253
:1022C300154C7808790C12138450157808790C1280
:1022D300152490817378081213A440157901801393
:1022E300780C7908121524908173780C1213A4408A
:1022F300EB79007F0802181174ED1217658A088BB9
:10230300098C0A8D0B74131216ED780C121572904A
:1023130081CB780812154C9081CB780C12154C7830
:102323000C790812138440117808790C121524AA29
:1023330008AB09AC0AAD0B8022751000751100754E
:1023430012007513017810790C121524781079088E
:102353001214EBAA10AB11AC12AD137F0C021811BF
:102363009081CB78081215728A828B8378081215B4
:102373005F7F0402181174F51217658C828D8378C0
:10238300081215728A828B837808121538EA24049E
:10239300F8EB3400F98C828D83A3A3A3A3E0FCA301
:1023A300E0FD88828983C3E09CF0A3E09DF08882EE
:1023B3008983C3E09420A3E0944E40229081B778B0
:1023C300081215728A828B8378081215118A828B00
:1023D30083A3A3A3A3E02420F0A3E0344EF08080E2
:1023E30074F5121765E9FE900514E0FAA3E0FBEE1D
:1023F300C333F8E433F974E928F582748039F5833B
:10240300E02AF508A3E03BF509780812190C90813E
:10241300EF121590121F6874021216B88A088B09FE
:102423008C0A8D0B741078081214B3AA08AB097FB9
:102433000402181174F11217658A0C8B0D8C0E8D22
:102443000F740F1216EDE0FAA3E0FB74111216EDF0
:10245300E0F508A3E0F50974131216EDE0FEA3E01E
:10246300FF780812190CEA2401F508EB3400F5098A
:10247300E4F50AF50B780C79081213C39081877879
:1024830008121572780C79081213C3AA0CAB0DACA1
:102493000EAD0F121F6874021216B88B09EA4509B4
:1024A30060047A0180027A00EC2AFCED3400FDEC32
:1024B300F8EDF97A717B0212161788088909E4F599
:1024C3000AF50B8E828F837808121581ECF8EDF9EB
:1024D3007A717B021216178A088B09740578081221
:1024E300168F8E828F83A3A3A3A3E508F0A3E50928
:1024F300F07F08021811C082C083E9906000F0D019
:1025030083D08222C0E074F2121851A2AFE433FEEA
:10251300D2AFE589A2E04006E589A2E1500312119A
:10252300EF758900758900C2C5751A00EEA2E092A5
:10253300AF7F010218B0C0E0C0D0E8C0E0E9C0E05E
:10254300E5A8D2AFC2C7751A00A2E7A2E792AFD03F
:10255300E0F9D0E0F8D0D0D0E032020135FFFFFF40
:10256300FFFFFFFFFFC082C083E9900A09F0022743
:10257300EC74F71216F9E99002E0F07C187D037A07
:10258300FF7BFF12085F9002E174FFF0A3F0A3E466
:10259300F0A3F079051207E79002E0E0F912070FC4
:1025A3007A7D7B08120A3F0234FA74F41216F98A10
:1025B300088B09EB548060309002E0E0F9121003BD
:1025C3008A0A8B0BAE0AAF0BEE4F60138E828F839A
:1025D300E064B070031207FFEEFAEFFB120FF1AAEB
:1025E30008E5096480FB80047A007B000227BB7442
:1025F300F21216F974FC1216A2EAFEEBFF74121221
:1026030016ED1239E1EE4F7003022695740212168D
:10261300EDEEF0A3EF1229F6ECF0A3ED1229F6AAE2
:1026230082AB83120709E9F50A706AE50845096078
:10263300648E828F831239C7EE4F60567A067B0011
:102643001210578A0C8B0DA80CA90DE8497005755B
:102653000A13804188828983E41226A2EEF0A3EF55
:102663001239F2E508F0A3E509F09002E6122729F2
:102673009002E670051234A4801B1234928003EAA0
:10268300FCEBFD8C828D8312272970F38C828D8362
:1026930080E3750A02A90A74041216B8023BE1F03A
:1026A300A3123998A32274F21216F9890AE975F074
:1026B30017A4FEAFF09002E5E4F09002E31227299D
:1026C300600A12105D9002E3E4F0A3F0EEFAEFFB70
:1026D3001210578A088B09EA4509602FEEFCEFFDBB
:1026E3007900120FDF9002E3E508F0A3E509F07B20
:1026F300008008122713E4F0A3F00BEBC3950A4004
:10270300F2E50A9002E5F0790080027913023BE1D9
:10271300EB75F017A4F8A9F09002E3E028FAA3E020
:10272300398A82F58322123136EA4B2274F4121667
:10273300F9740C1216ED1239BCFEE9FF7508007529
:102743000900800CE5082401F508E5093400F509C2
:10275300C3E5089CE5099D503285080A85090B7479
:1027630003780A12168FEA250AF8EB350BF98882EB
:102773008983A3A3A3A3A3A3123579EE650A7003E8
:10278300EF650B70BFE8FAE9FB80047A007B0080F9
:102793002774F41216F97900EAA2E0501B75084A6F
:1027A300750981780812190C7C047D007A0B7B0A69
:1027B3001207E174021216B87F040217CBC082C05D
:1027C300839002E61227F3601C88828983A3A3E027
:1027D3006A7003A3E06B8882898370E8A3A3A3A331
:1027E30012313280047A007B00D083D0820201351B
:1027F300123CC7E8492274EE1216F974FC1216A2B1
:10280300EAFEEBFF851882851983E4F0A3F0EE243A
:1028130002123484EE240512399FEE2404F50EEFE0
:10282300122DABE024FE603924FC604624FE605286
:1028330024FE605E24FE700302290C24FE70030252
:10284300297024FE700302297F24FE700302298E5F
:1028530024FC700302299D24FE70030229AC022983
:10286300E99002FF7417F0A3E41229FE1204870211
:1028730029E9851882851983AC82AD831208050284
:1028830029B9851882851983AC82AD8312080B029E
:1028930029B9850C08850D0974021216EDAC82ADB9
:1028A3008385088285098312313212072D8A0C8BA6
:1028B3000DAC0CAD0DEC4D603BE4F50CF50D780C57
:1028C30012190C750CFF750D02780C12190C750C8E
:1028D30000750D03780C12190C74081216ED1219F9
:1028E30023123E431216B8E9F50C700B123128126D
:1028F300049F800F750C018508828509831229ECDA
:102903001234A4850C080229BC74021216EDAC82A1
:10291300AD83850C82850D83122EFD603C850C8270
:10292300850D83A3A31219237510FF751102781067
:1029330012190C751000751103781012190C740814
:102943001216ED121923123E431216B8E9F5097057
:102953000B1231281204A5800F750901850C82859D
:102963000D831229EC1234A4850908804C85188242
:10297300851983AC82AD83120811803A851882854C
:102983001983AC82AD83120817802B8518828519B1
:1029930083AC82AD8312081D801C85188285198340
:1029A300AC82AD83120823800D851882851983AC10
:1029B30082AD83120829E9F508E50860298E828F24
:1029C30083A3E06414601F850E82850F83E0900269
:1029D300FF1229F6123CC39003001234A4E508A3A6
:1029E3001229FE120481023393123CC78518828593
:1029F300198322F085188285198322F07CFF7D02DA
:102A0300850A82850B831231362274EE1216F9740D
:102A1300FC1216A28A0A8B0B8C0E8D0FEA2405F585
:102A230008EB3400F5097C157D0079007AFF7B0201
:102A3300120FDFE5082402F50CE5091239A2851807
:102A430082851983858210858311781012190C856C
:102A53000882850983A3A3A3A3122EF412190CE5FC
:102A6300082405F510E5093400F511781012190C46
:102A7300850C82850D8312324912072774061216BC
:102A8300B88A108B11AE10AF11E50A2402F50AE5DE
:102A93000B123487EE4F7003022BCB801774021294
:102AA30016ED12313288828983EAF0A3EBF09002AB
:102AB300FFE004F09002FFE0C394054003022BCB38
:102AC300E4F510F511781012190C7510E875110260
:102AD300781012190C7510E9751102781012190C7F
:102AE30074061216ED1219237910EEFCEFFD123E57
:102AF300451216B8E9705E850882850983A3A3A3EE
:102B0300A3A3A3A3E0F89002E8E0687048122EF4B0
:102B130012190C7CE97D02E5082408FAE509340062
:102B2300FB120FD974021216B8E960298E828F83C3
:102B3300A3A3A3A31231329002FFE0F5107402782D
:102B43001012168F74002510F58274033511F58366
:102B5300EAF0A3EBF074021216ED8582108583115F
:102B6300781012190C74021216ED121923850C82B7
:102B7300850D831231581216B88A108B11AE10AF1F
:102B8300119002FFE0F5107511007402781012160F
:102B93008F74FF2510F874023511F988828983A395
:102BA3001227297003022A97E82403080808E93446
:102BB30000F9EE4F6003022AA08882898374FFF034
:102BC300A3F09002FFE004F09002FFE0600A1231EC
:102BD300281204937900800B8508828509831234B7
:102BE3009B790A02339374EA1216F974FE1216A241
:102BF3008C128D13EA2405F50CEB123E2D1239CB02
:102C0300750800750900EA2402F510EB3400F5118C
:102C130085188285198385820A85830B780A1219A0
:102C23000C850C82850D83A3A3A3A3122DC11219B6
:102C33000CE50C2405F50AE50D123487780A121900
:102C43000C850C82850D83122DC51207277406127D
:102C530016B88A0A8B0BEA450B7003022D66EA2429
:102C630004F50EEB122DAB1239CB8A828B83A3A30F
:102C7300A3E0F985108285118312313C6003022D94
:102C830066E4F514F515781412190C7514E8751526
:102C930002781412190C7514E975150278141219B7
:102CA3000C74061216ED1219237913AC0AAD0B85B9
:102CB3001082851183123E4B1216B8E9F5096003A1
:102CC300022D669002E8E0F8E5087009E02402901E
:102CD3000300F08014900300E0FCE82402FAE434DB
:102CE30000FBEA6C7001EB707E850882AA82122ECB
:102CF300EB9414122EE3506B850E82850F83E0C094
:102D0300E074012A122DA2D0E0F00508850E828519
:102D13000F83A3E0C0E085080A7401250A122DA2DF
:102D2300D0E0F005089002E8122DC112190C7CE9DD
:102D33007D0285080A7401250A122DB51216B89072
:102D430002E8E02508F50874FF6E700374FF6F60F6
:102D530012EE24010EEF3400FFE508C39414500370
:102D6300022C13E508601312314685108285118306
:102D730012313212049979008014E5097003750940
:102D83000A851282851383EEF0A3EFF0A90974027A
:102D93001216B87F0E0217CB85080C7401250CF5AB
:102DA3008274033400F583223400F50F850E82F517
:102DB3008322FA74033400FB120FC7740222123AFF
:102DC3000122A3A3122DCB22123492FDEEFAEFFBC4
:102DD3002274EE1216F974FE1216A28C0E8D0FEAEF
:102DE3002405F50CEB1239A2750B009002FFE4F0F9
:102DF300F50AEA2402F508EB3400F5098044900251
:102E0300FFE0FA9002E8E0F8122EEB9417122EE39B
:102E1300400D9002FFE0F87416C3989002E8F01298
:102E23002EF412190C7CE97D0274002AFA74031241
:102E33002DB81216B89002E8E0F89002FFE028F0EF
:102E4300050AE50C2416F582E50D122DA6E0F8E53A
:102E53000AC39850749002FFE0C39416506BE50ABE
:102E6300C333F8E433F9E50C28FEE50D39FF851883
:102E730082851983AC82AD838E828F83122EFD707F
:102E830008750B011234978050E4F510F511781092
:102E930012190C7510E8751102781012190C7510BF
:102EA300E9751102781012190C74061216ED121935
:102EB300237916850882850983123E4B1216B8E9D9
:102EC300F50B7003022E0180BB7CFF7D0285088217
:102ED3008509831231321204ABA90B7402023395B4
:102EE300E99400C365D03322EA28F8E43400F9E812
:102EF30022E0F51075110078102212338A8A108BA4
:102F030011AC10AD11EC4D2274EA1216F974FC12D7
:102F130016A28A0C8B0D8C128D13EA2405F50AEB8D
:102F2300123487750800750900E50A2402F510E5D7
:102F33000B3400F51174021216ED85820E85830F92
:102F4300780E12190C850A82850B83A3A3A3A312FF
:102F530039A712190CE50A2405F50EE50B3400F523
:102F63000F780E12190C85108285118312348D127D
:102F7300312C12072774061216B88A0E8B0FAE0E69
:102F8300AF0FE50C2402F50EE50D3400F50F803884
:102F93008882898374FFF00508122D9B74FFF00566
:102FA300089002E8E0F50C750D00780C12190C7C02
:102FB300E97D0285080C7401250C122DB51216B893
:102FC3009002E8E02508F508EE4F60278E828F8394
:102FD300A3A3A3E0F9850E82850F8312313CEE246F
:102FE3000412399FE96027850C82850D8312311EF7
:102FF3001234A4E5087003023104123146850E82AF
:10300300850F831231321204B17900023119E4F5CC
:1030130014F515781412190C7514E8751502781443
:1030230012190C7514E9751502781412190C740829
:103033001216ED1219237911EEFCEFFD850E828530
:103043000F83123E4B1216B8E9F509709A85088270
:10305300AA82EA9002E87009E02404900300F08059
:1030630025E0F8900300E0F514E82404FCE43400C0
:10307300FDEC65147001ED7081122EEB9412122E8B
:10308300E34003022FFD850C82850D83E0C0E074CD
:10309300012A122DA2D0E0F00508850C82850D834C
:1030A300A3E0C0E0122D9BD0E012316185820C8534
:1030B300830D780C12190C74041216ED1219238562
:1030C30010828511831231581216B88A0C8B0DAEFB
:1030D3000CAF0D85080C7401250CF874033400F94A
:1030E300EE4F7003022F93851882851983E088823F
:1030F3008983123161A3E0C0E0122D9BD0E0022F3F
:10310300A1E509700375090A850A82850B831231CB
:103113001E1234A4A9097404022D93123CC785120C
:1031230082851383227CFF7D02850A82850B8312AD
:10313300313622E0FAA3E0FB22123136120715E9F9
:10314300F50922900300E0F5F0E508849002FFF012
:103153007CFF7D0222122DCB120733740422F0056B
:10316300088518828519832274EC1216F974FE12ED
:1031730016A28A088B098C0E8D0FEA2405FEEB3408
:1031830000FF123374EE241812399FEA450B7003C3
:1031930002321712335D502912323C8A108B11EA26
:1031A3004511606B7912AC0AAD0B850882850983E2
:1031B3001231328510828511831216F7E9F50A70F0
:1031C30058E4F50AF50B780A12190C8E828F83A343
:1031D300A3E0F50A780A12190CEE2403123484785A
:1031E3000A12190C8E828F8312324912084D74060B
:1031F3001216B8E9F50A7021850C82850D83E070FB
:103203001F8508828509831231321204B780117534
:103213000A0E8009750A018004E50A6003123497D7
:10322300850C82850D83E0600479008002A90A740D
:10323300021216B87F0C0217CB85188285198312E8
:10324300313612083B22123492FD850882850983A8
:103253001231362274EE1216F974FE1216A28A087F
:103263008B098C0C8D0DEA2405FEEB3400FF750EE3
:1032730000123374EA450B700302333B12335D5083
:103283002C12323C8A0E8B0FEA450F604A7912AC3E
:103293000AAD0B850882850983123132850E82853A
:1032A3000F831216F7E9F50E600302333E85088299
:1032B300850983123579AA0AFB12334F70147AFFFA
:1032C3007BFF12334F606C88828983E50AF0A3E5A4
:1032D3000BF0750A008007750E0E805F050A9002D9
:1032E300E5E0FAE50AC39A504AE50A75F017A4FA2D
:1032F300ABF088828983A3A3E02AFAA3E03BFB8A8D
:10330300828B8312348DEC4D70D2750A17750B00C6
:10331300780A12190CEEFCEFFD120FC77402121695
:10332300B8EEFCEFFD850882850983123132120461
:10333300BD8014750E098003750E01123CBF850C08
:1033430082850D831234A4A90E022EDE12082F8A61
:10335300108B11A810A911E84922E5082402F508E9
:10336300E5093400F5098A828B83A3A3A3E0A2E5D0
:1033730022851882851983AC82AD838E828F831256
:10338300338A8A0A8B0B22E0FAA3E0FB12072D2271
:1033930074041216B87F0A0217CB74EC1216F98C58
:1033A300108D11EA2405F50CEB1239A2750F00EA12
:1033B3002402F50AEB123487850A82F5831231322F
:1033C300123ED17003023479750E008071850C8230
:1033D300850D83E06401704F8E828F83A3A312193E
:1033E300238E828F83A3A3A3A3E0F5127513007822
:1033F3001212190CEE2405F512EF3400F5137812AE
:1034030012190C12312C12084D74061216B8E9F574
:103413000F6014850C82850D83E4F0123CBF851088
:10342300828511831234A47C177D007900EEFAEFB4
:10343300FB120FDF8E828F83E4F0A3F0050E900260
:10344300E5E0F8E50EC398501EE50E75F017A4F8F5
:10345300A9F0850882850983A3A3123E3712348D10
:10346300EC4D60030233D085088285098374FFF035
:10347300A3F0E50F700612312C1204C3A90F023218
:1034830037F50AEF3400F50B22A3123492FD22E044
:10349300FCA3E0228E828F83123CC7850E82850FA8
:1034A30083E8F0A3E9F022C082C0839002E1E06ADE
:1034B3007003A3E06B70067AE17B0280047A007BE1
:1034C300000227EC74F71216F97F00EF75F003A4DE
:1034D300F8A9F0EC28F8ED39F988828983E06A705D
:1034E30003A3E06B7006E8FAE9FB800B0FEFC394CC
:1034F3000240D87A007B007F010217CB74F61216C4
:10350300F9123AB070067A007B008007A3A3A3A345
:10351300123132023B7174F21216F9E9FE740E1283
:1035230016ED12357974101216ED1239E18C828D75
:1035330083E06402703BA3123CC388828983E0F575
:103543000CA3E0F9A80C7402687003742969702154
:10355300750C02750D00780C12190C780812190CF1
:10356300780A12190CEEF912087174061216B88053
:10357300027901023BE1E0F50AA3E0F50B2274E8CE
:103583001216F974FB1216A2E9851882851983F0C5
:103593008A168B178C0E8D0F741F1216ED1239E1DC
:1035A30074211216ED12357974231216ED1239CBEC
:1035B3007510008C828D83A3A3A3E0A2E4502A7428
:1035C3001D1216ED1232428A828B83E58245837087
:1035D3000302368D790AAC0EAD0FAA16AB1712167D
:1035E300F7E9F5106003023690850E82850F83E0BC
:1035F30064026003023946A3123CC385088285092D
:1036030083A3858212858313E50E2406F50CE50F4B
:103613001239A288828983E0FAA3E0F9EA2400F54B
:1036230014E439F5157814121996010000280128BD
:103633005536070002282C3703289C3600295638B4
:1036430001297E3802292538032956380429E73809
:103653004639EE4F703E850C82850D831239BCFAD4
:10366300E9FB8A828B83E0850A82850B831239F812
:1036730012190C8A828B83A3123492FDAA08AB0918
:10368300120FC774021216B8800375100EA91074B6
:1036930005023E2575100B80F4EE4F70F7850A8204
:1036A300850B837401F01239D1850882850983F073
:1036B3007C007D00850E82850F83A3A3A3A3E02452
:1036C30001FAA3E03400FB12072DEA4B60418A8222
:1036D3008B83E02402F8850A82850B83E028F0EAD5
:1036E3002404F8EB3400F988828983E0851282850B
:1036F3001383123A0A1239F812190C8A828B831235
:10370300348CE5082403FAE5093400FB023683858B
:103713000A82850B83E02404F07C047D007900AAEF
:1037230012AB13120FDF023690EE4F60030236978F
:103733001239D1FEA3E0FF850A82850B837404F05E
:10374300EE850882850983F0EF851282851383F065
:1037530074031216EDAC82AD83EEFAEFFB123A9EC0
:1037630070030238028A828B83A3A31239C77401C0
:103773001216ED85820E85830F780E12190C7405CF
:103783001216ED1219237CFF7DFF12073374041206
:1037930016B88B0FEA450F7033850C82850D8312A3
:1037A30039A712190C850C82850D83A31219237C6A
:1037B300027D007A1A7B8212055F74041216B8E93F
:1037C300700A74011216ED74FFF0A3F08E828F83DA
:1037D300E064027034750C02750D00780C12190C3C
:1037E3008E828F8312348CE5082404FAE509122DA6
:1037F300B81216B8850A82850B83E0240280097407
:10380300011216EDEEF0A3EFF074011216ED12396A
:10381300B8F074011216EDA31239B0A3A3A3F002FA
:103823003690EE4F6003023697850C82850D831226
:10383300348DAA16AB17120865850A82850B83742B
:1038430002F0EA850882850983F085128285138355
:10385300EB80CBEE4F60030236971239D1F8A3E029
:10386300F9850A82850B837402F0E885088285094D
:1038730083F0E985128285138380A3850C82850DED
:1038830083123132120FC1EAFC8C82A882C39EE4F8
:103893009F404BE86E7001EF70047C00801F851819
:1038A30082851983E0FAEE2AFAEF3400FBC3EA9823
:1038B300EB94005003E08004EECCC39CFCEC850A3F
:1038C30082850B83F08C0A750B00780A12190C851C
:1038D3000C82850D83E02EFCA3E03F02367E75103B
:1038E30007023690EE4F6003023697850C82850DF2
:1038F30083123CC3850A82850B837407F08882890F
:10390300831239B0123998E0851282851383F0E867
:103913002402FAE93400FB8A828B831239B012390C
:10392300E91239B8A31239F21239C1F0E82405F8C3
:10393300E93400F9888289831239C1A3123A0AA3B0
:1039430002381E741D1216ED123AA9700302368D49
:10395300123CC3880C890DE8450D700302368D8E29
:10396300108F11781012190C780A12190C7808129A
:10397300190C74061216EDE0F9AC0EAD0FAA16ABD6
:1039830017850C82850D831216F774061216B8E993
:10399300F510023690F088828983A322F50CEF3468
:1039A30000F50D22E0F50E750F00780E22E0850874
:1039B3008285098322123A1122123CC7E822123A65
:1039C30011A3A322A3A3A3A3E0FEA3E0FF22850CDC
:1039D30082850D83E0F8A3E0F5838882E022E0F599
:1039E30008A3E0F50922A3A3F08A828B83A3221202
:1039F30026A4A3A322F08A828B83123A0122E0F544
:103A03000A750B00780A22123998123A1122E085BE
:103A13000882850983A3A32274EE1216F974FE1299
:103A230016A28A0A8B0BECFAEDFB74141216EDE066
:103A3300F510A3E0F51174161216EDE0FE741812DA
:103A430016EDE0F50EA3E0F50F851882851983AC1A
:103A530082AD83123A9E603E851882851983123A9D
:103A6300A9602FA3A31239E1E50845096024780E64
:103A730012190C781012190CEEF9AC0CAD0DAA0A40
:103A8300AB0B8508828509831216F774041216B8E6
:103A93008006790E80027901022EDE12072D8A0C30
:103AA3008B0DEA450D22123136123AB0221207F974
:103AB3008A828B83E58245832274F61216F974FE9B
:103AC3001216A2740C1216ED1239BC8518828519D0
:103AD30083F074011216EDE9F0E4F508F5097808AE
:103AE30012190C750802780812190C74041216EDD9
:103AF300858208858309780812190C12084D74060B
:103B03001216B874021216B8806474F71216F9EA22
:103B1300FEEBFF89087C187D03120865EA540260F6
:103B23000BA908EEFAEFFB12072180027901023498
:103B3300FA74F61216F974FF6A700374FF6B701C43
:103B43007B00EB75F003A4F8A9F0EC28F8ED39F944
:103B5300123B760BEBC39402501480E61208358AAD
:103B6300088B09A808A909E8496003123B767F027C
:103B73000217CB8882898374FF1226A2E4F0227491
:103B8300F61216F91208358A828B83E58245836023
:103B930006A3A3E0FA80027A007B0080D174F212BC
:103BA30016F98A088B09ECFEEDFF740E1216EDE090
:103BB300F50A123BE6701CEEFCEFFD7AFF7BFF1269
:103BC3003BE670047911801688828983E508F0A3A7
:103BD300E509F088828983A3A3E50AF079007F06CB
:103BE3000217CB1208358A0C8B0DA80CA90DE849D6
:103BF3002274EE1216F9EAFEEBFF8C088D09890C8C
:103C030074121216ED123CC374141216ED12348D95
:103C130074161216ED123132750D00EC4D6003026D
:103C23003CB77402650C6003023CB288828983123C
:103C33003492F9EC2400F50EE439F50FEAF4F8EBCD
:103C4300F4F9EC58F8E50F59F9E849705DE50824F3
:103C530006F8E5093400F9880A890B8882F583128E
:103C63002DC71208658A108B11E50E65107004E5E7
:103C73000F65116042780E12190C850A82850B8339
:103C8300122DC712086B74021216B8E9F50D7027CE
:103C9300780E12190C850882850983A3A3122DC5FA
:103CA30012088374021216B8800D750D8080087592
:103CB3000D0D8003750D0BA90D0233988E828F8332
:103CC300123CC722E0F8A3E0F92274E81216F97453
:103CD300E71216A2851882851983EAF0A3EBF08C0C
:103CE300168D17890E74311216EDE0F512A3E0F567
:103CF3001374331216EDE0F514A3E0F515743512C1
:103D030016EDE0F50F750800750900E50975F00378
:103D1300A4F8A9F0851882851983123E37E0F47060
:103D230003A3E0F47003023E15EE2402F50CEF1238
:103D33003E2DE07003023E1585160A85170B780A9F
:103D430012190CAC14AD15AA12AB131207ED7402C1
:103D53001216B88A0A8B0BEA450B7003023E15E470
:103D6300F510F511781012190C74061216ED8582F0
:103D730010858311781012190C74091216ED8582BF
:103D830010858311781012190C851282851383A371
:103D9300A3A3A31219237914AC0AAD0B8E828F83CC
:103DA300123E4B1216B8E97069850A82850B83A30C
:103DB300A3A3A3123CC374021216ED1234A4850C00
:103DC30082850D83E0A2E05018A90E74021216ED4D
:103DD300AC82AD838E828F83123132120745E94262
:103DE30008850C82850D83E0A2E15026E50FF50AD4
:103DF300780A121910A90E74031216EDAC82AD8362
:103E03008E828F8312313212073F74011216B8E982
:103E130042080509E509C394025003023D0EA908AF
:103E230074191216B87F100217CB3400F50D850CE8
:103E330082F58322E028FEA3E039FF8E828F83225E
:103E43007916850A82850B83123136120847740866
:103E53002274F21216F9EAFEEBFF890B7401650B6B
:103E6300600E7402650B70637901120A5DE9705B81
:103E7300EEFAEFFB123ED16047750A00800B7C1708
:103E83007D007900120FDF050A9002E5E0F8E50AEC
:103E9300C3985021E50A75F017A4F8A9F0850882A4
:103EA300850983A3A3E028FAA3E039FB8A828B83E5
:103EB3001227F370C985088285098374FFF0A3F084
:103EC3007C187D03EEFAEFFB12085F023BE1120858
:103ED3002F8A088B09EA45092274F21216F98A0817
:103EE3008B09ECFEEDFF740E1216ED123579900A74
:103EF30009E0F4603D7A097B00120FEBEA4B603274
:103F03008A828B8374B1F0A3E41239EBA31239E9EB
:103F1300A3E508F0A3E509123F38EEF0A3EF123F43
:103F230038A3A3E50AF0A3E50BF0900A09E0F91220
:103F33000FF7023BE1F08A828B83A3A3A3A3A322FF
:103F4300C082C0839061907404F0A37448F0A3749A
:103F530002F09061807440F09061BC7403F0906152
:103F6300877419F0906265741BF090619C740DF076
:103F730090619A7433F0A37455F09061A0743AF091
:103F830090055CE064017009C2919003C674678078
:103F9300059003C67461F0902566E493906186F002
:103FA300902560E493F46027E493540FF8906185BF
:103FB300E0686012E5C654804449F5C6E59E547F27
:103FC300644970F8E8F053C680E59E547F70FA792F
:103FD30005120DAB024185C082C083E9540FF990ED
:103FE3006185E0696012E5C654804449F5C6E59EE3
:103FF300547F644970F8E9F053C680E59E547F709E
:10400300FA024185C082C083E5A8F853A87E906177
:1040130081E4F0A3F0A3F0C2BA539AFEC289759B60
:1040230000C2C275E90075910075BF0075A91175CD
:10403300B905906181F0A374C0F0A3E4F0D2BA4350
:104043009A0174805842A8024185C082C08374F8E3
:104053001216A29003C4E0F8A3E0F9E84970030242
:10406300417B9003C4E0544060237908851882851E
:104073001983AA82AB83120C13851882851983AA2C
:1040830082AB831208EF9003C4E054BFF0E0548086
:104093006010790C7A807B05120C139003C4E054F2
:1040A3007FF0E0A2E0503190619A7433F0A374552D
:1040B300F09061A0743AF090055CE064017009C26D
:1040C300919003C6746780059003C67461F012086B
:1040D300F59003C4E054FEF0E05402603190619A1D
:1040E300743FF0A3745AF09061A0747FF090055C64
:1040F300E064017009D2919003C674718005900346
:10410300C6746AF01208F59003C4E054FDF0E0545D
:10411300046013902564E493906186F01208FB9089
:1041230003C4E054FBF0E054086013902565E49366
:10413300906186F01208FB9003C4E054F7F0E0545A
:10414300106013902566E493906186F01208FB904B
:1041530003C4E054EFF0E05420600A1208FB90031C
:10416300C4E054DFF0A3E05401600D120B411209C7
:10417300019003C5E054FEF074081216B88003F0F2
:10418300A3F0D083D08202013574EC1216F974F4D3
:104193001216A2851882851983AC82AD837583813B
:1041A30075829774041215B590256493F460030225
:1041B3004319907808E0C3940250030242F974044F
:1041C3001216EDAC82AD8375838175822274081259
:1041D30015B5851882851983858212858313740426
:1041E3001216EDAC82AD83750EFF750FFF7FFF7E58
:1041F30000750C48750D78801574086E70030242C3
:104203008C74096E700302428C740A6E607B850C99
:1042130082850D8378081215728C828D83A909E536
:104223000AC9F88810741878081214B3E510450801
:10423300F8C3E098A3E099850C82850D8378081272
:10424300157240188C828D83741878081214B3E5A4
:10425300104508F8E0C398F8A3E0801C74187808A8
:104263001214B3E5104508FAE9FB8C828D83E0F85C
:10427300A3E0F9EAC398F8EB99F9C3E8950EE99539
:104283000F5006880E890FEEFF0EE50C2404F50C83
:10429300E50D3400F50DEEC3941350030241FC7495
:1042A300FF650E700474FF650F60238F0874027836
:1042B3000812168F74482508F58274783509F5833A
:1042C3007808121572851282851383E508F0EC24B1
:1042D300020C0CED3400FD851282851383A38582C5
:1042E30012858313740C1216EDE5826C7003E5835B
:1042F3006D60030241EA7508017509007808121917
:104303000C74021216EDAC82AD837A597B0912113B
:10431300CB74021216B8740C1216B87F0C0217CBAA
:10432300C082C08390618674E1F09061AE7468F0DE
:10433300A3746AF090624574FBF0A304F053F4FD98
:1043430043FE0290055C7401F090619A7433F0A30C
:104353007455F09061A0743AF0740164017009C25D
:10436300919003C6746780059003C674610241840B
:104373007F040217CBC082C08375E1F1900511E081
:1043830060551460081460591460518059120B4D24
:10439300900507E0F97A087B05120D2D90818F12A5
:1043A3001590120D639081CF121590120D3990055F
:1043B30012E0F9120D457901120D9F900505E024D5
:1043C30016F8A3E03400F9888289837465F0A37436
:1043D3000BF07900024185120B5380B4120B598004
:1043E300AF120B5F80AA791280EA74F41216F97582
:1043F300D90D9004F6E0A2E0E4331313F890050717
:10440300E0C4333354C0484401F5D97805790588AD
:10441300828983A3A3A3E0F5D988828983A3A88291
:10442300A983E8640B7003E9640570E378F6790403
:1044330088828983A3E0F5D988828983A3A882A986
:1044430083E864FC7003E9640470E575E195900406
:10445300F6E0F97AF77B04120D33900A2B74FFF020
:10446300A3740AF0A3745BF0A3740CF0A3745BF061
:10447300A3740CF0A3745BF0A3740CF0A37405F0A5
:10448300A3740BF0A3745BF0A3740CF0A3741DF07E
:10449300A3740BF0900A39745BF0A3740CF0A3744B
:1044A3005BF0A3740CF0A3745BF0A3740CF0A3741F
:1044B3005BF0A3740CF0A3745BF0A3740CF0A3740F
:1044C3005BF0A3740CF0900505E0F8A3E0F5838896
:1044D30082A3A3780812157290818B78081214FEB8
:1044E3009081CB780812154C900505E0240EF8A3B3
:1044F300E03400F9888289837808121581900505D4
:10450300E02414F8A3E03400F9888289837413F05B
:104513009003C27402F0024373C082C083900517F4
:10452300E02407F5D9900507E0C4333354C0F5D927
:104533007805790588828983A3A3A3E0F5D98882C6
:104543008983A3A882A983E8640B7003E9640570D7
:10455300E3900517E0601F78057905FAE82413F561
:1045630082E93400F583E0F5D988828983A3A882A0
:10457300A9831AEA70E6900537E02407F5D9900578
:1045830007E0C4333354C04404F5D978057905886A
:10459300828983A3A3A3E0F5D988828983A3A88210
:1045A300A983E8640B7003E9640570E3900537E0C1
:1045B300601F78057905FAE82433F582E93400F5BC
:1045C30083E0F5D988828983A3A882A9831AEA7034
:1045D300E675E195900A2B740BF0A3740BF0A374AA
:1045E3005BF0A3740CF0A3745BF0A3740CF0A374DE
:1045F3005BF0A3740CF0A37405F0A3740BF0A37425
:104603005BF0A3740CF0A3741DF0A3740BF0900A79
:1046130039745BF0A3740CF0A3745BF0A3740CF017
:10462300A3745BF0A3740CF0A3745BF0A3740CF09D
:10463300A3745BF0A3740CF0A3745BF0A3740CF08D
:104643009081B7121590900505E0240EF8A3E0348D
:1046530000F98882898312159C900505E02414F8DB
:10466300A3E03400F9888289837412F09003C27442
:1046730001024184C082C083900517E02407F5D965
:10468300900507E0C4333354C04402F5D978057963
:104693000588828983A3A3A3E0F5D988828983A3AC
:1046A300A882A983E8640B7003E9640570E39005AD
:1046B30017E0601F78057905FAE82413F582E934D9
:1046C30000F583E0F5D988828983A3A882A9831A98
:1046D300EA70E675E195900A2B7417F0A3740BF05A
:1046E300A37417F0A3740BF0A37417F0A3740BF067
:1046F300A37417F0A3740BF0A37417F0A3740BF057
:10470300A37417F0A3740BF0A3741DF0A3740BF040
:10471300900A39745BF0A3740CF0A3745BF0A37478
:104723000CF0A3745BF0A3740CF0A3745BF0A3749C
:104733000CF0A3745BF0A3740CF0A3745BF0A3748C
:104743000CF09081B7121590900505E0240EF8A3A4
:10475300E03400F98882898312159C900505E024D2
:1047630014F8A3E03400F9888289837414F0900369
:10477300C27404024184C082C083900517E02407F9
:10478300F5D9900507E0C4333354C04406F5D9780E
:1047930005790588828983A3A3A3E0F5D988828953
:1047A30083A3A882A983E8640B7003E9640570E31B
:1047B300900517E0601F78057905FAE82413F58260
:1047C300E93400F583E0F5D988828983A3A882A917
:1047D300831AEA70E6900537E02407F5D9900507B8
:1047E300E0C4333354C04404F5D97805790588828D
:1047F3008983A3A3A3E0F5D988828983A3A882A987
:1048030083E8640B7003E9640570E3900537E060A7
:104813001F78057905FAE82433F582E93400F58336
:10482300E0F5D988828983A3A882A9831AEA70E66E
:1048330075E195900A2B7411F0A3740BF0A3745BCC
:10484300F0A3740CF0A3745BF0A3740CF0A3745B7B
:10485300F0A3740CF0A3745BF0A3740CF0A3745B6B
:10486300F0A3740CF0A3741DF0A3740BF0900A3939
:10487300745BF0A3740CF0A3745BF0A3740CF0A34B
:10488300745BF0A3740CF0A3745BF0A3740CF0A33B
:10489300745BF0A3740CF0A3745BF0A3740CF0903E
:1048A30081B7121590900505E0240EF8A3E03400BB
:1048B300F98882898312159C900505E02414F8A3D6
:1048C300E03400F9888289837415F09003C274037D
:1048D300024184C082C083900505E0F8A3E0F5831C
:1048E3008882A3A3A3A3A3A3E402418274F71216AD
:1048F300F99003F0E0F875F004A4C8AAF02AF9745B
:10490300F228F8740339F9E82405FAE93400FB8A3C
:10491300828B83E0FCA3E0FD88828983A3A3A3A306
:10492300A3A3A3A3A3ECF0A3EDF088828983A3A39D
:10493300A3A3A3A3A3E024FFF8A3E034FFF98A828F
:104943008B83E8F0A3E9024B9474F71216F9EAFE9D
:10495300EBFF9061D0E06003024A2975D90E75D947
:104963000375D904EE248CF582EF3400F583E582D8
:104973002408F8E5833400F9E0F5D9A3E8658270EB
:1049830003E9658370F2EE2484F582EF3400F58346
:10499300E5822404F8E5833400F9E0F5D9A3E8655A
:1049A300827003E9658370F275E1957908EE248CD2
:1049B300FAEF3400FB120C077904EE2484FAEF3487
:1049C30000FB120C077C00EEF8EFF9ECFAC3E49A53
:1049D300FA95E0FBEE2AFAEF3BFBEA248BF582EB38
:1049E3003400F583E0C0E0E824ABF582E93400F558
:1049F30083D0E0F00C88828983A3A882A983ECC3C7
:104A0300940840C7EE2470F582EF3400F583E0F894
:104A1300A3E0F9EE2472F582EF3400F583E8F0A306
:104A2300E9F0790180027900024B95C082C0837559
:104A3300D90275D90375D90575E195EA2470F58214
:104A4300EB3400F583E0F8A3E0F9EA2472F582EB96
:104A53003400F583E8F0A3E9F0790102418574F6A7
:104A63001216F9EAFEEBFF9005607406F075086014
:104A7300750905780812190C7C017903120C4F741F
:104A8300021216B875D90675D90375826075830548
:104A9300E0F5D9A3E58264657004E583640570F0ED
:104AA30075E1959003C2E06408701EEE2470F582F0
:104AB300EF3400F583E0F8A3E0F9EE2472F582EF1A
:104AC3003400F583E8F0A3E9F07901024C6174F650
:104AD3001216F9EAFEEBFF9061D0E0706678019060
:104AE3000560740BF09003C2E064077019750860E9
:104AF300750905780812190C7C017903120C4F749F
:104B0300021216B87805740128F5D975D903758290
:104B130060758305E8FAE0F5D9A31AEA70F875E140
:104B230095EE2470F582EF3400F583E0F8A3E0F905
:104B3300EE2472F582EF3400F583E8F0A3E9F0790F
:104B43000180027900024C6174F71216F9EAFEEB58
:104B5300FF75D90375D90375D90DEE24DEF582EF00
:104B63003400F583E0F5D975E1957904120D69EE0A
:104B73002470F582EF3400F583E0F8A3E0F9EE2426
:104B830072F582EF3400F583E8F0A3E9F079018050
:104B930001F07F010217CB74F61216F9EAFEEBFF60
:104BA3009061D0E0F87480C398FAEE2483F582EF25
:104BB3003400F583E06004780480027800E8240B75
:104BC300F8EAC3985003024C5F7D09900560EDF04D
:104BD300EE24E3F8EF3400F97A617B057C088882E0
:104BE3008983E08A828B83F088828983A3A882A940
:104BF300838A828B83A3AA82AB831CEC70E0EE24AE
:104C030083F582EF3400F583E0601D750860750954
:104C130005780812190C7C097903EEFAEFFB120CE4
:104C23004F74021216B87D0D74012DF5D975D90391
:104C33007582607583058D08E0F5D9A31508E5082D
:104C430070F675E1957904120D69EE241DF582EF76
:104C53003400F583E4F0A3F07901800279007F0248
:104C63000217CB74F61216F9EAFEEBFF9061D0E05F
:104C7300F87480C398FAEE2483F582EF3400F58349
:104C8300E06004780480027800E82408F8EAC39816
:104C93005003024D667D06900560740CF09003DFAF
:104CA300E0900561F07AE07B03786279057C028A03
:104CB300828B83E088828983F08A828B83A3AA8292
:104CC300AB8388828983A3A882A9831CEC70E07AD2
:104CD300E27B037C028A828B83E088828983F08A69
:104CE300828B83A3AA82AB8388828983A3A882A9A8
:104CF300831CEC70E0EE2483F582EF3400F583E04F
:104D0300601D750860750905780812190C7C067911
:104D130003EEFAEFFB120C4F74021216B87D0A74FD
:104D2300012DF5D975D9037582607583058D08E06A
:104D3300F5D9A31508E50870F675E1957904120D08
:104D430069EE2470F582EF3400F583E0F8A3E0F90F
:104D5300EE2472F582EF3400F583E8F0A3E9F079ED
:104D63000180027900024C6174F61216F9EAFEEB37
:104D7300FF9061D0E0F87480C398FAEE2483F58243
:104D8300EF3400F583E06004780480027800E824BF
:104D930004F8EAC3985003024E457802900560E890
:104DA300F0EE24F5F582EF3400F583E0900561F031
:104DB300EE2483F582EF3400F583E0601B75086011
:104DC300750905780812190C7C027903EEFA120CA6
:104DD3004F74021216B87806740128F5D975D903F1
:104DE3007582607583058808E0F5D9A31508E50881
:104DF30070F675E195EE2474F582EF3400F583E4E3
:104E0300F0EE2480F582EF3400F583E4F0EE241D08
:104E1300F582EF3400F583E4F0A3F07904120D6911
:104E2300EE240DF582EF3400F583E0F8A3E0F9EE0C
:104E33002472F582EF3400F583E8F0A3E9F07901F9
:104E430080027900024C6174F61216F99061D0E089
:104E5300F87480C398FCEA2483F582EB3400F5836D
:104E6300E06004780480027800E82404F8ECC39836
:104E7300405B79029005607407F0EA24F6F582EB53
:104E83003400F583E0900561F0EA2483F582EB3486
:104E930000F583E060187508607509057808121934
:104EA3000C7C0209120C4F74021216B879067401B5
:104EB30029F5D975D903758260758305E9F8E0F59D
:104EC300D9A318E870F875E1957901800279000299
:104ED3004C6174F51216F9E9FCA2AFE433F50AC28A
:104EE300AF7D0080010DEA246FF582EB3400F5837A
:104EF300E0F8EDC398501A8D08EA2508F8EB340062
:104F0300F9E8246BF582E93400F583E06C70D68010
:104F130024EA246FF8EB3400F9E0FEEA2EFAEB34CE
:104F230000FBEA246BF582EB3400F583ECF0888216
:104F33008983E004F0E50AA2E092AF7F030217CB76
:104F430074F61216F9A2AFE433FDC2AFEA246FF58B
:104F530082EB3400F583E014F07C0060368C08EAC1
:104F63002508F8EB3400F9E8246CF582E93400F500
:104F730083E0C0E0E8246BF582E93400F583D0E0F8
:104F8300F00CEA246FF582EB3400F583E0F8ECC310
:104F93009840CAEA246EF582EB3400F58374FFF07F
:104FA300EA246AF582EB3400F583E4F0EDA2E092A3
:104FB300AF024C61C082C083E5A8F8C2AFEA246B9C
:104FC300F582EB3400F583E9F0EA246AF582EB34E9
:104FD30000F583E4F0E8A2E792AF02418574F3128F
:104FE30016F9EAFEEBFFECFAEDFB8A828B83A3A3AF
:104FF300A3A3E0541FF0EE2436F582EF3400F583CB
:10500300E4F0F50AEEFCEFFD8A828B83E0C0E0EC6E
:10501300245DF582ED3400F583D0E0F0750B00E5F7
:105023000A33333354F8F50C8A828B83E0F5087521
:105033000900E50B7808121670E508A2E0502FEE80
:105043002436F8EF3400F988828983E0F508EE25E9
:1050530008F508EF3400F509E5082438F582E50979
:105063003400F583E50CF088828983E004F0050BB6
:10507300050CE50BC3940840AF050A8A828B83A312
:10508300AA82AB838C828D83A3AC82AD83E50AC3F2
:105093009405500302500B7F050217CB74F71216C9
:1050A300F99003EEE0640170077A007B0002521668
:1050B3007E009003F4E070F17401F0A3E4F0A3F038
:1050C30090045404F0900457E4F0A3F090045A04BD
:1050D300F09003F7E4F0A3F0A3F0A3F0900401042D
:1050E300F0900427E4F09081E712159090040A12DF
:1050F300159C90040EE4F0A3F0A3F0900472F090DA
:105103000466F090045B7480F0A3E4F0900461F013
:10511300900459F09004DDF0A3F0A3F0A3F0A3F002
:10512300A3F0A3F0A3F09004E6F0900475F09004CC
:10513300C5F0A3F09081E71215909004C712159C57
:105143009081E71215909004CB12159C9004D1E442
:10515300F09004D3F09004CFF09004E9F0A3F0A30F
:10516300F0A3F0A3F0A3F0A3F0A3F078EE7903E8A3
:10517300246FF582E93400F58374FFF00E88828989
:1051830083A3A882A983EEC3940440E37AEE7B034E
:1051930078FD790488828983E0C0E0EA2461F5829E
:1051A300EB3400F583D0E0F088828983A3A882A939
:1051B300838A828B83A3AA82AB83E864027003E9A8
:1051C300640570D07AEE7B0378D57903888289836E
:1051D300A3E0C0E0EA24E7F582EB3400F583D0E0F6
:1051E300F088828983A3A882A9838A828B83A3AA56
:1051F30082AB83E864DD7003E9640370CF9003EE50
:10520300E004F0640170089003F6E09003F0F07A94
:10521300F27B03024B95C082C0839003F5E4F090C8
:1052230003F4F09003EEF0A3F0A374FFF075E1F143
:10523300024185C082C083780079009003F5E06065
:105243000478F2790388828983A3A3A3A3E0F902F4
:10525300418574F61216F9EAFEEBFF8E828F83A363
:10526300A3A3E0600F8E828F83A3A3A3E4F0900334
:10527300EFE014F09003EEE014F070069003F07486
:10528300FFF08E828F83A3A3E4F0900502E0700DFC
:105293009003EFE0640170057900120D4BEE246575
:1052A300F582EF3400F583E0F8A3E0F9E8496029DB
:1052B300EE2465F8EF3400F9880889098882F583BC
:1052C300E0FCA3E0FD9003F0E0FA7B0012092585E2
:1052D3000882850983E4F0A3F0EEFAEFFB120C7F5A
:1052E300024C6174F71216F9EAFEEBFF8E828F838C
:1052F300A3A3A3A3E0FA7B00120967EEFAEFFB1264
:105303000BD1120C67024B95C082C08378D5790309
:1053130088828983A3E4F088828983A3A882A983EE
:10532300E864DD7003E9640370E69003D602467215
:1053330074F61216F9EAFEEBFFEC2403F8ED3400E1
:10534300F988088909EC2407F8ED3400F9E8FCE949
:10535300FD8C828D83E0F8A3E0F9850882850983BB
:10536300E0FAA3E0FB121617EE240DF582EF3400EA
:10537300F583E8F0A3E9F08C828D83E0F8A3E0F9EC
:10538300850882850983E0FAA3E0FB1216178B09CF
:10539300EA45096013EE240DF582EF3400F583E04E
:1053A3002401F0A3E03400F0024C6174F61216F904
:1053B300EAFEEBFFEE242EF582EF3400F583E0FCEA
:1053C300A3E0FD780079FAECFAEDFB121617EE2450
:1053D30070F582EF3400F583E8F0A3E9F078007903
:1053E300FAECFAEDFB1216178B09EA45096013EE86
:1053F3002470F582EF3400F583E02401F0A3E03458
:1054030000F0024C6174F01216F9EAFEEBFF74101F
:105413001216ED7808121572120D098A0C8B0D8C79
:105423000E8D0F908183780C1214FE9081CB780C33
:1054330012154C780C1219088E828F83E0F8A3E0C2
:10544300F5838882A3A312159012229E7404121668
:10545300B8E960030255558E828F83E02402F8A3D6
:10546300E03400F9E8FAE9FB8A828B8378081215A5
:10547300119081CB78081215728A828B8378081277
:10548300155FEE240BF582EF3400F583C082C083F1
:105493008E828F83A3A3A3A3A3E02401F8A3E03404
:1054A30000F9D083D082E0687003A3E069700579C6
:1054B300010255578E828F83A3A3A3A3A3A3A3E0C3
:1054C3002401F0A3E03400F0EE2474F582EF3400FD
:1054D300F583E064017036EE2475F582EF3400F550
:1054E30083E0F8A3E0F98E828F83A3A3A3A3A3A3EE
:1054F300A3E0687003A3E0697013EE2475F582EFEF
:105503003400F583E02401F0A3E03400F0EE2480BE
:10551300F582EF3400F583E064017036EE2481F503
:1055230082EF3400F583E0F8A3E0F98E828F83A342
:10553300A3A3A3A3A3A3E0687003A3E0697013EE7E
:105543002481F582EF3400F583E02401F0A3E034F5
:1055530000F079007F080217CB74F71216F9900355
:10556300F0E0F875F004A4C8AAF02AF974F228FE52
:10557300740339FF8028EE2465F8EF3400F988823C
:105583008983E0FCA3E0FD88828983E4F0A3F08EA5
:10559300828F83A3A3A3A3E0FA7B00120925EE2441
:1055A30065F582EF3400F583E0F8A3E0F9E849609C
:1055B3004FEE2464F582EF3400F583E0F5087808B4
:1055C300121910EE2463F582EF3400F583E0F9EE4F
:1055D3002465F582EF3400F583E0FCA3E0FDEEFAE9
:1055E300EFFB120BFB74011216B8E96089EE246518
:1055F300F582EF3400F583E0F8A3E0F9E84970138E
:105603007C007D008E828F83A3A3A3A3E0FA7B009B
:10561300120925024B9574F21216F9EAFEEBFF8983
:105623000A740E1216EDE0FAEE2462F582EF3400EE
:10563300F583E0640160030256E59061D0E0F874FD
:1056430080C398F50CEE2483F582EF3400F583E0F4
:1056530060047804800278008908E928F8E43400BB
:10566300F9E824020808E93400F9E50C98E499A262
:10567300D265D0334068EA7005750B028003750B61
:1056830001E06039750900780812190C7A607B050E
:10569300120C3174021216B8750860750905780882
:1056A30012190CAC0AA90BEEFAEFFB120C4F7402A1
:1056B3001216B87404250AF50A7C607D0574012569
:1056C3000AF5D9850BD9E50A600D8C828D83F8E044
:1056D300F5D9A318E870F875E19579008006790784
:1056E300800279FF7F060217CBC082C083E9602066
:1056F3008C828D83E08A828B83F08C828D83A3AC32
:1057030082AD838A828B83A3AA82AB8319E970E07B
:10571300ECFAEDFB02418574EA1216F9907803E086
:105723006442705E90055FE014F07056C2AF12578A
:105733003400782AD0E0F618D0E0F6E59F5407F954
:10574300700590817F80039081AB7808121572E910
:10575300C4C0E07829E65508F50808E65509F509B7
:10576300740B7808121680D0E02508F8906270E078
:10577300A2E740F8E8C333906272F0906270E0D21F
:10578300E0F09003F0E0F47003025B3DE0F875F0A5
:1057930004A4C8AAF02AF974F228FE740339FFEEB0
:1057A3002402F582EF3401F583E0F8A3E0F9E84938
:1057B300601EEE2402F582EF3401F583E0FAA3E0E4
:1057C300FBEE2401F582EF3401F583E0F912101B9F
:1057D3008E828F83A3A3A3A3A3A3A3E0F8A3E0F9DB
:1057E3008E828F83A3A3A3A3A3E8F0A3E9F0906021
:1057F30054E09003C9F0906055E09003CAF09060C4
:1058030056E09003CBF0906057E09003CCF09060AB
:1058130058E09003CDF0906059E09003CEF0906093
:105823005AE09003CFF090605BE09003D0F090607B
:105833005CE0FC9003D1F090605DE0FB9003D2F05C
:1058430090605EE0FD9003D3F090605FE0FA900318
:10585300D4F09003CFE08C082508F8E43400F98DE8
:1058630008E82508F8E93400F98B08E82508F8E981
:105873003400F98A08E82508FAE93400FBEE24F736
:10588300F582EF3400F583E02AF0A3E03BF08C08C7
:10589300EE24F9F582EF3400F583E02508F0A3E068
:1058A3003400F0EE24FBF582EF3400F583E02401AD
:1058B300F0A3E03400F0EE24FFF582EF3400F5832B
:1058C300E0F8A3E0F9E8496042906000E0C333FCEC
:1058D300E433FDE82CF582E93DF583E02AF0A3E00B
:1058E3003BF0906000E0FA9003D1E0FCEAC333FAA6
:1058F300E433FBE82AF8E93BF9E8244AF582E93482
:1059030000F583E02CF0A3E03400F09003CFE070C7
:10591300119003D2E0700BA3E07007A3E0700302C1
:105923005A1D8E828F83A3A3A3A3A3E0F8A3E0F958
:10593300EE240DF582EF3400F583E028F8A3E03977
:10594300F9EE240BF582EF3400F583E8F0A3E9F0D8
:10595300EE240FF582EF3400F583E4F0EE241CF51A
:1059630082EF3400F583E06401701EEE2420F5829B
:10597300EF3400F583E0F8A3E0F9EE241DF582EFA0
:105983003400F583E8F0A3E9F09003CAE06052EE37
:10599300241CF582EF3400F5837401F0EE246AF5DC
:1059A30082EF3400F583E07038EE2474F582EF342F
:1059B30000F583E0702BEE2480F582EF3400F5834D
:1059C300E0701EEE2420F582EF3400F583E0F8A3A7
:1059D300E0F9EE241DF582EF3400F583E8F0A3E946
:1059E300F0906062E07003025AD08E828F83E0F8F9
:1059F300A3E0F9E82406FCE93400FDE82402FAE90F
:105A03003400FB120D038E828F83E02412F8A3E08F
:105A13003400F988828983025ADA9003D1E0603A2C
:105A2300EE240FF582EF3400F583E4F0EE241CF549
:105A330082EF3400F583E064017040EE2420F582A8
:105A4300EF3400F583E0F8A3E0F9EE241DF582EFCF
:105A53003400F583E8F0A3E98020EE24FDF582EF1E
:105A63003400F583E02401F0A3E03400F0EE241DBC
:105A7300F582EF3400F583E4F0A3F0EE240BF58216
:105A8300EF3400F583E0F8A3E0F98E828F83A3A3BC
:105A9300A3A3A3E0687003A3E069600302598CEE3B
:105AA300240FF582EF3400F583E060128E828F833A
:105AB300A3A3A3A3A3E064057002A3E0600B79088A
:105AC300EEFAEFFB120BD78071793E80F3EE241DC3
:105AD300F582EF3400F583E4F0A3F0906060E0C05A
:105AE300E0EE2469F582EF3400F583D0E0F0900313
:105AF300CFE0F8EE2467F582EF3400F583E0280267
:105B03005C3D90055DE064017035120DB7EE2467CE
:105B1300F582EF3400F583E070069060607480F0E6
:105B2300EEFAEFFB120CC1E96401600E120BF512E1
:105B33000CBBE964016003120C677F0E0217CBEE06
