:020000040000FA
:0600000002011D021DDFDC
:03002B0002252289
:030033000225049F
:03005300021E5238
:03006B000224DB91
:10008300021C93E5C754F84401F5C7790122000027
:100093000080FB120086B90003020107E47921788E
:1000A30008B800028004F709D8FCE479297802B87B
:1000B30000028004F709D8FCE490028178B0790744
:1000C3008002F0A3D8FCD9FA781A90014D7A01BACC
:1000D30000028007E493A3F608DAF9900930AA82B4
:1000E300AB8390014E78D679038015E493A3AC8259
:1000F300AD838A828B83F0A3AA82AB838C828D83A8
:10010300D8E9D9E77582327583A9740312012F7573
:100113008291758300740012012F75D00075813FA1
:10012300751881751902759F00020096C09FF59F8F
:10013300E473D09F22D083D082C09FE493C0E07445
:100143000193C0E0740293F59F2201FF0000B40005
:100153000028002800283075A000A000A000A000FF
:1001630000080008E001F00010001000100010006B
:100173001000100050005000500010001000D00775
:100183000000000000000F003075070010000100A0
:1001930081FF0000FF21063F062706FF02020A0A2D
:1001A300025000A0000000E80302FD82010000E904
:1001B3008202F982010000810902F382010000B288
:1001C3000202F982010000820902F182010000C8E3
:1001D3000202F982010000830902EF82030000CAD0
:1001E3000202F982010000840902F582030000CBB8
:1001F3000202F982010000850902018301000086E1
:1002030009FF0100FF2002FD82010000E68202F9DE
:1002130082010000EA0902058300000000000203D6
:10022300830300001803FD0BFD0BFD0BFD0BFD0B02
:10023300FD0BFD0BFD0BFD0BFD0BFD0BFD0BFD0B7B
:100243008B0EA30E850EFFFF0202020202020202C0
:1002530002010D000000100102FD82010000EC828A
:1002630002F9820100002D0A0217830100007807BA
:1002730002F9820100002E0A021583010000A98100
:1002830002F9820100002F0A0213830100009B81FF
:1002930002F982010000300A021183010000098182
:1002A30002F982010000310A020F830100001B8161
:1002B30002F982010000320A020D83010000F78077
:1002C30002F982010000330A020B83010000D3808C
:1002D30002F982010000340A0209830100008D81C2
:1002E30002F982010000350A020783010000360A81
:1002F30001E803053F10FF0001307503020106000A
:1003030000000000000000000000000000000000EA
:100313000000000000000000000000FFFF06008056
:100323000CE803ED120000F3120AE2C56DB5DFFB22
:1003330048D2B060D0F5A71096E04368617261635C
:1003430074657269737469632031000A00010002E5
:10035300436861726163746572697374696320329F
:10036300000AB74368617261637465726973746983
:100373006320330008436861726163746572697353
:100383007469632034000243686172616374657247
:10039300697374696320350002FD82010000E38202
:1003A30002F9820100000E0B0225830900000F0BE6
:1003B30002F7820100001F0B02F982010000300BDB
:1003C300022383090000310B02F782010000350B81
:1003D30002F982010000460B022183090000470B4A
:1003E30002F782010000480B02F982010000590B59
:1003F300021D83080000240902F7820100005A0B42
:1004030002F9820100006B0B021B830400002B091D
:1004130002F7820100006C0B0000000000000000E6
:10042300120138649C031201387B9C03120138AA21
:100433009C03120138E39C031201380B9D03120144
:1004430038399D03120138509D03120138679D030B
:100453001201387D9D03120138A49D03120138B7A0
:100463009D03120138CD9D03120138E09D03120153
:1004730038059E0312013811A40212013810A50297
:1004830012013845A50212013866A5021201387619
:10049300A50212013897A502120138A3A602120180
:1004A3003870A702120138E3A70212013869A802C3
:1004B300120138ACA802120138E3A802120138690C
:1004C300A9021201383BAA0212013899AA021201A9
:1004D30038B1AA021201382BAB021201382EAB023B
:1004E30012013831AB02120138D8AB02120138F0D5
:1004F300AB0212013820AC0212013840AC021201E7
:10050300382EAD02120138E4AD02120138B9EE0201
:10051300120138E1EE021201380FEF0212013846E0
:10052300EF02120138AEEF02120138F7EF021201A7
:100533003842F00212013880F002120138BDF00295
:10054300120138EBF00212013892F1021201389CC9
:10055300F102120138A9F102120138DCF102120191
:10056300389EF202120138AAF202120138C2F202D4
:10057300120138CCF202120138ADA503120138BBC7
:10058300A503120138D3A503120138EBA503120109
:1005930038F5AA0112013893AB011201380BAC01F3
:1005A30012013820AD011201385AAD01120138038E
:1005B300AE01120138D8AE011201383CB00112016C
:1005C3003893B0011201381AB10112013801B20196
:1005D3001201384EB201120138DCB20112013800A7
:1005E300B301120138D5B40112013816B501120155
:1005F3003838B501120138B9B501120138A3B60173
:1006030012013869B701120138CFD502120138A19E
:10061300D6021201384AD7021201388DD7021201CD
:10062300381AD802120138A6D80212013887D90223
:10063300120138B6D902120138B2DA02120138FABD
:10064300DA02120138FCDB0212013840DC0212012B
:100653003866DC02120138CDA7031201383888034B
:100663001201384E88031201387488031201389C32
:100673008903120138A68903120138FF8A03120184
:1006830038FF8B03120138C6E902120138D3EA029C
:1006930012013807EB0212013849EB021201380349
:1006A300ED02120138476D00120138AA6D001201E4
:1006B30038EF6E00120138FF6E00120138226F000E
:1006C3001201386D6F0012013812700012013808E0
:1006D3007100120138D271001201384A73001201FD
:1006E300388C73001201382A7400120138777400B1
:1006F3001201389D74001201388B76001201389074
:100703007600120138717800120138C578001201A1
:10071300382779001201384F7900120138F3790034
:10072300120138B57A00120138E67A00120138E96D
:100733007A00120138317B00120138737B001201F9
:1007430038DA7B00120138E19103120138F4910386
:100753001201380D920312013858920312013833F3
:100763009303120138C293031201380D940312014B
:10077300385025001201385C2500120138952500F8
:10078300120138DA250012013891260012013817B8
:1007930027001201387C2700120138A82700120114
:1007A30038E12700120138F52900120138D12B0056
:1007B300120138BC2D00120138F32E0012013853F8
:1007C30031001201383F3200120138853300120123
:1007D30038923400120138AF3400120138E7340084
:1007E300120138013500120138693500120138034E
:1007F3003A00120138A43A00120138F53A00120106
:10080300381C3B001201386A3B00120138883B0058
:10081300120138DC3B00120138B53C001201383CB0
:100823003E00120138C43E001201389EE302120159
:1008330038A8E30212013873E402120138B7E40264
:10084300120138DDE40212013829E5021201386190
:10085300E5021201388AE502120138C7E6021201E5
:1008630038F4E60212013821E7021201386CE7027C
:1008730012013887E702120138D2E7021201380C5D
:10088300E80212013846E8021201389BE80212011D
:100893003806E9021201384FE90212013879E902F8
:1008A3001201389EE9021201384C840312013816F2
:1008B3008503120138F985031201386F860312018B
:1008C30038B18603120138DE870312013800800233
:1008D300120138298002120138428002120138873E
:1008E30081021201386582021201388482021201E8
:1008F30038118302120138548302120138A1840291
:10090300120138408502120138BF8702120138569E
:1009130088021201382A89021201380C8A02120154
:1009230038788B021201380B8C02120138C4A203EF
:100933001201382DA30312013881A303120138A831
:10094300A303120138EEF7021201385BF802120119
:1009530038A6F8021201389BF90212013897FA02FD
:1009630012013881FB021201384FAE021201389195
:10097300AE021201386BAF0212013844B002120109
:10098300383FB1021201381EB2021201388AB20294
:1009930012013851B302120138BCB30212013823D9
:1009A300B4021201384EB402120138BFB40212016C
:1009B3003852B502120138BBB502120138D0B50264
:1009C30012013818B60212013831B60212013896F4
:1009D300B60212013899B602120138098C031201CA
:1009E30038318C031201386F8C031201382D8D03BB
:1009F300120138988D03120138B48D03120138DCCB
:100A03008D031201380C8E031201381B8E03120161
:100A130038958E03120138BB8E031201381CC801AE
:100A2300120138F9C901120138F4CB01120138C798
:100A3300CC0112013812CD011201385DCD01120132
:100A4300387BCD01120138BDCD01120138D8CD015B
:100A530012013824CE011201385ECE011201388111
:100A6300CE01120138CECE0112013841CF0112015D
:100A73003853D101120138FDD2011201384DD3018F
:100A8300120138B2D40112013808D50112013876A7
:100A9300D501120138C1D501120138EBD50112017C
:100AA30038828C02120138AD8C0212013894930201
:100AB300120138B89502120138739702120138D027
:100AC30098021201382B3F00120138C23F00120175
:100AD30038EF3F00120138354000120138744100ED
:100AE3001201380B4300120138604300120138D55C
:100AF30043001201380445001201385F4600120119
:100B030038614700120138BE4800120138D7480047
:100B1300120138344900120138164A0012013849CB
:100B23004A00120138B94A00120138334B0012014E
:100B330038824B001201384E4C00120138534D00DD
:100B4300120138324E00120138BD4E001201382B0B
:100B53004F001201389F4F00120138C84F00120195
:100B6300388750001201380152001201381E52001A
:100B73001201383D5200120138CE5200120138F3EF
:100B830052001201381B5300120138965300120110
:100B930038F0530012013844550012013801560051
:100BA300120138D4560012013816D60112013866E4
:100BB300D60112013872D6011201384FD701120142
:100BC300387FD701120138B7D70112013836D8015F
:100BD3001201386ED801120138C0D801120138FD54
:100BE300D80112013822DB011201384EDD01120156
:100BF3003849DF0112013824E101120138F57F0081
:100C03001201384497011201388E97011201386D91
:100C13009D01120138EE9E011201384DA50112010A
:100C23003848A60112013885A601120138A8A60189
:100C3300120138EAA601120138F3A601120138FDA8
:100C4300A601120138E9A701120138DDA80112013A
:100C5300380257001201387A6100120138806100AE
:100C63001201388C680012013843FC02120138D992
:100C7300FC02120138EFFC0212013869FD02120175
:100C830038BFFD02120138FDFD021201385AFE027F
:100C9300120138D7FE02120138E0FE02120138ECCD
:100CA300FE02120138FFFE021201383BFF0212015D
:100CB3003851FF02120138B0FF02120138008003DD
:100CC3001201380D800312013827800312013866A0
:100CD3008003120138A48003120138098103120131
:100CE300381E81031201382981031201383681032A
:100CF3001201384D81031201385B810312013866FA
:100D030081031201387281031201388181031201B8
:100D1300388C8103120138AF8103120138588203E2
:100D23001201386882031201388282031201389F4C
:100D33008203120138BB8203120138E082031201DD
:100D430038EA8203120138FE82031201381D83033D
:100D53001201387E83031201388483031201388A17
:100D630083031201389083031201389C8303120119
:100D730038CF8303120138EAE3011201386CE4012E
:100D830012013815E5011201385DE6011201386BD5
:100D9300E80112013851E90112013886E901120113
:100DA30038A8E90112013851EA0112013821EC0196
:100DB3001201384AEC01120138C2EC01120138F475
:100DC300EC0112013801ED011201384CED01120161
:100DD3003870ED01120138C1EF01120138CBF00177
:100DE30012013827F1011201389EB901120138AFFF
:100DF300BA0112013893BB011201389DBB011201E4
:100E030038BFBB01120138CBBB011201386FBD01E2
:100E13001201389CBD01120138B2BE01120138071C
:100E2300BF0112013856C0011201382BC101120152
:100E33003887C101120138F2C10112013827C201FA
:100E43001201386AC20112013834C5011201384C4B
:100E5300C501120138DDC501120138EBC5011201CC
:100E63003838C60112013846C601120138B2C6012C
:100E73001201382DC70112013884C701120138F35A
:100E83009802120138159902120138269B021201A9
:100E930038E59D021201380F9F02120138CD9F02DF
:100EA300120138B9A002120138AB9A03120138D0EB
:100EB3009A03120138469B03120138B2CE02120183
:100EC30038BBCE02120138C4CE021201389CCF02C5
:100ED3001201384DD1021201387DD102120138A816
:100EE300D102120138D8D10212013803D202120101
:100EF3003837D20212013863D202120138A6D20265
:100F0300120138D1D20212013818D3021201386DFE
:100F1300D302120138AFD30212013809D4021201ED
:100F23003834D40212013883D402120138B3D40204
:100F3300120138DED4021201380CD5021201382F07
:100F4300D50212013856A80312013882A8031201F0
:100F530038AFA803120138B9A803120138C9A8038E
:100F6300120138BDB602120138C7B60212013805A4
:100F7300B7021201384EB70212013888B7021201C4
:100F830038E2B70212013803B802120138DBBA02A1
:100F9300120138E4BA0212013831BB021201385A85
:100FA300BB0212013864BB02120138D0BB0212012A
:100FB3003862BC02120138ACBC02120138E2BC0236
:100FC3001201386EBD02120138AFBD02120138E6BC
:100FD300BD02120138F8BD0212013817BE02120118
:100FE3003820BE02120138EDBE02120138D9A30324
:100FF300120138BA9803120138F098031201382607
:101003009903120138719A0312013835A7031201AB
:10101300384BA70312013855A7031201389FA703C2
:10102300120138D3A80312013861F3021201387692
:10103300F30212013826F40212013866F402120197
:10104300387FF402120138BAF40212013807F502AC
:1010530012013839F5021201387BF5021201387C8E
:10106300F7021201384DA10312013876A1031201D0
:1010730038A5A1031201383DA2031201387FA20350
:10108300120138038F03120138288F0312013852DB
:101093008F031201388AA903120138308301120128
:1010A300380D8501120138B38601120138678701B3
:1010B300120138F187011201387288011201389B3D
:1010C3008801120138598C01120138DF8C01120199
:1010D30038068E01120138408E01120138818E01CB
:1010E300120138C98F011201382690011201386F9D
:1010F3009001120138DA90011201384B910112016B
:10110300387D9101120138959101120138C1920184
:10111300120138D192011201387B940112013892E5
:101123009401120138C49401120138789601120116
:101133003805970112013884A60312013895A603D6
:10114300120138E0A9031201381FAA03120138C99A
:10115300AA03120138D0A403120138E0A403120138
:1011630038F5A403120138A7A503120138EEFE01D6
:1011730012013873FF01120138D9FF011201381728
:101183009E03120138409E03120138A69E031201EA
:1011930038C69E03120138179F03120138729F034A
:1011A300120138AC9F03120138AF9F03120138A418
:1011B3007C00120138B97C00120138E47D00120171
:1011C30038607E00120138D47E00120138EE7E00B2
:1011D300120138057F00120138187F0012013832DE
:1011E3007F00120138497F001201386F7F0012011E
:1011F30038C07F00120138B3AA03120138C3AA030F
:10120300120138C6AA03120138F87F001201387C94
:1012130096031201381098031201387198031201D2
:1012230038B79803120138B99F031201380BA00392
:101233001201387EA003120138E7A00312013837E8
:1012430094031201386194031201382F950312019C
:10125300380A96031201381BBF02120138E2BF029B
:1012630012013819C00212013843C002120138A317
:10127300C002120138F9C0021201385EC102120124
:1012830038F6C10212013805C3021201389CC402A8
:1012930012013829C50212013890C502120138A77C
:1012A300C502120138C1C602120138FFC60212017B
:1012B3003874F1011201380BF50112013882F6017D
:1012C300120138D2F601120138EFF6011201386D1E
:1012D300F7011201388FF90112013855FD0112018E
:1012E300385DC702120138FECB02120138A9CC02C5
:1012F300120138BECD0212013831CE02120138DBA1
:10130300DC0212013820DD021201383DDD02120138
:10131300380BDE021201387FDE0212013872DF025F
:1013230012013865E3021201385FAA03120138295A
:10133300AA031201388BAA03120138E0FF02E06608
:10134300701008A3E066700A08A3E066700408A39F
:10135300E06622C3E7960809E7960809E7960809B5
:10136300E79622C3E09608A3E09608A3E09608A3B5
:10137300E09622C008C3E096F50808A3E096420869
:1013830008A3E096420808A3E09645087001D3D06D
:101393000822080808EAC0E0EBC0E086F0E7A4FAF8
:1013A300180986F0E7A42AFA180986F0E7A42AFAAE
:1013B300180986F0E7A42AFA1986F0E7A4FBE5F0FA
:1013C3002AFA190886F0E7A42BFBE5F03AFA190884
:1013D30086F0E7A42BFBE5F03AFA18180986F0E744
:1013E300A4C5F02BFBE43AFA1908E7C5F0C6A42616
:1013F300F6E5F03BFBE43AFA1886F0E7A4F6E5F0ED
:101403000826F6E43B08F6E43A08F6D0E0FBD0E021
:10141300FA22E4CFC0E0E4CEC0E0E4CDC0E0E4CC07
:10142300C0E075F020C3E633F608E633F608E6338A
:10143300F608E633F6181818EC33FCED33FDEE33FB
:10144300FEEF33FFC3EC9709ED9709EE9709EF978A
:10145300191919400FFFEC97FC09ED97FD09EE9759
:10146300FE191906D5F0BEECF709EDF709EEF709F9
:10147300EFF7191919D0E0FCD0E0FDD0E0FED0E081
:10148300FF226016080808C6C313C618C613C61879
:10149300C613C618C613C6D5E0EA227009080808A1
:1014A300226016181818C6C333C608C633C608C642
:1014B30033C608C633C6D5E0EA22E627F60809E6AE
:1014C30037F60809E637F60809E637F622E026F686
:1014D30008A3E036F608A3E036F608A3E036F622C2
:1014E300E026F008A3E036F008A3E036F008A3E016
:1014F30036F022C3E697F60809E697F60809E69759
:10150300F60809E697F622C3E096F008A3E096F002
:1015130008A3E096F008A3E096F022E056F608A3AD
:10152300E056F608A3E056F608A3E056F622E05686
:10153300F008A3E056F008A3E056F008A3E056F045
:1015430022E0F608A3E0F608A3E0F608A3E0F622FB
:10155300E6F008A3E6F008A3E6F008A3E6F022E02D
:10156300FAA3E0FBA3E0FCA3E0FD22EAF0A3EBF087
:10157300A3ECF0A3EDF022CAC0E0E6F0A308DAFA88
:10158300D0E0FA22CAC0E0E0A3C582CCC582C583FD
:10159300CDC583F0A3C582CCC582C583CDC583DA0F
:1015A300E6D0E0CA22C3E498F8E499F91215E98079
:1015B30026C3E49AFAE49BFBE920E7E91215E9E480
:1015C30098F8E499F922C3E498F8E499F91215E933
:1015D300E498F8E499F9C3E49AFAE49BFB22EB203C
:1015E300E7CFE920E7E0B90010BB0008E88AF08400
:1015F300F8AAF022E4FBC8FA22EB70227B10C8336E
:10160300C8C933C9335007C39AC3DBF280069A5063
:10161300012ADBEAC833F4C8C933F4C9FA2275F0E6
:1016230008E4C833C8C933C933C99AC99B5004C92C
:101633002AC93BD5F0ECFBC833F4C8E4C9FA2260ED
:101643000D08C6A2E713C618C613C6D5E0F3226079
:101653000C08C6C313C618C613C6D5E0F42270041B
:1016630022600D18C6C333C608C633C6D5E0F418C6
:1016730022251810AF08F518400215198008F5182F
:1016830040021519D2AF22C0D0251810AF08F518A3
:10169300500205198008F51850020519D2AFD0D0B1
:1016A300222518F58210AF08F51840021519800895
:1016B300F51840021519D2AF851983222518F58232
:1016C300E43519F58322E4732518C582C0E0E519D2
:1016D30034FFC583C0E0E518C3958224F810AF0832
:1016E3008583198582188008858319858218D2AF6E
:1016F300CEF0A3E520F0A37808E608F0A3DEFAEF26
:10170300F0A3E58124FAF8E608F0A3E608F0A3E6DF
:1017130008F0A30808E608F0A3E608F0A31581156E
:1017230081D0E0FED0E0F8158115811581E8C0E095
:10173300EEC0E0222518C582C0E0E51934FFC58359
:10174300C0E0E518C3958224F910AF088583198595
:1017530082188008858319858218D2AFCEF0A3E55D
:1017630020F0A37808E608F0A3DEFAEFF0A3E58102
:1017730024FBF8E608F0A3E608F0A30808E608F05F
:10178300A3E608F0A315811581D0E0FED0E0F8159B
:10179300811581E8C0E0EEC0E022851983851882B7
:1017A300E0A3FEE0A3F5207808E0A3F608DFFAE063
:1017B300A3FFE0A3C0E0E0A3C0E0E0A3C0E0E0A398
:1017C300C0E0E0A3C0E010AF0885821885831980CC
:1017D30008858218858319D2AFD083D08202013560
:1017E300851983851882E0A3FEE0A3F5207808E03D
:1017F300A3F608DFFAE0A3FFE0A3C0E0E0A3C0E0A4
:10180300E0A3C0E0E0A3C0E010AF088582188583A1
:10181300198008858218858319D2AFD083D082229C
:10182300C0D02518C582C0E0E51934FFC583C0E0E8
:10183300E518C3958224F310AF08858319858218B0
:101843008008858319858218D2AFC8F0A3E9F0A375
:10185300EAF0A3EBF0A37908E709F0A3D8FAECF0D8
:10186300A3EDF0A3EEF0A3EFF0A3D0E0F0A3D0E05C
:10187300F0A3D0E0F0A3E520F0A3E5F0F0A32285E8
:101883001983851882E0C0E0A3E0F9A3E0FAA3E09E
:10189300FBA37808E0F608A3DFFAE0FCA3E0FDA3CE
:1018A300E0FEA3E0FFA3E0C0E0A3E0C0E0A3E0F517
:1018B300D0A3E0F520A3E0A3F5F010AF08858319CA
:1018C3008582188008858319858218D2AFD082D08B
:1018D30083D0E0F8D0E0327404800674028002748E
:1018E30001C0E0F4041216A4D0E012157A227404A5
:1018F300800474028000CCC0E0EDC0E0E518C39C16
:10190300CCAD1950011D10AF068C188D1980068CB3
:10191300188D19D2AF121587D0E0FDD0E0FC22D08C
:1019230083D082E9C0E0E493A3C386F0C5F095F0C9
:10193300F908E493A386F0C5F095F0700BE493A344
:10194300C3994005E9048002A3E475F002A425824B
:10195300F582E5F03583F583D0E0F9E493A3C0E0A5
:10196300E493C0E022D083D082ECC0E0EDC0E0E499
:1019730093A3FCE493A3FDED4C600D1219B4EC2486
:10198300FFFCED34FFFD80EFE493A3FCE493A3FDA0
:10199300ED4C600D1219F3EC24FFFCED34FFFD80D8
:1019A300EFD0E0FDD0E0FCE493A3C0E0E493C0E01B
:1019B30022C0E0C3E49396087401939618400FE4A1
:1019C3009366700808740193661870007019A3A3D6
:1019D300C3E49396087401939618A3A3400DD0E033
:1019E300D0E0D0E00219A4A3A3A3A3A3A3D0E02231
:1019F300C0E0C0F088F0E493667008087401936651
:101A0300187000A8F0A3A3700BD0F0D0E0D0E0D002
:0B1A1300E00219A4A3A3D0F0D0E02251
:101A200074F5121737EAFEEBFFEE2434F8EF3400BA
:101A3000F988088909EE2435F582EF3400F583E052
:101A4000F8EE2437F582EF3400F583E0F50AEC85F3
:101A50000AF0A4FCAAF0850AF0EDA42AFDE82CF80F
:101A6000E43DF97A257B001215E9EA8508828509AB
:101A700083F05407F87401B800028004C333D8FC23
:101A8000C0E0E0131313541FF8EE28F8EF3400F908
:101A9000E8245DF582E93400F583D0E0F8E0586091
:101AA00008EE2434F582EF801EEE2436F582EF3402
:101AB00000F583E0F5F0EA84A8F0EE28F8EF3400B2
:101AC000F9E82438F582E93400F583E0F97F04026F
:101AD00017E374F5121737EAFEEBFFEE2434F582B4
:101AE000EF3400F583E0C0E0EE2435F582EF3400FA
:101AF000F583D0E0F08E828F83A3A3A3A3A3A3A337
:101B0000C082C0838E828F83A3A3A3A3A3E0F8A384
:101B1000E0F9D083D082E0C398F508A3E099F509F5
:101B2000EE2480F582EF3400F583E064017069EE05
:101B30002481F582EF3400F583E0F8A3E0F98E828A
:101B40008F83A3A3A3A3A3A3A3E0FCA3E0FD8E82A2
:101B50008F83A3A3A3A3A3E0FAA3E0FBC3EA9CEBB8
:101B60009D5027C3EC98ED99402EC3EA98EB99500D
:101B7000277CFD7D04EEFAEFFB120B5BEE2480F573
:101B800082EF3400F583E4F0800EC3EA98EB9940CD
:101B9000E0C3EC98ED9950D9EE2434F8EF3400F915
:101BA000E8FCE9FDEE2435F582EF3400F583E0F83A
:101BB000EE2437F582EF3400F583E0F50AE5088579
:101BC0000AF0A4F508AAF0850AF0E509A42AF509A7
:101BD000E82508F8E43509F97A257B001215E9EAC9
:101BE0008C828D83F05407F87401B800028004C31E
:101BF00033D8FCC0E0E0131313541FF8EE28F8EFBD
:101C00003400F9E8245DF582E93400F583D0E0F88A
:101C1000E0586008EE2434F582EF801EEE2436F59D
:101C200082EF3400F583E0F5F0EA84A8F0EE28F8BE
:101C3000EF3400F9E82438F582E93400F583E0F95F
:101C40001224CD021ACDC082C083851882851983E3
:101C5000E0F8A3E0F9C3EA9CEB9D5012C3EC98EDC9
:101C6000994019C3EA98EB99501279018010C3EAA0
:101C700098EB9940F5C3EC98ED9950EE7900D0833C
:101C8000D08222EAC39CFAEB9DFB22008521878546
:101C900022C622C0E0C0D0E8C0E0E9C0E0EAC0E06F
:101CA000EBC0E0ECC0E0EDC0E0C008C009C00AC075
:101CB0000BC082C083C0F0759B00906182E0A2E6F9
:101CC0004003021D71E591A2E64003021D7175916A
:101CD000BF9003C2E064057008120C93120C9F8041
:101CE00003120C99752100120CF9E99003C3F079E5
:101CF00000120CED120AD77A017B009003C1E0F9C3
:101D0000120FC3907803E064426003021DBA90058D
:101D10005FE014F06003021DBAC2AF121D1E00780E
:101D20002AD0E0F618D0E0F6E59F5407F970059048
:101D3000829B80039082937808121544E9C4C0E026
:101D40007829E65508F50808E65509F509740B7871
:101D500008121652D0E02508F8906270E0A2E74021
:101D6000F8E8C333906272F0906270E0D2E0F080E5
:101D700049E0A2E55024E591A2E5501E7591DF905F
:101D800003C2E0640D70139003E4E004F064287073
:101D900002E4F07A00E0F9120D6B906181E0A2E3B9
:101DA0005009E5E9A2E3500375E9F7A3E0A2E75083
:101DB00009E591A2E7500375917FD0F0D083D082DE
:101DC000D00BD00AD009D008D0E0FDD0E0FCD0E0A4
:101DD000FBD0E0FAD0E0F9D0E0F8D0D0D0E032C0CB
:101DE000E0C0D0C082C083906183E0A2E05009E5EA
:101DF000BFA2E0500375BFFEE0A2E15009E5BFA21B
:101E0000E1500375BFFDE0A2E25009E5BFA2E25038
:101E10000375BFFBE0A2E35009E5BFA2E3500375E1
:101E2000BFF7E0A2E45009E5BFA2E4500375BFEF9D
:101E3000E0A2E55009E5BFA2E5500375BFDFE0A2CF
:101E4000E65009E5BFA2E6500375BFBFD083D0823C
:101E50008088C0E0C0D0E8C0E0E9C0E0EAC0E0EBC4
:101E6000C0E0ECC0E0EDC0E0C0F0E5A7A2E6500F96
:101E7000E5A1A2E6500953A7BF75A1BF121EB7E5A1
:101E8000A7A2E5500CE5A1A2E5500653A7DF75A176
:101E9000DFE5A7A2E15009E5A1A2E1500375A1FD8C
:101EA000E5A7A2E2500CE5A1A2E2500653A7FB75FC
:101EB000A1FBD0F0021DC874F812173775210190EC
:101EC00003C2E064067015120C278A828B83A3A3D9
:101ED000A3A3A3A3E0FAA3E0FB120C81A2AFE43317
:101EE000FED2AF9003C8E0640170187A207B0090A6
:101EF00003C1E0F912104D7A207B009003C1E0F994
:101F0000120FC9906182E0D2E6F090055EE0602198
:101F100085C62280169003C7E064017008E5C654A8
:101F2000F84405F5C653BEFC121C8C740165216093
:101F3000E4EEA2E092AF7F010217E3008E238F242C
:101F4000858228858327851882851983E0CEA3E0C2
:101F5000CF852882852783EBC9EAC8EDCBECCA750B
:101F6000F010C3E833C8E933C9EA33CAEB33CBC353
:101F7000EA9EF526EB9FF525B35004AB25AA26EC87
:101F800033CCED33CDD5F0DAAE23AF242274EB128F
:101F9000173774FA1216748A088B098C148D1590F1
:101FA00003C2E024F7C3940550069082770220EF25
:101FB000120C278A0A8B0BAE0AAF0BEE4F7003028E
:101FC00020ECAC08AD09851882851983AA82AB8301
:101FD000120CB18E828F83A3A378081215449082CD
:101FE00053780812151E851882851983780C1215EE
:101FF00044908253780C12151E7808790C121356EF
:10200000501F7808790C1214F690825F780812132A
:10201000764047850810850911850A12850B1380C3
:1020200041850C10850D11850E12850F13781079DE
:10203000081214F690825F7810121376501C7510F7
:10204000007511007512007513017810790C1214C7
:10205000F6781079081214BD8008908277781012F3
:1020600015447409781012149E9082DB78081215BA
:1020700044781079081214158E828F83A3A3A3A32A
:10208000A3A3E0F8A3E0F97AD07B031215E988084E
:102090008909E4F50AF50B781079081214BD740467
:1020A0001216BFE0F8A3E0F97AD07B031215E9E835
:1020B000FA8A08E4F509781079081213565007785F
:1020C0001079081214F69003C2E06408600AE06414
:1020D000066005E06405701C90825B781012137630
:1020E000501290825778101214D0800890827B781A
:1020F00010121544851482851583781012155374B7
:102100000612168A7F0E0217E374F7121737120CA5
:10211000C390055CE064017010906245E4F0A3F0A8
:1021200053F4F343FE0C5390F3120C6FE5C6548046
:102130004449F5C6E59E547F644970F89061857402
:102140000FF090055AE0F47002A3E0604E90055B3A
:10215000E0600814601B14602E804075080175094A
:102160000090055AE07808121661E508F452808064
:102170002A75080175090090055AE0780812166161
:10218000E508F45290801475080175090090055A0D
:10219000E07808121661E508F452A079007F020287
:1021A00017E374F7121737E9FEEAFF74016E700C3B
:1021B0007A807B009003C1E0F9120FC3902548E4B8
:1021C00093F46008E493F9120ACB800953C680E5C2
:1021D0009E547F70FA120C7590055CE064017003E8
:1021E000120AE390055AE0F47002A3E0604B9005F8
:1021F0005BE0600814601A14602C803D750801755E
:10220000090090055AE07808121661E508428080BE
:102210002875080175090090055AE07808121661C2
:10222000E5084290801375080175090090055AE091
:102230007808121661E50842A0120CC3120C278A16
:10224000088B09A808A909E8496015E5E170FCE8D0
:102250002414F582E93400F583E0F46003E0F5E14D
:1022600074016F700A7A019003C1E0F9121017022D
:10227000219D74F11217378A088B098C0A8D0B7413
:102280000F1216BF780C121544908253780812155D
:102290001E908253780C12151E7808790C12135672
:1022A00050157808790C1214F690825F7808121392
:1022B00076401579018013780C79081214F6908213
:1022C0005F780C12137640EB79007F080217E374F5
:1022D000ED1217378A088B098C0A8D0B74131216AE
:1022E000BF780C121544908253780812151E908204
:1022F00053780C12151E780C790812135640117879
:1023000008790C1214F6AA08AB09AC0AAD0B8022AE
:102310007510007511007512007513017810790C95
:102320001214F6781079081214BDAA10AB11AC1271
:10233000AD137F0C0217E390825378081215448A7C
:10234000828B8378081215317F040217E374F5122B
:1023500017378C828D8378081215448A828B837894
:102360000812150AEA2404F8EB3400F98C828D83F4
:10237000A3A3A3A3E0FCA3E0FD88828983C3E09C20
:10238000F0A3E09DF088828983C3E09420A3E094C9
:102390004E40229082BB78081215448A828B837843
:1023A000081214E38A828B83A3A3A3A3E02420F062
:1023B000A3E0344EF0808074F5121737E9FE9005E3
:1023C00014E0FAA3E0FBEEC333F8E433F9744E28CB
:1023D000F582748139F583E02AF508A3E03BF5091D
:1023E00078081218DE9082AB121562121F3C74023C
:1023F00012168A8A088B098C0A8D0B7410780812C1
:102400001485AA08AB097F040217E374F112173789
:102410008A0C8B0D8C0E8D0F740F1216BFE0FAA371
:10242000E0FB74111216BFE0F508A3E0F509741380
:102430001216BFE0FEA3E0FF78081218DEEA2401BE
:10244000F508EB3400F509E4F50AF50B780C79088A
:102450001213959082437808121544780C7908126B
:102460001395AA0CAB0DAC0EAD0F121F3C740212EB
:10247000168A8B09EA450960047A0180027A00EC29
:102480002AFCED3400FDECF8EDF97A717B021215AF
:10249000E988088909E4F50AF50B8E828F837808AC
:1024A000121553ECF8EDF97A717B021215E98A08DE
:1024B0008B09740578081216618E828F83A3A3A3FB
:1024C000A3E508F0A3E509F07F080217E3C082C086
:1024D00083E9906000F0D083D08222C0E074F212D1
:1024E0001823A2AFE433FED2AFE589A2E150031274
:1024F000119D758900C2C5751A00EEA2E092AF7FEA
:1025000001021882C0E074F2121823A2AFE433FE75
:10251000D2AFE58BA2E0500312119D758B00C2E88B
:1025200080D5C0E0C0D0E8C0E0E9C0E0E5A8D2AF07
:10253000C2C7751A00A2E7A2E792AFD0E0F9D0E0D7
:06254000F8D0D0D0E0321B
:10254800FFFFFFFFFFFFFFFFC082C083E99009E99B
:10255800F00227D474F71216CBE99002E0F07C1849
:102568007D037AFF7BFF1208019002E174FFF0A35C
:10257800F0A3E4F0A3F079051207899002E0E0F9EE
:102588001206B17A1F7B081209E10234E274F412D0
:1025980016CB8A088B09EB548060309002E0E0F992
:1025A800120FAB8A0A8B0BAE0AAF0BEE4F60138E7D
:1025B800828F83E064B070031207A1EEFAEFFB127A
:1025C8000F99AA08E5096480FB80047A007B000261
:1025D80027A374F21216CB74FC121674EAFEEBFFF2
:1025E80074121216BF1239C9EE4F700302267D7499
:1025F800021216BFEEF0A3EF1229DEECF0A3ED12E3
:1026080029DEAA82AB831206ABE9F50A706AE508EF
:10261800450960648E828F831239AFEE4F60567A17
:10262800067B00120FFF8A0C8B0DA80CA90DE84938
:102638007005750A13804188828983E412268AEE20
:10264800F0A3EF1239DAE508F0A3E509F09002E605
:102658001227119002E6700512348C801B12347A0E
:102668008003EAFCEBFD8C828D8312271170F38CBA
:10267800828D8380E3750A02A90A740412168A02FD
:102688003BC9F0A3123980A32274F21216CB890A2F
:10269800E975F017A4FEAFF09002E5E4F09002E3CC
:1026A800122711600A1210059002E3E4F0A3F0EE7D
:1026B800FAEFFB120FFF8A088B09EA4509602FEE33
:1026C800FCEFFD7900120F819002E3E508F0A3E525
:1026D80009F07B0080081226FBE4F0A3F00BEBC3A3
:1026E800950A40F2E50A9002E5F079008002791334
:1026F800023BC9EB75F017A4F8A9F09002E3E028B3
:10270800FAA3E0398A82F5832212311EEA4B227439
:10271800F41216CB740C1216BF1239A4FEE9FF7519
:102728000800750900800CE5082401F508E509345E
:1027380000F509C3E5089CE5099D503285080A851E
:10274800090B7403780A121661EA250AF8EB350BAF
:10275800F988828983A3A3A3A3A3A3123561EE6595
:102768000A7003EF650B70BFE8FAE9FB80047A0092
:102778007B00802774F41216CB7900EAA2E0501B84
:1027880075082675098278081218DE7C047D007A9F
:10279800EB7B09120783740212168A7F0402179DC5
:1027A800C082C0839002E61227DB601C888289837E
:1027B800A3A3E06A7003A3E06B8882898370E8A30F
:1027C800A3A3A312311A80047A007B00D083D0829D
:1027D800020135123CAFE8492274EE1216CB74FCA4
:1027E800121674EAFEEBFF851882851983E4F0A3BC
:1027F800F0EE240212346CEE2405123987EE24041C
:10280800F50EEF122D93E024FE603924FC60462477
:10281800FE605224FE605E24FE70030228F424FE4B
:10282800700302295824FE700302296724FE7003EE
:1028380002297624FC700302298524FE70030229EC
:10284800940229D19002FF7417F0A3E41229E6122A
:1028580004290229D1851882851983AC82AD831297
:1028680007A70229A1851882851983AC82AD831236
:1028780007AD0229A1850C08850D0974021216BF3F
:10288800AC82AD8385088285098312311A1206CF7E
:102898008A0C8B0DAC0CAD0DEC4D603BE4F50CF5E2
:1028A8000D780C1218DE750CFF750D02780C1218D5
:1028B800DE750C00750D03780C1218DE74081216FC
:1028C800BF1218F5123E2B12168AE9F50C700B127E
:1028D8003110120441800F750C0185088285098327
:1028E8001229D412348C850C080229A474021216F9
:1028F800BFAC82AD83850C82850D83122EE5603CCA
:10290800850C82850D83A3A31218F57510FF751128
:102918000278101218DE751000751103781012185D
:10292800DE74081216BF1218F5123E2B12168AE929
:10293800F509700B123110120447800F75090185D3
:102948000C82850D831229D412348C850908804C99
:10295800851882851983AC82AD831207B3803A85C6
:102968001882851983AC82AD831207B9802B85182C
:1029780082851983AC82AD831207BF801C851882BB
:10298800851983AC82AD831207C5800D85188285B1
:102998001983AC82AD831207CBE9F508E5086029F5
:1029A8008E828F83A3E06414601F850E82850F8357
:1029B800E09002FF1229DE123CAB90030012348C27
:1029C800E508A31229E612042302337B123CAF85E3
:1029D800188285198322F085188285198322F07C54
:1029E800FF7D02850A82850B8312311E2274EE1246
:1029F80016CB74FC1216748A0A8B0B8C0E8D0FEA98
:102A08002405F508EB3400F5097C157D0079007A7A
:102A1800FF7B02120F81E5082402F50CE509123943
:102A28008A8518828519838582108583117810120A
:102A380018DE850882850983A3A3A3A3122EDC12BE
:102A480018DEE5082405F510E5093400F5117810BD
:102A58001218DE850C82850D831232311206C97474
:102A68000612168A8A108B11AE10AF11E50A2402DD
:102A7800F50AE50B12346FEE4F7003022BB3801783
:102A880074021216BF12311A88828983EAF0A3EB06
:102A9800F09002FFE004F09002FFE0C394054003C9
:102AA800022BB3E4F510F51178101218DE7510E852
:102AB80075110278101218DE7510E9751102781078
:102AC8001218DE74061216BF1218F57910EEFCEF14
:102AD800FD123E2D12168AE9705E850882850983EB
:102AE800A3A3A3A3A3A3A3E0F89002E8E068704817
:102AF800122EDC1218DE7CE97D02E5082408FAE5CE
:102B0800093400FB120F7B740212168AE960298EC1
:102B1800828F83A3A3A3A312311A9002FFE0F510BA
:102B28007402781012166174002510F5827403354A
:102B380011F583EAF0A3EBF074021216BF85821038
:102B480085831178101218DE74021216BF1218F558
:102B5800850C82850D8312314012168A8A108B11DA
:102B6800AE10AF119002FFE0F510751100740278F5
:102B78001012166174FF2510F874023511F9888255
:102B88008983A31227117003022A7FE82403080807
:102B980008E93400F9EE4F6003022A8888828983A5
:102BA80074FFF0A3F09002FFE004F09002FFE060F1
:102BB8000A1231101204357900800B8508828509C4
:102BC80083123483790A02337B74EA1216CB74FEBB
:102BD8001216748C128D13EA2405F50CEB123E15AF
:102BE8001239B3750800750900EA2402F510EB34B0
:102BF80000F51185188285198385820A85830B78EB
:102C08000A1218DE850C82850D83A3A3A3A3122DB7
:102C1800A91218DEE50C2405F50AE50D12346F78C3
:102C28000A1218DE850C82850D83122DAD1206C995
:102C3800740612168A8A0A8B0BEA450B7003022D5A
:102C48004EEA2404F50EEB122D931239B38A828BC7
:102C580083A3A3A3E0F98510828511831231246030
:102C680003022D4EE4F514F51578141218DE7514C8
:102C7800E875150278141218DE7514E975150278CE
:102C8800141218DE74061216BF1218F57913AC0A5E
:102C9800AD0B851082851183123E3312168AE9F531
:102CA800096003022D4E9002E8E0F8E5087009E09B
:102CB8002402900300F08014900300E0FCE8240252
:102CC800FAE43400FBEA6C7001EB707E850882AA96
:102CD80082122ED39414122ECB506B850E82850F40
:102CE80083E0C0E074012A122D8AD0E0F00508853F
:102CF8000E82850F83A3E0C0E085080A7401250AC7
:102D0800122D8AD0E0F005089002E8122DA91218B9
:102D1800DE7CE97D0285080A7401250A122D9D12C0
:102D2800168A9002E8E02508F50874FF6E700374AF
:102D3800FF6F6012EE24010EEF3400FFE508C39424
:102D4800145003022BFBE508601312312E85108204
:102D580085118312311A12043B79008014E5097039
:102D68000375090A851282851383EEF0A3EFF0A993
:102D780009740212168A7F0E02179D85080C7401C9
:102D8800250CF58274033400F583223400F50F8591
:102D98000E82F58322FA74033400FB120F69740261
:102DA800221239E922A3A3122DB32212347AFDEE9E
:102DB800FAEFFB2274EE1216CB74FE1216748C0E08
:102DC8008D0FEA2405F50CEB12398A750B00900279
:102DD800FFE4F0F50AEA2402F508EB3400F509806F
:102DE800449002FFE0FA9002E8E0F8122ED394171C
:102DF800122ECB400D9002FFE0F87416C398900293
:102E0800E8F0122EDC1218DE7CE97D0274002AFA42
:102E18007403122DA012168A9002E8E0F89002FFBF
:102E2800E028F0050AE50C2416F582E50D122D8E32
:102E3800E0F8E50AC39850749002FFE0C394165076
:102E48006BE50AC333F8E433F9E50C28FEE50D39E0
:102E5800FF851882851983AC82AD838E828F831299
:102E68002EE57008750B0112347F8050E4F510F5DB
:102E78001178101218DE7510E87511027810121802
:102E8800DE7510E975110278101218DE7406121634
:102E9800BF1218F57916850882850983123E331208
:102EA800168AE9F50B7003022DE980BB7CFF7D02D1
:102EB80085088285098312311A12044DA90B740200
:102EC80002337DE99400C365D03322EA28F8E4345C
:102ED80000F9E822E0F5107511007810221233721B
:102EE8008A108B11AC10AD11EC4D2274EA1216CB7E
:102EF80074FC1216748A0C8B0D8C128D13EA24053F
:102F0800F50AEB12346F750800750900E50A24020A
:102F1800F510E50B3400F51174021216BF85820E08
:102F280085830F780E1218DE850A82850B83A3A38A
:102F3800A3A312398F1218DEE50A2405F50EE50B56
:102F48003400F50F780E1218DE8510828511831271
:102F580034751231141206C9740612168A8A0E8B39
:102F68000FAE0EAF0FE50C2402F50EE50D3400F59B
:102F78000F80388882898374FFF00508122D8374C6
:102F8800FFF005089002E8E0F50C750D00780C12CA
:102F980018DE7CE97D0285080C7401250C122D9D34
:102FA80012168A9002E8E02508F508EE4F60278E91
:102FB800828F83A3A3A3E0F9850E82850F83123144
:102FC80024EE2404123987E96027850C82850D8355
:102FD80012310612348CE50870030230EC12312EDF
:102FE800850E82850F8312311A120453790002313B
:102FF80001E4F514F51578141218DE7514E8751542
:103008000278141218DE7514E9751502781412186E
:10301800DE74081216BF1218F57911EEFCEFFD8563
:103028000E82850F83123E3312168AE9F509709ACB
:10303800850882AA82EA9002E87009E024049003D5
:1030480000F08025E0F8900300E0F514E82404FC83
:10305800E43400FDEC65147001ED7081122ED394F8
:1030680012122ECB4003022FE5850C82850D83E0DA
:10307800C0E074012A122D8AD0E0F00508850C8280
:10308800850D83A3E0C0E0122D83D0E0123149857D
:10309800820C85830D780C1218DE74041216BF1288
:1030A80018F585108285118312314012168A8A0C10
:1030B8008B0DAE0CAF0D85080C7401250CF874034C
:1030C8003400F9EE4F7003022F7B8518828519832F
:1030D800E088828983123149A3E0C0E0122D83D0B1
:1030E800E0022F89E509700375090A850A82850BB4
:1030F8008312310612348CA9097404022D7B123C08
:10310800AF851282851383227CFF7D02850A828522
:103118000B8312311E22E0FAA3E0FB2212311E12A9
:1031280006B7E9F50922900300E0F5F0E508849078
:1031380002FFF07CFF7D0222122DB31206D5740423
:1031480022F005088518828519832274EC1216CBA3
:1031580074FE1216748A088B098C0E8D0FEA2405EA
:10316800FEEB3400FF12335CEE2418123987EA456F
:103178000B70030231FF12334550291232248A1092
:103188008B11EA4511606B7912AC0AAD0B85088288
:1031980085098312311A8510828511831216C9E9AF
:1031A800F50A7058E4F50AF50B780A1218DE8E82D3
:1031B8008F83A3A3E0F50A780A1218DEEE2403121F
:1031C800346C780A1218DE8E828F8312323112071D
:1031D800EF740612168AE9F50A7021850C82850DAE
:1031E80083E0701F85088285098312311A120459F9
:1031F8008011750A0E8009750A018004E50A6003CA
:1032080012347F850C82850D83E06004790080028A
:10321800A90A740212168A7F0C02179D85188285E6
:10322800198312311E1207DD2212347AFD850882B5
:1032380085098312311E2274EE1216CB74FE121603
:10324800748A088B098C0C8D0DEA2405FEEB34007A
:10325800FF750E0012335CEA450B7003023323122C
:103268003345502C1232248A0E8B0FEA450F604AE0
:103278007912AC0AAD0B85088285098312311A854B
:103288000E82850F831216C9E9F50E6003023326F4
:10329800850882850983123561AA0AFB12333770C3
:1032A800147AFF7BFF123337606C88828983E50AC2
:1032B800F0A3E50BF0750A008007750E0E805F0518
:1032C8000A9002E5E0FAE50AC39A504AE50A75F061
:1032D80017A4FAABF088828983A3A3E02AFAA3E0B3
:1032E8003BFB8A828B83123475EC4D70D2750A17BA
:1032F800750B00780A1218DEEEFCEFFD120F6974E8
:103308000212168AEEFCEFFD8508828509831231C8
:103318001A12045F8014750E098003750E01123CA1
:10332800A7850C82850D8312348CA90E022EC61235
:1033380007D18A108B11A810A911E84922E50824A1
:1033480002F508E5093400F5098A828B83A3A3A353
:10335800E0A2E522851882851983AC82AD838E822E
:103368008F831233728A0A8B0B22E0FAA3E0FB12D6
:1033780006CF22740412168A7F0A02179D74EC1273
:1033880016CB8C108D11EA2405F50CEB12398A75D1
:103398000F00EA2402F50AEB12346F850A82F583DE
:1033A80012311A123EB97003023461750E00807131
:1033B800850C82850D83E06401704F8E828F83A314
:1033C800A31218F58E828F83A3A3A3A3E0F5127529
:1033D800130078121218DEEE2405F512EF3400F50A
:1033E8001378121218DE1231141207EF740612162F
:1033F8008AE9F50F6014850C82850D83E4F0123C90
:10340800A785108285118312348C7C177D00790082
:10341800EEFAEFFB120F818E828F83E4F0A3F005A2
:103428000E9002E5E0F8E50EC398501EE50E75F023
:1034380017A4F8A9F0850882850983A3A3123E1F63
:10344800123475EC4D60030233B885088285098310
:1034580074FFF0A3F0E50F7006123114120465A989
:103468000F02321FF50AEF3400F50B22A312347A4B
:10347800FD22E0FCA3E0228E828F83123CAF850EF2
:1034880082850F83E8F0A3E9F022C082C08390020E
:10349800E1E06A7003A3E06B70067AE17B028004C6
:1034A8007A007B000227D474F71216CB7F00EF75E1
:1034B800F003A4F8A9F0EC28F8ED39F9888289839B
:1034C800E06A7003A3E06B7006E8FAE9FB800B0F73
:1034D800EFC3940240D87A007B007F0102179D74E5
:1034E800F61216CB123A9870067A007B008007A372
:1034F800A3A3A312311A023B5974F21216CBE9FEA8
:10350800740E1216BF12356174101216BF1239C923
:103518008C828D83E06402703BA3123CAB88828965
:1035280083E0F50CA3E0F9A80C7402687003742911
:10353800697021750C02750D00780C1218DE780878
:103548001218DE780A1218DEEEF912081374061241
:10355800168A80027901023BC9E0F50AA3E0F50B5F
:103568002274E81216CB74FB121674E9851882854A
:103578001983F08A168B178C0E8D0F741F1216BFC5
:103588001239C974211216BF12356174231216BF7D
:103598001239B37510008C828D83A3A3A3E0A2E433
:1035A800502A741D1216BF12322A8A828B83E58232
:1035B80045837003023675790AAC0EAD0FAA16ABB7
:1035C800171216C9E9F5106003023678850E828550
:1035D8000F83E06402600302392EA3123CAB850816
:1035E80082850983A3858212858313E50E2406F557
:1035F8000CE50F12398A88828983E0FAA3E0F9EA98
:103608002400F514E439F51578141219680100003E
:103618002801283D3607000228143703288436007D
:10362800293E380129663802290D3803293E380415
:1036380029CF382E39EE4F703E850C82850D8312C6
:1036480039A4FAE9FB8A828B83E0850A82850B8399
:103658001239E01218DE8A828B83A312347AFDAA0B
:1036680008AB09120F69740212168A800375100ECE
:10367800A9107405023E0D75100B80F4EE4F70F71B
:10368800850A82850B837401F01239B98508828511
:103698000983F07C007D00850E82850F83A3A3A398
:1036A800A3E02401FAA3E03400FB1206CFEA4B6042
:1036B800418A828B83E02402F8850A82850B83E0A5
:1036C80028F0EA2404F8EB3400F988828983E0853D
:1036D80012828513831239F21239E01218DE8A82B7
:1036E8008B83123474E5082403FAE5093400FB02DD
:1036F800366B850A82850B83E02404F07C047D0008
:103708007900AA12AB13120F81023678EE4F6003CC
:1037180002367F1239B9FEA3E0FF850A82850B8342
:103728007404F0EE850882850983F0EF851282859E
:103738001383F074031216BFAC82AD83EEFAEFFB6D
:10374800123A8670030237EA8A828B83A3A312395E
:10375800AF74011216BF85820E85830F780E12187A
:10376800DE74051216BF1218F57CFF7DFF1206D510
:10377800740412168A8B0FEA450F7033850C828504
:103788000D8312398F1218DE850C82850D83A312E2
:1037980018F57C027D007AFB7B8212050174041205
:1037A800168AE9700A74011216BF74FFF0A3F08E2E
:1037B800828F83E064027034750C02750D00780CFA
:1037C8001218DE8E828F83123474E5082404FAE519
:1037D80009122DA012168A850A82850B83E024021D
:1037E800800974011216BFEEF0A3EFF074011216EF
:1037F800BF1239A0F074011216BFA3123998A3A3FF
:10380800A3F0023678EE4F600302367F850C82857E
:103818000D83123475AA16AB17120807850A82851C
:103828000B837402F0EA850882850983F085128289
:10383800851383EB80CBEE4F600302367F1239B9D4
:10384800F8A3E0F9850A82850B837402F0E88508FD
:1038580082850983F0E985128285138380A3850C0C
:1038680082850D8312311A120F63EAFC8C82A882BA
:10387800C39EE49F404BE86E7001EF70047C0080AB
:103888001F851882851983E0FAEE2AFAEF3400FBC7
:10389800C3EA98EB94005003E08004EECCC39CFC90
:1038A800EC850A82850B83F08C0A750B00780A1266
:1038B80018DE850C82850D83E02EFCA3E03F0236DE
:1038C80066751007023678EE4F600302367F850C66
:1038D80082850D83123CAB850A82850B837407F0C1
:1038E80088828983123998123980E085128285137B
:1038F80083F0E82402FAE93400FB8A828B831239C8
:10390800981239D11239A0A31239DA1239A9F0E87C
:103918002405F8E93400F9888289831239A9A312A9
:1039280039F2A3023806741D1216BF123A917003B9
:10393800023675123CAB880C890DE8450D70030200
:1039480036758E108F1178101218DE780A1218DE6C
:1039580078081218DE74061216BFE0F9AC0EAD0F27
:10396800AA16AB17850C82850D831216C974061228
:10397800168AE9F510023678F088828983A322F541
:103988000CEF3400F50D22E0F50E750F00780E22CD
:10399800E0850882850983221239F922123CAFE8B2
:1039A800221239F9A3A322A3A3A3A3E0FEA3E0FF55
:1039B80022850C82850D83E0F8A3E0F5838882E0F8
:1039C80022E0F508A3E0F50922A3A3F08A828B83FD
:1039D800A32212268CA3A322F08A828B831239E9B0
:1039E80022E0F50A750B00780A221239801239F99B
:1039F80022E0850882850983A3A32274EE1216CBE0
:103A080074FE1216748A0A8B0BECFAEDFB7414120E
:103A180016BFE0F510A3E0F51174161216BFE0FE0C
:103A280074181216BFE0F50EA3E0F50F851882850D
:103A38001983AC82AD83123A86603E851882851957
:103A480083123A91602FA3A31239C9E5084509608A
:103A580024780E1218DE78101218DEEEF9AC0CADD0
:103A68000DAA0AAB0B8508828509831216C974044E
:103A780012168A8006790E80027901022EC6120675
:103A8800CF8A0C8B0DEA450D2212311E123A98226C
:103A980012079B8A828B83E58245832274F612166D
:103AA800CB74FE121674740C1216BF1239A4851842
:103AB80082851983F074011216BFE9F0E4F508F560
:103AC8000978081218DE75080278081218DE7404DE
:103AD8001216BF85820885830978081218DE120736
:103AE800EF740612168A740212168A806474F7122A
:103AF80016CBEAFEEBFF89087C187D03120807EA5B
:103B08005402600BA908EEFAEFFB1206C380027993
:103B1800010234E274F61216CB74FF6A700374FF64
:103B28006B701C7B00EB75F003A4F8A9F0EC28F887
:103B3800ED39F9123B5E0BEBC39402501480E61288
:103B480007D78A088B09A808A909E8496003123B26
:103B58005E7F0202179D8882898374FF12268AE499
:103B6800F02274F61216CB1207D78A828B83E5826D
:103B780045836006A3A3E0FA80027A007B0080D127
:103B880074F21216CB8A088B09ECFEEDFF740E1244
:103B980016BFE0F50A123BCE701CEEFCEFFD7AFF73
:103BA8007BFF123BCE70047911801688828983E5E9
:103BB80008F0A3E509F088828983A3A3E50AF079D0
:103BC800007F0602179D1207D78A0C8B0DA80CA937
:103BD8000DE8492274EE1216CBEAFEEBFF8C088D35
:103BE80009890C74121216BF123CAB74141216BF5A
:103BF80012347574161216BF12311A750D00EC4D79
:103C08006003023C9F7402650C6003023C9A888240
:103C1800898312347AF9EC2400F50EE439F50FEAB9
:103C2800F4F8EBF4F9EC58F8E50F59F9E849705D48
:103C3800E5082406F8E5093400F9880A890B888222
:103C4800F583122DAF1208078A108B11E50E651047
:103C58007004E50F65116042780E1218DE850A823D
:103C6800850B83122DAF12080D740212168AE9F51E
:103C78000D7027780E1218DE850882850983A3A3A4
:103C8800122DAD120825740212168A800D750D804A
:103C98008008750D0D8003750D0BA90D0233808EFC
:103CA800828F83123CAF22E0F8A3E0F92274E81275
:103CB80016CB74E7121674851882851983EAF0A367
:103CC800EBF08C168D17890E74311216BFE0F512C1
:103CD800A3E0F51374331216BFE0F514A3E0F5154D
:103CE80074351216BFE0F50F750800750900E5096F
:103CF80075F003A4F8A9F0851882851983123E1F70
:103D0800E0F47003A3E0F47003023DFDEE2402F535
:103D18000CEF123E15E07003023DFD85160A85176B
:103D28000B780A1218DEAC14AD15AA12AB131207E1
:103D38008F740212168A8A0A8B0BEA450B700302EB
:103D48003DFDE4F510F51178101218DE7406121610
:103D5800BF85821085831178101218DE7409121637
:103D6800BF85821085831178101218DE851282852E
:103D78001383A3A3A3A31218F57914AC0AAD0B8E71
:103D8800828F83123E3312168AE97069850A82850A
:103D98000B83A3A3A3A3123CAB74021216BF123465
:103DA8008C850C82850D83E0A2E05018A90E740260
:103DB8001216BFAC82AD838E828F8312311A12061F
:103DC800E7E94208850C82850D83E0A2E15026E5EB
:103DD8000FF50A780A1218E2A90E74031216BFAC7E
:103DE80082AD838E828F8312311A1206E17401121A
:103DF800168AE942080509E509C394025003023C02
:103E0800F6A908741912168A7F1002179D3400F556
:103E18000D850C82F58322E028FEA3E039FF8E820F
:103E28008F83227916850A82850B8312311E120729
:103E3800E974082274F21216CBEAFEEBFF890B74C0
:103E480001650B600E7402650B706379011209FF3E
:103E5800E9705BEEFAEFFB123EB96047750A008025
:103E68000B7C177D007900120F81050A9002E5E0AE
:103E7800F8E50AC3985021E50A75F017A4F8A9F0E7
:103E8800850882850983A3A3E028FAA3E039FB8A81
:103E9800828B831227DB70C985088285098374FFAA
:103EA800F0A3F07C187D03EEFAEFFB120801023B49
:103EB800C91207D18A088B09EA45092274F2121639
:103EC800CB8A088B09ECFEEDFF740E1216BF123573
:103ED800619009E9E0F4603D7A097B00120F93EAEA
:103EE8004B60328A828B8374B1F0A3E41239D3A376
:103EF8001239D1A3E508F0A3E509123F20EEF0A39B
:103F0800EF123F20A3A3E50AF0A3E50BF09009E91F
:103F1800E0F9120F9F023BC9F08A828B83A3A3A307
:103F2800A3A322C082C0839061907404F0A3744854
:103F3800F0A37402F09061807440F09061BC740347
:103F4800F09061877419F0906265741BF090619C21
:103F5800740DF090619A7433F0A37455F09061A0D9
:103F6800743AF090055CE064017009C2919003C650
:103F7800746780059003C67461F090254EE49390B1
:103F88006186F0902548E493F46027E493540FF891
:103F9800906185E0686012E5C654804449F5C6E53D
:103FA8009E547F644970F8E8F053C680E59E547FBC
:103FB80070FA7905120D4D02416DC082C083E95433
:103FC8000FF9906185E0696012E5C654804449F5AF
:103FD800C6E59E547F644970F8E9F053C680E59EB3
:103FE800547F70FA02416DC082C083E5A8F853A8D7
:103FF8007E906181E4F0A3F0A3F0C2BA539AFEC2A6
:1040080089759B00C2C275E90075910075BF00757E
:10401800A91175B905906181F0A374C0F0A3E4F00B
:10402800D2BA439A0174805842A802416DC082C036
:104038008374F81216749003C4E0F8A3E0F9E84911
:1040480070030241639003C4E054406023790885FB
:104058001882851983AA82AB83120BB585188285CD
:104068001983AA82AB831208919003C4E054BFF06D
:10407800E054806010790C7A807B05120BB59003B0
:10408800C4E0547FF0E0A2E0503190619A7433F0BC
:10409800A37455F09061A0743AF090055CE0640157
:1040A8007009C2919003C6746780059003C6746155
:1040B800F01208979003C4E054FEF0E05402603117
:1040C80090619A743FF0A3745AF09061A0747FF0E5
:1040D80090055CE064017009D2919003C674718008
:1040E800059003C6746AF01208979003C4E054FD63
:1040F800F0E05404601390254CE493906186F0122C
:10410800089D9003C4E054FBF0E054086013902528
:104118004DE493906186F012089D9003C4E054F733
:10412800F0E05410601390254EE493906186F012ED
:10413800089D9003C4E054EFF0E05420600A120890
:104148009D9003C4E054DFF0A3E05401600D120A0F
:10415800E31208A39003C5E054FEF0740812168A0F
:104168008003F0A3F0D083D08202013574EC1216DC
:10417800CB74F4121674851882851983AC82AD83CA
:10418800758382758247740412158790254C93F4C1
:104198006003024301907808E0C39402500302428E
:1041A800E174041216BFAC82AD837583817582FEFB
:1041B800740812158785188285198385821285836C
:1041C8001374041216BFAC82AD83750EFF750FFF12
:1041D8007FFF7E00750C48750D78801574086E7029
:1041E8000302427474096E7003024274740A6E60AA
:1041F8007B850C82850D8378081215448C828D830B
:10420800A909E50AC9F8881074187808121485E510
:10421800104508F8C3E098A3E099850C82850D83C2
:10422800780812154440188C828D83741878081207
:104238001485E5104508F8E0C398F8A3E0801C74DD
:10424800187808121485E5104508FAE9FB8C828D68
:1042580083E0F8A3E0F9EAC398F8EB99F9C3E89585
:104268000EE9950F5006880E890FEEFF0EE50C2417
:1042780004F50CE50D3400F50DEEC394135003025C
:1042880041E474FF650E700474FF650F60238F08A6
:104298007402780812166174482508F58274783516
:1042A80009F5837808121544851282851383E50879
:1042B800F0EC24020C0CED3400FD8512828513838A
:1042C800A3858212858313740C1216BFE5826C7065
:1042D80003E5836D60030241D27508017509007812
:1042E800081218DE74021216BFAC82AD837A537BB3
:1042F80009121173740212168A740C12168A7F0C32
:1043080002179DC082C08390618674E1F09061AE0F
:104318007468F0A3746AF090624574FBF0A304F02B
:1043280053F4FD43FE0290055C7401F090619A74A9
:1043380033F0A37455F09061A0743AF074016401ED
:104348007009C2919003C6746780059003C67461B2
:1043580002416C7F0402179DC082C08375E1F19011
:104368000511E060551460081460591460518059B3
:10437800120AEF900507E0F97A087B05120CCF9036
:1043880082B3121562120D05908273121562120C17
:10439800DB900512E0F9120CE77901120D41900546
:1043A80005E02416F8A3E03400F9888289837407AD
:1043B800F0A3740BF0790002416D120AF580B41273
:1043C8000AFB80AF120B0180AA791280EA74F412FA
:1043D80016CB75D90D9004F6E0A2E0E4331313F878
:1043E800900507E0C4333354C0484401F5D9780533
:1043F800790588828983A3A3A3E0F5D98882898374
:10440800A3A882A983E8640B7003E9640570E378C4
:10441800F6790488828983A3E0F5D988828983A301
:10442800A882A983E864FC7003E9640470E575E177
:10443800959004F6E0F97AF77B04120CD5900A0BF4
:1044480074A1F0A3740AF0A374FDF0A3740BF0A395
:1044580074FDF0A3740BF0A374FDF0A3740BF0A328
:1044680074A7F0A3740AF0A374FDF0A3740BF0A36F
:1044780074BFF0A3740AF0900A1974FDF0A3740BCA
:10448800F0A374FDF0A3740BF0A374FDF0A3740BF8
:10449800F0A374FDF0A3740BF0A374FDF0A3740BE8
:1044A800F0A374FDF0A3740BF0900505E0F8A3E009
:1044B800F5838882A3A378081215449082A378080C
:1044C8001214D0908253780812151E900505E02426
:1044D8000EF8A3E03400F98882898378081215530E
:1044E800900505E02414F8A3E03400F98882898354
:1044F8007413F09003C27402F002435BC082C0835D
:10450800900517E02407F5D9900507E0C433335424
:10451800C0F5D97805790588828983A3A3A3E0F536
:10452800D988828983A3A882A983E8640B7003E9E8
:10453800640570E3900517E0601F78057905FAE8CF
:104548002413F582E93400F583E0F5D9888289835C
:10455800A3A882A9831AEA70E6900537E02407F534
:10456800D9900507E0C4333354C04404F5D978051D
:10457800790588828983A3A3A3E0F5D988828983F2
:10458800A3A882A983E8640B7003E9640570E3902B
:104598000537E0601F78057905FAE82433F582E9E4
:1045A8003400F583E0F5D988828983A3A882A9839A
:1045B8001AEA70E675E195900A0B74ADF0A3740AD7
:1045C800F0A374FDF0A3740BF0A374FDF0A3740BB7
:1045D800F0A374FDF0A3740BF0A374A7F0A3740AFE
:1045E800F0A374FDF0A3740BF0A374BFF0A3740AD6
:1045F800F0900A1974FDF0A3740BF0A374FDF0A3F6
:10460800740BF0A374FDF0A3740BF0A374FDF0A376
:10461800740BF0A374FDF0A3740BF0A374FDF0A366
:10462800740BF09082BB121562900505E0240EF819
:10463800A3E03400F98882898312156E900505E09D
:104648002414F8A3E03400F9888289837412F09066
:1046580003C2740102416CC082C083900517E02434
:1046680007F5D9900507E0C4333354C04402F5D99F
:104678007805790588828983A3A3A3E0F5D9888280
:104688008983A3A882A983E8640B7003E964057091
:10469800E3900517E0601F78057905FAE82413F51B
:1046A80082E93400F583E0F5D988828983A3A8825A
:1046B800A9831AEA70E675E195900A0B74B9F0A31C
:1046C800740AF0A374B9F0A3740AF0A374B9F0A340
:1046D800740AF0A374B9F0A3740AF0A374B9F0A330
:1046E800740AF0A374B9F0A3740AF0A374BFF0A31A
:1046F800740AF0900A1974FDF0A3740BF0A374FD0A
:10470800F0A3740BF0A374FDF0A3740BF0A374FD75
:10471800F0A3740BF0A374FDF0A3740BF0A374FD65
:10472800F0A3740BF09082BB121562900505E0248B
:104738000EF8A3E03400F98882898312156E90057B
:1047480005E02414F8A3E03400F9888289837414FE
:10475800F09003C2740402416CC082C083900517B4
:10476800E02407F5D9900507E0C4333354C0440664
:10477800F5D97805790588828983A3A3A3E0F5D9BB
:1047880088828983A3A882A983E8640B7003E964FB
:104798000570E3900517E0601F78057905FAE824AD
:1047A80013F582E93400F583E0F5D988828983A37B
:1047B800A882A9831AEA70E6900537E02407F5D99C
:1047C800900507E0C4333354C04404F5D97805791B
:1047D8000588828983A3A3A3E0F5D988828983A366
:1047E800A882A983E8640B7003E9640570E3900567
:1047F80037E0601F78057905FAE82433F582E93453
:1048080000F583E0F5D988828983A3A882A9831A51
:10481800EA70E675E195900A0B74B3F0A3740AF098
:10482800A374FDF0A3740BF0A374FDF0A3740BF054
:10483800A374FDF0A3740BF0A374FDF0A3740BF044
:10484800A374FDF0A3740BF0A374BFF0A3740AF073
:10485800900A1974FDF0A3740BF0A374FDF0A3740F
:104868000BF0A374FDF0A3740BF0A374FDF0A37414
:104878000BF0A374FDF0A3740BF0A374FDF0A37404
:104888000BF09082BB121562900505E0240EF8A388
:10489800E03400F98882898312156E900505E024BA
:1048A80014F8A3E03400F9888289837415F0900322
:1048B800C2740302416CC082C083900505E0F8A36E
:1048C800E0F5838882A3A3A3A3A3A3E402416A74A7
:1048D800F71216CB9003F0E0F875F004A4C8AAF01C
:1048E8002AF974F228F8740339F9E82405FAE93446
:1048F80000FB8A828B83E0FCA3E0FD88828983A386
:10490800A3A3A3A3A3A3A3A3ECF0A3EDF088828998
:1049180083A3A3A3A3A3A3A3E024FFF8A3E034FFE6
:10492800F98A828B83E8F0A3E9024B7C74F71216AC
:10493800CBEAFEEBFF9061D0E06003024A1175D923
:104948000E75D90375D904EE248CF582EF3400F581
:1049580083E5822408F8E5833400F9E0F5D9A3E873
:1049680065827003E9658370F2EE2484F582EF3482
:1049780000F583E5822404F8E5833400F9E0F5D9ED
:10498800A3E865827003E9658370F275E19579089B
:10499800EE248CFAEF3400FB120BA97904EE248480
:1049A800FAEF3400FB120BA97C00EEF8EFF9ECFAF1
:1049B800C3E49AFA95E0FBEE2AFAEF3BFBEA248B74
:1049C800F582EB3400F583E0C0E0E824ABF582E93A
:1049D8003400F583D0E0F00C88828983A3A882A9EB
:1049E80083ECC3940840C7EE2470F582EF3400F5D9
:1049F80083E0F8A3E0F9EE2472F582EF3400F58342
:104A0800E8F0A3E9F0790180027900024B7DC082C9
:104A1800C08375D90275D90375D90575E195EA245E
:104A280070F582EB3400F583E0F8A3E0F9EA24722C
:104A3800F582EB3400F583E8F0A3E9F0790102414F
:104A48006D74F61216CBEAFEEBFF9005607406F063
:104A580075086075090578081218DE7C017903125B
:104A68000BF1740212168A75D90675D9037582601E
:104A7800758305E0F5D9A3E58264657004E5836470
:104A88000570F075E1959003C2E06408701EEE248D
:104A980070F582EF3400F583E0F8A3E0F9EE2472B4
:104AA800F582EF3400F583E8F0A3E9F07901024CD0
:104AB8004974F61216CBEAFEEBFF9061D0E07066FF
:104AC8007801900560740BF09003C2E064077019D8
:104AD80075086075090578081218DE7C01790312DB
:104AE8000BF1740212168A7805740128F5D975D964
:104AF80003758260758305E8FAE0F5D9A31AEA70B0
:104B0800F875E195EE2470F582EF3400F583E0F84E
:104B1800A3E0F9EE2472F582EF3400F583E8F0A300
:104B2800E9F0790180027900024C4974F71216CB3A
:104B3800EAFEEBFF75D90375D90375D90DEE24DEAE
:104B4800F582EF3400F583E0F5D975E19579041223
:104B58000D0BEE2470F582EF3400F583E0F8A3E046
:104B6800F9EE2472F582EF3400F583E8F0A3E9F05A
:104B780079018001F07F0102179D74F61216CBEAC5
:104B8800FEEBFF9061D0E0F87480C398FAEE2483BE
:104B9800F582EF3400F583E0600478048002780041
:104BA800E8240BF8EAC3985003024C477D099005A6
:104BB80060EDF0EE24E3F8EF3400F97A617B057CD0
:104BC8000888828983E08A828B83F088828983A31C
:104BD800A882A9838A828B83A3AA82AB831CEC70E8
:104BE800E0EE2483F582EF3400F583E0601D75085C
:104BF8006075090578081218DE7C097903EEFAEF6A
:104C0800FB120BF1740212168A7D0D74012DF5D971
:104C180075D9037582607583058D08E0F5D9A315EC
:104C280008E50870F675E1957904120D0BEE241D60
:104C3800F582EF3400F583E4F0A3F079018002797E
:104C4800007F0202179D74F61216CBEAFEEBFF9066
:104C580061D0E0F87480C398FAEE2483F582EF34CB
:104C680000F583E06004780480027800E82408F8FE
:104C7800EAC3985003024D4E7D06900560740CF00F
:104C88009003DFE0900561F07AE07B0378627905B4
:104C98007C028A828B83E088828983F08A828B8374
:104CA800A3AA82AB8388828983A3A882A9831CECE8
:104CB80070E07AE27B037C028A828B83E0888289B7
:104CC80083F08A828B83A3AA82AB8388828983A399
:104CD800A882A9831CEC70E0EE2483F582EF3400EF
:104CE800F583E0601D75086075090578081218DEFF
:104CF8007C067903EEFAEFFB120BF1740212168AA6
:104D08007D0A74012DF5D975D903758260758305FF
:104D18008D08E0F5D9A31508E50870F675E19579D1
:104D280004120D0BEE2470F582EF3400F583E0F8E1
:104D3800A3E0F9EE2472F582EF3400F583E8F0A3DE
:104D4800E9F0790180027900024C4974F61216CB19
:104D5800EAFEEBFF9061D0E0F87480C398FAEE2485
:104D680083F582EF3400F583E060047804800278EC
:104D780000E82404F8EAC3985003024E2D78029004
:104D88000560E8F0EE24F5F582EF3400F583E09055
:104D98000561F0EE2483F582EF3400F583E0601BB3
:104DA80075086075090578081218DE7C027903EE2B
:104DB800FA120BF1740212168A7806740128F5D9D2
:104DC80075D9037582607583058808E0F5D9A31540
:104DD80008E50870F675E195EE2474F582EF340065
:104DE800F583E4F0EE2480F582EF3400F583E4F0F7
:104DF800EE241DF582EF3400F583E4F0A3F0790486
:104E0800120D0BEE240DF582EF3400F583E0F8A3C4
:104E1800E0F9EE2472F582EF3400F583E8F0A3E9B7
:104E2800F0790180027900024C4974F61216CB9091
:104E380061D0E0F87480C398FCEA2483F582EB34EF
:104E480000F583E06004780480027800E82404F820
:104E5800ECC398405B79029005607407F0EA24F689
:104E6800F582EB3400F583E0900561F0EA2483F5E0
:104E780082EB3400F583E0601875086075090578E1
:104E8800081218DE7C0209120BF1740212168A79D4
:104E980006740129F5D975D903758260758305E90A
:104EA800F8E0F5D9A318E870F875E1957901800262
:104EB8007900024C4974F51216CBE9FCA2AFE43331
:104EC800F50AC2AF7D0080010DEA246FF582EB344C
:104ED80000F583E0F8EDC398501A8D08EA2508F824
:104EE800EB3400F9E8246BF582E93400F583E06CD3
:104EF80070D68024EA246FF8EB3400F9E0FEEA2E3D
:104F0800FAEB3400FBEA246BF582EB3400F583EC12
:104F1800F088828983E004F0E50AA2E092AF7F037B
:104F280002179D74F61216CBA2AFE433FDC2AFEAA6
:104F3800246FF582EB3400F583E014F07C006036D2
:104F48008C08EA2508F8EB3400F9E8246CF582E9C6
:104F58003400F583E0C0E0E8246BF582E93400F51D
:104F680083D0E0F00CEA246FF582EB3400F583E09F
:104F7800F8ECC39840CAEA246EF582EB3400F58356
:104F880074FFF0EA246AF582EB3400F583E4F0ED6F
:104F9800A2E092AF024C49C082C083E5A8F8C2AF34
:104FA800EA246BF582EB3400F583E9F0EA246AF52C
:104FB80082EB3400F583E4F0E8A2E792AF02416D9A
:104FC80074F31216CBEAFEEBFFECFAEDFB8A828B48
:104FD80083A3A3A3A3E0541FF0EE2436F582EF3495
:104FE80000F583E4F0F50AEEFCEFFD8A828B83E09E
:104FF800C0E0EC245DF582ED3400F583D0E0F07577
:105008000B00E50A33333354F8F50C8A828B83E0BE
:10501800F508750900E50B7808121642E508A2E0C4
:10502800502FEE2436F8EF3400F988828983E0F5B2
:1050380008EE2508F508EF3400F509E5082438F5E9
:1050480082E5093400F583E50CF088828983E00461
:10505800F0050B050CE50BC3940840AF050A8A82DE
:105068008B83A3AA82AB838C828D83A3AC82AD830E
:10507800E50AC394055003024FF37F0502179D7498
:10508800F71216CB9003EEE0640170077A007B00FC
:105098000251FE7E009003F4E070F17401F0A3E485
:1050A800F0A3F090045404F0900457E4F0A3F090B7
:1050B800045A04F09003F7E4F0A3F0A3F0A3F090EF
:1050C800040104F0900427E4F090827B12156290AA
:1050D800040A12156E90040EE4F0A3F0A3F09004F5
:1050E80072F0900466F090045B7480F0A3E4F09092
:1050F8000461F0900459F09004DDF0A3F0A3F0A34C
:10510800F0A3F0A3F0A3F0A3F09004E6F0900475E8
:10511800F09004C5F0A3F090827B1215629004C74A
:1051280012156E90827B1215629004CB12156E9048
:1051380004D1E4F09004D3F09004CFF09004E9F0A7
:10514800A3F0A3F0A3F0A3F0A3F0A3F0A3F078EEEC
:105158007903E8246FF582E93400F58374FFF00ED3
:1051680088828983A3A882A983EEC3940440E37A42
:10517800EE7B0378FD790488828983E0C0E0EA2425
:1051880061F582EB3400F583D0E0F088828983A34F
:10519800A882A9838A828B83A3AA82AB83E864024C
:1051A8007003E9640570D07AEE7B0378D5790388BB
:1051B800828983A3E0C0E0EA24E7F582EB3400F5B6
:1051C80083D0E0F088828983A3A882A9838A828B0E
:1051D80083A3AA82AB83E864DD7003E9640370CF1C
:1051E8009003EEE004F0640170089003F6E0900389
:1051F800F0F07AF27B03024B7DC082C0839003F506
:10520800E4F09003F4F09003EEF0A3F0A374FFF041
:1052180075E1F102416DC082C08378007900900386
:10522800F5E0600478F2790388828983A3A3A3A3B5
:10523800E0F902416D74F61216CBEAFEEBFF8E829E
:105248008F83A3A3A3E0600F8E828F83A3A3A3E41D
:10525800F09003EFE014F09003EEE014F070069085
:1052680003F074FFF08E828F83A3A3E4F09005020D
:10527800E0700D9003EFE0640170057900120CED09
:10528800EE2465F582EF3400F583E0F8A3E0F9E851
:10529800496029EE2465F8EF3400F98808890988FF
:1052A80082F583E0FCA3E0FD9003F0E0FA7B0012B6
:1052B80008C7850882850983E4F0A3F0EEFAEFFBBE
:1052C800120C21024C4974F71216CBEAFEEBFF8E42
:1052D800828F83A3A3A3A3E0FA7B00120909EEFA45
:1052E800EFFB120B73120C09024B7DC082C083784E
:1052F800D5790388828983A3E4F088828983A3A867
:1053080082A983E864DD7003E9640370E69003D63C
:1053180002465A74F61216CBEAFEEBFFEC2403F8A9
:10532800ED3400F988088909EC2407F8ED3400F910
:10533800E8FCE9FD8C828D83E0F8A3E0F98508821A
:10534800850983E0FAA3E0FB1215E9EE240DF58246
:10535800EF3400F583E8F0A3E9F08C828D83E0F860
:10536800A3E0F9850882850983E0FAA3E0FB12151A
:10537800E98B09EA45096013EE240DF582EF340044
:10538800F583E02401F0A3E03400F0024C4974F600
:105398001216CBEAFEEBFFEE242EF582EF3400F571
:1053A80083E0FCA3E0FD780079FAECFAEDFB121536
:1053B800E9EE2470F582EF3400F583E8F0A3E9F014
:1053C800780079FAECFAEDFB1215E98B09EA450940
:1053D8006013EE2470F582EF3400F583E02401F0C9
:1053E800A3E03400F0024C4974F01216CBEAFEEB4D
:1053F800FF74101216BF7808121544120CAB8A0CF1
:105408008B0D8C0E8D0F90829F780C1214D0908289
:1054180053780C12151E780C1218DA8E828F83E0DE
:10542800F8A3E0F5838882A3A3121562122272748E
:105438000412168AE9600302553D8E828F83E024A8
:1054480002F8A3E03400F9E8FAE9FB8A828B837852
:10545800081214E390825378081215448A828B83C9
:105468007808121531EE240BF582EF3400F583C06D
:1054780082C0838E828F83A3A3A3A3A3E02401F811
:10548800A3E03400F9D083D082E0687003A3E06918
:105498007005790102553F8E828F83A3A3A3A3A32E
:1054A800A3A3E02401F0A3E03400F0EE2474F58215
:1054B800EF3400F583E064017036EE2475F582EF71
:1054C8003400F583E0F8A3E0F98E828F83A3A3A3C9
:1054D800A3A3A3A3E0687003A3E0697013EE247587
:1054E800F582EF3400F583E02401F0A3E03400F006
:1054F800EE2480F582EF3400F583E064017036EE27
:105508002481F582EF3400F583E0F8A3E0F98E8278
:105518008F83A3A3A3A3A3A3A3E0687003A3E06955
:105528007013EE2481F582EF3400F583E02401F056
:10553800A3E03400F079007F0802179D74F7121673
:10554800CB9003F0E0F875F004A4C8AAF02AF97427
:10555800F228FE740339FF8028EE2465F8EF340042
:10556800F988828983E0FCA3E0FD88828983E4F0DE
:10557800A3F08E828F83A3A3A3A3E0FA7B00120873
:10558800C7EE2465F582EF3400F583E0F8A3E0F96F
:10559800E849604FEE2464F582EF3400F583E0F5C6
:1055A8000878081218E2EE2463F582EF3400F583D8
:1055B800E0F9EE2465F582EF3400F583E0FCA3E022
:1055C800FDEEFAEFFB120B9D740112168AE9608951
:1055D800EE2465F582EF3400F583E0F8A3E0F9E8FE
:1055E8004970137C007D008E828F83A3A3A3A3E060
:1055F800FA7B001208C7024B7D74F21216CBEAFE42
:10560800EBFF890A740E1216BFE0FAEE2462F582E7
:10561800EF3400F583E0640160030256CD9061D059
:10562800E0F87480C398F50CEE2483F582EF34001B
:10563800F583E060047804800278008908E928F896
:10564800E43400F9E824020808E93400F9E50C9884
:10565800E499A2D265D0334068EA7005750B0280E0
:1056680003750B01E0603975090078081218DE7AB5
:10567800607B05120BD3740212168A7508607509CF
:105688000578081218DEAC0AA90BEEFAEFFB120B2C
:10569800F1740212168A7404250AF50A7C607D05E5
:1056A8007401250AF5D9850BD9E50A600D8C828D20
:1056B80083F8E0F5D9A318E870F875E195790080CA
:1056C800067907800279FF7F0602179DC082C08392
:1056D800E960208C828D83E08A828B83F08C828DB6
:1056E80083A3AC82AD838A828B83A3AA82AB8319FE
:1056F800E970E0ECFAEDFB02416D74EA1216CB900A
:105708007803E06442705E90055FE014F07056C262
:10571800AF12571C00782AD0E0F618D0E0F6E59FC3
:105728005407F9700590829B800390829378081241
:105738001544E9C4C0E07829E65508F50808E65597
:1057480009F509740B7808121652D0E02508F8906C
:105758006270E0A2E740F8E8C333906272F09062AA
:1057680070E0D2E0F09003F0E0F47003025B25E013
:10577800F875F004A4C8AAF02AF974F228FE740394
:1057880039FFEE2402F582EF3401F583E0F8A3E057
:10579800F9E849601EEE2402F582EF3401F583E052
:1057A800FAA3E0FBEE2401F582EF3401F583E0F97A
:1057B800120FC38E828F83A3A3A3A3A3A3A3E0F88E
:1057C800A3E0F98E828F83A3A3A3A3A3E8F0A3E9A0
:1057D800F0906054E09003C9F0906055E09003CADF
:1057E800F0906056E09003CBF0906057E09003CCC7
:1057F800F0906058E09003CDF0906059E09003CEAF
:10580800F090605AE09003CFF090605BE09003D096
:10581800F090605CE0FC9003D1F090605DE0FB905C
:1058280003D2F090605EE0FD9003D3F090605FE0FB
:10583800FA9003D4F09003CFE08C082508F8E434FC
:1058480000F98D08E82508F8E93400F98B08E825FF
:1058580008F8E93400F98A08E82508FAE93400FB71
:10586800EE24F7F582EF3400F583E02AF0A3E03B5D
:10587800F08C08EE24F9F582EF3400F583E0250872
:10588800F0A3E03400F0EE24FBF582EF3400F5835A
:10589800E02401F0A3E03400F0EE24FFF582EF34B9
:1058A80000F583E0F8A3E0F9E8496042906000E081
:1058B800C333FCE433FDE82CF582E93DF583E02AA7
:1058C800F0A3E03BF0906000E0FA9003D1E0FCEA3E
:1058D800C333FAE433FBE82AF8E93BF9E8244AF54C
:1058E80082E93400F583E02CF0A3E03400F0900363
:1058F800CFE070119003D2E0700BA3E07007A3E033
:105908007003025A058E828F83A3A3A3A3A3E0F892
:10591800A3E0F9EE240DF582EF3400F583E028F8D2
:10592800A3E039F9EE240BF582EF3400F583E8F0B3
:10593800A3E9F0EE240FF582EF3400F583E4F0EEEE
:10594800241CF582EF3400F583E06401701EEE2418
:1059580020F582EF3400F583E0F8A3E0F9EE241D8A
:10596800F582EF3400F583E8F0A3E9F09003CAE08C
:105978006052EE241CF582EF3400F5837401F0EEDA
:10598800246AF582EF3400F583E07038EE2474F56C
:1059980082EF3400F583E0702BEE2480F582EF343B
:1059A80000F583E0701EEE2420F582EF3400F583C5
:1059B800E0F8A3E0F9EE241DF582EF3400F583E862
:1059C800F0A3E9F0906062E07003025AB88E828F0B
:1059D80083E0F8A3E0F9E82406FCE93400FDE824B4
:1059E80002FAE93400FB120CA58E828F83E02412A0
:1059F800F8A3E03400F988828983025AC29003D15F
:105A0800E0603AEE240FF582EF3400F583E4F0EE1F
:105A1800241CF582EF3400F583E064017040EE2425
:105A280020F582EF3400F583E0F8A3E0F9EE241DB9
:105A3800F582EF3400F583E8F0A3E98020EE24FD39
:105A4800F582EF3400F583E02401F0A3E03400F0A0
:105A5800EE241DF582EF3400F583E4F0A3F0EE2484
:105A68000BF582EF3400F583E0F8A3E0F98E828F1E
:105A780083A3A3A3A3A3E0687003A3E06960030260
:105A88005974EE240FF582EF3400F583E060128E2E
:105A9800828F83A3A3A3A3A3E064057002A3E0609D
:105AA8000B7908EEFAEFFB120B798071793E80F3DF
:105AB800EE241DF582EF3400F583E4F0A3F0906046
:105AC80060E0C0E0EE2469F582EF3400F583D0E0B1
:105AD800F09003CFE0F8EE2467F582EF3400F58309
:105AE800E028025C2590055DE064017035120D59CF
:105AF800EE2467F582EF3400F583E070069060606D
:105B08007480F0EEFAEFFB120C63E96401600E1288
:105B18000B97120C5DE964016003120C097F0E02F9
:105B2800179DEE2483F582EF3400F583E060047856
