:10000000020672C2AFF508610AFFFFC2AFF50861D0
:100010001CFFFFC2AFF508612EFFFFC2AFF50861FC
:1000200040FFFFC2AFF5086152FFFFC2AFF50861A4
:1000300064FFFFC2AFF5086176FFFFC2AFF508614C
:1000400088FFFFC2AFF508619AFFFFC2AFF50861F4
:10005000ACFFFFC2AFF50861BEFFFFC2AFF508619C
:10006000D0FFFFC2AFF50861E2FFFFC2AFF5086144
:10007000F4FFFFC2AFF5088106FFFFC2AFF50881AC
:1000800018FFFFC2AFF508812AFFFFC2AFF5088154
:100090003CFFFFFF758701002274F412053F890AB7
:1000A000750C00750D08780C1206437C807D017A72
:1000B000007B001204527402120600850A0E9001A1
:1000C00086E0F50CA3E0F50D7409780C120654E5F2
:1000D0000CF50B9001867409780C120630E0C3F51C
:1000E0000CA3E0950DF50D7402780C120630AE0CE1
:1000F000AF0DE50E250BF50B7401650E7006743E11
:10010000250BF50B53B4F375BC0075BC008042742D
:100110008028F582740139F583E0F5BDE8240108F3
:10012000E93400F9C39408402C050A7408650A7084
:1001300003750A46750C00750D08780C1206437C91
:10014000807D017A007B00A90A1204527402120613
:100150000078007900E50E650A700AE849700678B3
:1001600003790080B7E50B650A70A4EE687002EFB2
:1001700069709CE5BDF9E5BCFAE9FB7F050205A5C0
:1001800074F612053F890CEAFEEBFF53BEFBE59DBA
:10019000A2E650FAE5C654804449F5C6E59E547F70
:1001A000644970F853C67FE59EA2E740FA53C680C3
:1001B000E59E547F70FA43BE049062707408F07438
:1001C00009F5D575D4801200998E828F83E0F8A34B
:1001D000E0F9EA687002EB6970428E828F83A3A314
:1001E000E8F0A3E9F08E828F8374FFF0A3F0750A24
:1001F00001750B00780A120643EEFCEFFD850C0A30
:100200007409780A120630FAAB0B1204D974021280
:100210000600C2AF75C9AB75C95B80FE7F030205DE
:10022000A574FC12061A750A04750B00780A1206EA
:1002300043740212068EAC82AD837A007B0079088B
:100240001204527402120600851A82E0F47003A3AD
:10025000E0F4602D851A82851B83E0F8A3E0F9E8BD
:1002600049601E740212068EE0687003A3E0697094
:1002700010750901024030C2AF75C9AB75C95B800A
:10028000FE780A120643740212068EAC82AD837A9F
:10029000007B0079011204527402120600851A8252
:1002A000E0F47003A3E0F46051851A82851B83E0BB
:1002B000F8A3E0F9E8496042740212068EE0F8A360
:1002C000E0F9851A82851B83E0687003A3E06970FA
:1002D00010750900020830C2AF75C9AB75C95B80E3
:1002E000FE74FF68700374FF69700F851A82851BA6
:1002F00083AA82AB83790112018043BE031200946A
:10030000C2AF75C9AB75C95B80FEE5096007E5083A
:10031000D2AF024033E508D2AF020833E5096007E7
:10032000E508D2AF02403BE508D2AF02083BE50941
:100330006007E508D2AF024043E508D2AF020843A8
:10034000E5096007E508D2AF02404BE508D2AF02ED
:10035000084BE5096007E508D2AF024053E508D233
:10036000AF020853E5096007E508D2AF02405BE53C
:1003700008D2AF02085BE5096007E508D2AF02408A
:1003800063E508D2AF020863E5096007E508D2AF6C
:1003900002406BE508D2AF02086BE5096007E5088B
:1003A000D2AF024073E508D2AF020873E5096007D7
:1003B000E508D2AF02407BE508D2AF02087BE50931
:1003C0006007E508D2AF024083E508D2AF02088398
:1003D000E5096007E508D2AF02408BE508D2AF021D
:1003E000088BE5096007E508D2AF024093E508D223
:1003F000AF020893E5096007E508D2AF02409BE52C
:1004000008D2AF02089BE5096007E508D2AF0240B9
:10041000A3E508D2AF0208A3E5096007E508D2AF5B
:100420000240ABE508D2AF0208ABE5096007E5087A
:10043000D2AF0240B3E508D2AF0208B3E5096007C6
:10044000E508D2AF0240BBE508D2AF0208BB00020C
:10045000044E74F512053F890A740F550AF50C75A0
:100460000D00740B780C120630EA2400F8EB34808F
:10047000F9E82400E9350DF9E5C7F50BA2AFE4333F
:10048000F50CC2AFE50AC4540FFAE5C754F84AF5B3
:10049000C7740B12068EE0FEA3E0FFEE4F602CEE59
:1004A000FAEFFB88828983E08C828D83F0888289D1
:1004B00083A3A882A9838C828D83A3AC82AD83EAB7
:1004C00024FF1AEB34FFFBEA4B70D8850BC7E50C11
:1004D000A2E092AF7F040205A574F712053FED90EC
:1004E0000980F0ECA3F0A37462F0A37473F0A3E0AE
:1004F000541FF0740912068EE0F50AA3E0F50BE52F
:100500000A333354FC900985F07406780A120654B5
:10051000E50A900984F09009867412F0A37442F001
:1005200053D1FE75D601EA906271F0EBA3F09062B0
:1005300070E0D2E1F0E0A2E740FB7F020205A525D2
:100540001AC582C0E0E51B34FFC583C0E0E51AC3CD
:10055000958224F910AF0885831B85821A8008854F
:10056000831B85821AD2AFCEF0A3E520F0A3780AD0
:10057000E608F0A3DEFAEFF0A3E58124FBF8E60835
:10058000F0A3E608F0A30808E608F0A3E608F0A345
:1005900015811581D0E0FED0E0F815811581E8C005
:1005A000E0EEC0E022851B83851A82E0A3FEE0A373
:1005B000F520780AE0A3F608DFFAE0A3FFE0A3C085
:1005C000E0E0A3C0E0E0A3C0E0E0A3C0E010AF081B
:1005D00085821A85831B800885821A85831BD2AF8A
:1005E000D083D08222251AF58210AF08F51A400276
:1005F000151B8008F51A4002151BD2AF851B8322FC
:10060000C0D0251A10AF08F51A5002051B8008F556
:100610001A5002051BD2AFD0D022251A10AF08F510
:100620001A4002151B8008F51A4002151BD2AF2292
:10063000700422600D18C6C333C608C633C6D5E0A1
:10064000F4182274028000C0E0F4041205E5D0E042
:1006500012068122600C08C6C313C618C613C6D57D
:10066000E0F42212069DB9000302066C1202211268
:10067000069875D00075813F751A80751B010206BA
:1006800063CAC0E0E6F0A308DAFAD0E0FA22251A3D
:10069000F582E4351BF5832200000080FB790122FE
:1006A000FFFFFFFFFFFFFFFFFFFFFFFFFFFFFFFF5A
:1006B000FFFFFFFFFFFFFFFFFFFFFFFFFFFFFFFF4A
:1006C000FFFFFFFFFFFFFFFFFFFFFFFFFFFFFFFF3A
:1006D000FFFFFFFFFFFFFFFFFFFFFFFFFFFFFFFF2A
:1006E000FFFFFFFFFFFFFFFFFFFFFFFFFFFFFFFF1A
:1006F000FFFFFFFFFFFFFFFFFFFFFFFFFFFFFFFF0A
:10070000FFFFFFFFFFFFFFFFFFFFFFFFFFFFFFFFF9
:10071000FFFFFFFFFFFFFFFFFFFFFFFFFFFFFFFFE9
:10072000FFFFFFFFFFFFFFFFFFFFFFFFFFFFFFFFD9
:10073000FFFFFFFFFFFFFFFFFFFFFFFFFFFFFFFFC9
:10074000FFFFFFFFFFFFFFFFFFFFFFFFFFFFFFFFB9
:10075000FFFFFFFFFFFFFFFFFFFFFFFFFFFFFFFFA9
:10076000FFFFFFFFFFFFFFFFFFFFFFFFFFFFFFFF99
:10077000FFFFFFFFFFFFFFFFFFFFFFFFFFFFFFFF89
:10078000FFFFFFFFFFFFFFFFFFFFFFFFFFFFFFFF79
:10079000FFFFFFFFFFFFFFFFFFFFFFFFFFFFFFFF69
:1007A000FFFFFFFFFFFFFFFFFFFFFFFFFFFFFFFF59
:1007B000FFFFFFFFFFFFFFFFFFFFFFFFFFFFFFFF49
:1007C000FFFFFFFFFFFFFFFFFFFFFFFFFFFFFFFF39
:1007D000FFFFFFFFFFFFFFFFFFFFFFFFFFFFFFFF29
:1007E000FFFFFFFFFFFFFFFFFFFFFFFFFFFFFFFF19
:1007F000FFFFFFFFFFFFFFFFFFFFFFFFFFFFFFFF09
:10080000CE76CE760000007C41414141FFFFFFFFE4
:10081000FFFFFFFFFFFFFFFFFFFFFFFFFFFFFFFFE8
:10082000000102030405060708090A0BFFFFFFFF8A
:10083000020C6E02173BFFFFFFFFFFFFFFFFFFFFF2
:10084000FFFFFFFFFFFFFFFFFFFFFFFFFFFFFFFFB8
:10085000FFFFFFFFFFFFFFFFFFFFFF021E7EFFFF07
:10086000FFFFFF021E60FFFFFFFFFFFFFFFFFFFF15
:10087000FFFFFFFFFFFFFFFFFFFFFFFFFFFFFFFF88
:10088000FFFFFF0217AEFFFFFFFFFFFFFFFFFFFFAE
:10089000FFFFFFFFFFFFFFFFFFFFFF021E37FFFF0E
:1008A000FFFFFFFFFFFFFFFFFFFFFFFFFFFFFFFF58
:1008B000FFFFFF0215EF01FF0000B4000028002831
:1008C00000283075A000A000A000A00000080008CB
:1008D000E001F000100010001000100010001000E7
:1008E00050005000500010001000D0070000000021
:1008F00000000F00307507001000010081FF0000AC
:10090000FFA020BE20A620FF02020A0A025000A07B
:10091000000000E8030243830100003283023F83AA
:100920000100009009024B83010000B102023F83E5
:100930000100009109023983010000C702023F83D0
:100940000100009209023583030000C902023F83BF
:100950000100009309023783030000CA02023F83AB
:100960000100009409023B830100009509FF01008A
:10097000FF200243830100003D82023F830100000B
:10098000F9090249830000000000026F83030000A0
:1009900017037C267C267C267C267C267C267C26CF
:1009A0007C267C267C267C267C267C260A292229FD
:1009B0000429FFFF020202020202020202010D00EC
:1009C000000010010243830100002983023F8301DC
:1009D00000003C0A025D830100007707023F8301AB
:1009E00000003D0A025B83010000DF81023F8301BA
:1009F00000003E0A025983010000B781023F8301D3
:100A000000003F0A0257830100000081023F83017A
:100A10000000400A0255830100001281023F830159
:100A20000000410A025383010000EE80023F83016F
:100A30000000420A0251830100002481023F830129
:100A40000000430A024F83010000A981023F830195
:100A50000000440A024D83010000450A01E8030535
:100A60003F101C0243830100002F83023F830100DB
:100A700000EA0A1030800200005F08026F83030062
:100A8000006108023D83010000C581023F8301002F
:100A900000EA0A1040800200006008026F83030031
:100AA000006708023D830100001982FFFFFF00017B
:100AB0003075030201060000000000000000000085
:100AC0000000000000000000000000000000000026
:100AD0000000FFFF0600800CE803B42D0000BA2DD3
:100AE0000AE2C56DB5DFFB48D2B060D0F5A710961D
:100AF000E04368617261637465726973746963204D
:100B000031000A000100024368617261637465721A
:100B100069737469632032000AB743686172616364
:100B20007465726973746963203300084368617285
:100B30006163746572697374696320340002436889
:100B40006172616374657269737469632035000250
:100B500043830100002C83023F83010000680B02E5
:100B60006B83090000690B023D83010000790B02D1
:100B70003F830100008A0B0269830900008B0B028E
:100B80003D830100008F0B023F83010000A00B0298
:100B90006783090000A10B023D83010000A20B0244
:100BA0003F83010000B30B02638308000033090296
:100BB0003D83010000B40B023F83010000C50B021E
:100BC00061830400003A09023D83010000C60B0066
:100BD00000000000000000E5C754F84405F5C7799F
:100BE000012200000080FB120BD7B90003020C5851
:100BF000E479217808B800028004F709D8FCE47988
:100C0000297802B800028004F709D8FCE490028039
:100C100078C079078002F0A3D8FCD9FA781C900834
:100C2000B67A01BA00028007E493A3F608DAF990D5
:100C3000093FAA82AB839008B7782179048015E434
:100C400093A3AC82AD838A828B83F0A3AA82AB8309
:100C50008C828D83D8E9D9E77582397583A97407A9
:100C6000120C807582E275830B7400120C8075D0B3
:100C70000075813F751A80751B02759F00020BE796
:100C8000C09FF59FE473D09F22D083D082C09FE4A1
:100C900093C0E0740193C0E0740293F59F22E06674
:100CA000701008A3E066700A08A3E066700408A349
:100CB000E06622C3E7960809E7960809E79608095F
:100CC000E79622C3E09608A3E09608A3E09608A35F
:100CD000E09622C00AC3E096F50A08A3E096420A0D
:100CE00008A3E096420A08A3E096450A7001D3D013
:100CF0000A22080808EAC0E0EBC0E086F0E7A4FAA0
:100D0000180986F0E7A42AFA180986F0E7A42AFA57
:100D1000180986F0E7A42AFA1986F0E7A4FBE5F0A3
:100D20002AFA190886F0E7A42BFBE5F03AFA19082D
:100D300086F0E7A42BFBE5F03AFA18180986F0E7ED
:100D4000A4C5F02BFBE43AFA1908E7C5F0C6A426BF
:100D5000F6E5F03BFBE43AFA1886F0E7A4F6E5F096
:100D60000826F6E43B08F6E43A08F6D0E0FBD0E0CB
:100D7000FA22E4CFC0E0E4CEC0E0E4CDC0E0E4CCB1
:100D8000C0E075F020C3E633F608E633F608E63334
:100D9000F608E633F6181818EC33FCED33FDEE33A5
:100DA000FEEF33FFC3EC9709ED9709EE9709EF9734
:100DB000191919400FFFEC97FC09ED97FD09EE9703
:100DC000FE191906D5F0BEECF709EDF709EEF709A3
:100DD000EFF7191919D0E0FCD0E0FDD0E0FED0E02B
:100DE000FF226016080808C6C313C618C613C61823
:100DF000C613C618C613C6D5E0EA2270090808084B
:100E0000226016181818C6C333C608C633C608C6EB
:100E100033C608C633C6D5E0EA22E627F60809E657
:100E200037F60809E637F60809E637F622E026F62F
:100E300008A3E036F608A3E036F608A3E036F6226B
:100E4000E026F008A3E036F008A3E036F008A3E0BF
:100E500036F022C3E697F60809E697F60809E69702
:100E6000F60809E697F622C3E096F008A3E096F0AC
:100E700008A3E096F008A3E096F022E056F608A357
:100E8000E056F608A3E056F608A3E056F622E05630
:100E9000F008A3E056F008A3E056F008A3E056F0EF
:100EA00022E0F608A3E0F608A3E0F608A3E0F622A5
:100EB000E6F008A3E6F008A3E6F008A3E6F022E0D7
:100EC000FAA3E0FBA3E0FCA3E0FD22EAF0A3EBF031
:100ED000A3ECF0A3EDF022CAC0E0E6F0A308DAFA32
:100EE000D0E0FA22CAC0E0E0A3C582CCC582C583A7
:100EF000CDC583F0A3C582CCC582C583CDC583DAB9
:100F0000E6D0E0CA22C3E498F8E499F9120F4680CB
:100F100026C3E49AFAE49BFBE920E7E9120F46E4D2
:100F200098F8E499F922C3E498F8E499F9120F4685
:100F3000E498F8E499F9C3E49AFAE49BFB22EB20E5
:100F4000E7CFE920E7E0B90010BB0008E88AF084A9
:100F5000F8AAF022E4FBC8FA22EB70227B10C83317
:100F6000C8C933C9335007C39AC3DBF280069A500D
:100F7000012ADBEAC833F4C8C933F4C9FA2275F090
:100F800008E4C833C8C933C933C99AC99B5004C9D6
:100F90002AC93BD5F0ECFBC833F4C8E4C9FA226097
:100FA0000D08C6A2E713C618C613C6D5E0F3226023
:100FB0000C08C6C313C618C613C6D5E0F4227004C5
:100FC00022600D18C6C333C608C633C6D5E0F41870
:100FD00022251A10AF08F51A4002151B8008F51AD1
:100FE0004002151BD2AF22C0D0251A10AF08F51A47
:100FF0005002051B8008F51A5002051BD2AFD0D055
:1010000022251AF58210AF08F51A4002151B800838
:10101000F51A4002151BD2AF851B8322251AF582D3
:10102000E4351BF58322E473251AC582C0E0E51B75
:1010300034FFC583C0E0E51AC3958224F810AF08D9
:1010400085831B85821A800885831B85821AD2AF0F
:10105000CEF0A3E520F0A3780AE608F0A3DEFAEFCD
:10106000F0A3E58124FAF8E608F0A3E608F0A3E689
:1010700008F0A30808E608F0A3E608F0A315811518
:1010800081D0E0FED0E0F8158115811581E8C0E03F
:10109000EEC0E022251AC582C0E0E51B34FFC583FF
:1010A000C0E0E51AC3958224F910AF0885831B853B
:1010B000821A800885831B85821AD2AFCEF0A3E501
:1010C00020F0A3780AE608F0A3DEFAEFF0A3E581AA
:1010D00024FBF8E608F0A3E608F0A30808E608F009
:1010E000A3E608F0A315811581D0E0FED0E0F81545
:1010F000811581E8C0E0EEC0E022851B83851A825D
:10110000E0A3FEE0A3F520780AE0A3F608DFFAE00A
:10111000A3FFE0A3C0E0E0A3C0E0E0A3C0E0E0A341
:10112000C0E0E0A3C0E010AF0885821A85831B8071
:101130000885821A85831BD2AFD083D082020C86A9
:10114000851B83851A82E0A3FEE0A3F520780AE0E0
:10115000A3F608DFFAE0A3FFE0A3C0E0E0A3C0E04D
:10116000E0A3C0E0E0A3C0E010AF0885821A858349
:101170001B800885821A85831BD2AFD083D0822240
:10118000C0D0251AC582C0E0E51B34FFC583C0E08E
:10119000E51AC3958224F310AF0885831B85821A54
:1011A000800885831B85821AD2AFC8F0A3E9F0A31B
:1011B000EAF0A3EBF0A3790AE709F0A3D8FAECF080
:1011C000A3EDF0A3EEF0A3EFF0A3D0E0F0A3D0E006
:1011D000F0A3D0E0F0A3E520F0A3E5F0F0A3228592
:1011E0001B83851A82E0C0E0A3E0F9A3E0FAA3E044
:1011F000FBA3780AE0F608A3DFFAE0FCA3E0FDA376
:10120000E0FEA3E0FFA3E0C0E0A3E0C0E0A3E0F5C0
:10121000D0A3E0F520A3E0A3F5F010AF0885831B71
:1012200085821A800885831B85821AD2AFD082D02E
:1012300083D0E0F8D0E03274048006740280027437
:1012400001C0E0F404121001D0E0120ED7227404A1
:10125000800474028000CCC0E0EDC0E0E51AC39CBD
:10126000CCAD1B50011D10AF068C1A8D1B80068C57
:101270001A8D1BD2AF120EE4D0E0FDD0E0FC22D0DC
:1012800083D082E9C0E0E493A3C386F0C5F095F073
:10129000F908E493A386F0C5F095F0700BE493A3EE
:1012A000C3994005E9048002A3E475F002A42582F5
:1012B000F582E5F03583F583D0E0F9E493A3C0E04F
:1012C000E493C0E022D083D082ECC0E0EDC0E0E443
:1012D00093A3FCE493A3FDED4C600D121311EC24D9
:1012E000FFFCED34FFFD80EFE493A3FCE493A3FD4A
:1012F000ED4C600D121350EC24FFFCED34FFFD802B
:10130000EFD0E0FDD0E0FCE493A3C0E0E493C0E0C4
:1013100022C0E0C3E49396087401939618400FE44A
:101320009366700808740193661870007019A3A37F
:10133000C3E49396087401939618A3A3400DD0E0DC
:10134000D0E0D0E0021301A3A3A3A3A3A3D0E02283
:10135000C0E0C0F088F0E4936670080874019366FA
:10136000187000A8F0A3A3700BD0F0D0E0D0E0D0AC
:10137000E0021301A3A3D0F0D0E022FF74F5121015
:1013800094EAFEEBFFEE2434F8EF3400F9880A8982
:101390000BEE2435F582EF3400F583E0F8EE2437C8
:1013A000F582EF3400F583E0F50CEC850CF0A4FC3D
:1013B000AAF0850CF0EDA42AFDE82CF8E43DF97ABA
:1013C000257B00120F46EA850A82850B83F05407BD
:1013D000F87401B800028004C333D8FCC0E0E01305
:1013E0001313541FF8EE28F8EF3400F9E8245DF5E4
:1013F00082E93400F583D0E0F8E0586008EE243448
:10140000F582EF801EEE2436F582EF3400F583E09E
:10141000F5F0EA84A8F0EE28F8EF3400F9E8243873
:10142000F582E93400F583E0F97F0402114074F598
:10143000121094EAFEEBFFEE2434F582EF3400F54F
:1014400083E0C0E0EE2435F582EF3400F583D0E090
:10145000F08E828F83A3A3A3A3A3A3A3C082C08380
:101460008E828F83A3A3A3A3A3E0F8A3E0F9D08384
:10147000D082E0C398F50AA3E099F50BEE2480F53D
:1014800082EF3400F583E064017069EE2481F58217
:10149000EF3400F583E0F8A3E0F98E828F83A3A3F5
:1014A000A3A3A3A3A3E0FCA3E0FD8E828F83A3A349
:1014B000A3A3A3E0FAA3E0FBC3EA9CEB9D5027C3E0
:1014C000EC98ED99402EC3EA98EB9950277CFC7D6F
:1014D00004EEFAEFFB1225DAEE2480F582EF3400F9
:1014E000F583E4F0800EC3EA98EB9940E0C3EC98F2
:1014F000ED9950D9EE2434F8EF3400F9E8FCE9FD19
:10150000EE2435F582EF3400F583E0F8EE2437F56C
:1015100082EF3400F583E0F50CE50A850CF0A4F5C4
:101520000AAAF0850CF0E50BA42AF50BE8250AF8C9
:10153000E4350BF97A257B00120F46EA8C828D8305
:10154000F05407F87401B800028004C333D8FCC01B
:10155000E0E0131313541FF8EE28F8EF3400F9E815
:10156000245DF582E93400F583D0E0F8E0586008A6
:10157000EE2434F582EF801EEE2436F582EF34003F
:10158000F583E0F5F0EA84A8F0EE28F8EF3400F9EE
:10159000E82438F582E93400F583E0F9121E2902C7
:1015A0001429C082C083851A82851B83E0F8A3E0DA
:1015B000F9C3EA9CEB9D5012C3EC98ED994019C316
:1015C000EA98EB99501279018010C3EA98EB9940A0
:1015D000F5C3EC98ED9950EE7900D083D08222EAE1
:1015E000C39CFAEB9DFB22FF8521878522C622C082
:1015F000E0C0D0E8C0E0E9C0E0EAC0E0EBC0E0EC69
:10160000C0E0EDC0E0C00AC00BC00CC00DC082C07D
:1016100083C0F0759B00906182E0A2E64003021651
:10162000CDE591A2E640030216CD7591BF9003C1AE
:10163000E06405700812271212271E800312271873
:10164000752100122778E99003C2F0790012276C07
:101650001225567A017B009003C0E0F9122A4290CD
:101660007803E06442600302171690055EE014F010
:101670006003021716C2AF12167A00782AD0E0F67D
:1016800018D0E0F6E59F5407F970059082F98003C1
:10169000908301780A120EA1E9C4C0E07829E655CA
:1016A0000AF50A08E6550BF50B740B780A120FAF12
:1016B000D0E0250AF8906270E0A2E740F8E8C33372
:1016C000906272F0906270E0D2E0F08049E0A2E5B2
:1016D0005024E591A2E5501E7591DF9003C1E064AE
:1016E0000D70139003E3E004F064287002E4F07AD4
:1016F00000E0F91227EA906181E0A2E35009E5E9F0
:10170000A2E3500375E9F7A3E0A2E75009E591A22F
:10171000E7500375917FD0F0D083D082D00DD00CEC
:10172000D00BD00AD0E0FDD0E0FCD0E0FBD0E0FA56
:10173000D0E0F9D0E0F8D0D0D0E032C0E0C0D0C0E6
:1017400082C083906183E0A2E05009E5BFA2E0502F
:101750000375BFFEE0A2E15009E5BFA2E1500375A9
:10176000BFFDE0A2E25009E5BFA2E2500375BFFB56
:10177000E0A2E35009E5BFA2E3500375BFF7E0A282
:10178000E45009E5BFA2E4500375BFEFE0A2E550C5
:1017900009E5BFA2E5500375BFDFE0A2E65009E509
:1017A000BFA2E6500375BFBFD083D0828088C0E05F
:1017B000C0D0E8C0E0E9C0E0EAC0E0EBC0E0ECC0C7
:1017C000E0EDC0E0C0F0E5A7A2E6500FE5A1A2E67B
:1017D000500953A7BF75A1BF121813E5A7A2E55082
:1017E0000CE5A1A2E5500653A7DF75A1DFE5A7A28E
:1017F000E15009E5A1A2E1500375A1FDE5A7A2E230
:10180000500CE5A1A2E2500653A7FB75A1FBD0F056
:1018100002172474F81210947521019003C1E0643A
:101820000670151226A68A828B83A3A3A3A3A3A363
:10183000E0FAA3E0FB122700A2AFE433FED2AF90A0
:1018400003C7E0640170187A207B009003C0E0F9C0
:10185000122ACC7A207B009003C0E0F9122A48902B
:101860006182E0D2E6F090055DE0602185C62280CD
:10187000169003C6E064017008E5C654F84405F507
:10188000C653BEFC1215E87401652160E4EEA2E0C7
:1018900092AF7F01021140FF8E238F24858228851D
:1018A0008327851A82851B83E0CEA3E0CF8528821B
:1018B000852783EBC9EAC8EDCBECCA75F010C3E805
:1018C00033C8E933C9EA33CAEB33CBC3EA9EF52602
:1018D000EB9FF525B35004AB25AA26EC33CCED33B2
:1018E000CDD5F0DAAE23AF242274EB12109474FA43
:1018F000120FD18A0A8B0B8C168D179003C1E0242E
:10190000F7C3940550069082A9021A4B1226A68AA4
:101910000C8B0DAE0CAF0DEE4F7003021A48AC0AE3
:10192000AD0B851A82851B83AA82AB831227308E6A
:10193000828F83A3A3780A120EA19082C5780A121F
:101940000E7B851A82851B83780E120EA19082C5AC
:10195000780E120E7B780A790E120CB3501F780A9B
:10196000790E120E539082A1780A120CD34047854B
:101970000A12850B13850C14850D158041850E12F6
:10198000850F138510148511157812790A120E53DC
:101990009082A17812120CD3501C7512007513009E
:1019A0007514007515017812790E120E537812799C
:1019B0000A120E1A80089082A97812120EA17409D8
:1019C0007812120DFB908319780A120EA178127901
:1019D0000A120D728E828F83A3A3A3A3A3A3E0F8A0
:1019E000A3E0F97AD07B03120F46880A890BE4F54D
:1019F0000CF50D7812790A120E1A740412101CE0FC
:101A0000F8A3E0F97AD07B03120F46E8FA8A0AE4D9
:101A1000F50B7812790A120CB350077812790A1272
:101A20000E539003C1E06408600AE064066005E0BC
:101A30006405701C90829D7812120CD35012908213
:101A4000997812120E2D80089082AD7812120EA194
:101A50008516828517837812120EB07406120FE76E
:101A60007F0E02114074F712109412274290055B0A
:101A7000E064017010906245E4F0A3F053F4F34386
:101A8000FE0C5390F31226EEE5C654804449F5C689
:101A9000E59E547F644970F8906185740FF090055D
:101AA00059E0F47002A3E0604E90055AE06008141B
:101AB000601B14602E8040750A01750B009005595B
:101AC000E0780A120FBEE50AF45280802A750A01F6
:101AD000750B00900559E0780A120FBEE50AF45222
:101AE000908014750A01750B00900559E0780A1270
:101AF0000FBEE50AF452A079007F0202114074F78C
:101B0000121094E9FEEAFF74016E700C7A807B007B
:101B10009003C0E0F9122A42902E0CE493F460087E
:101B2000E493F912254A800953C680E59E547F70DC
:101B3000FA1226F490055BE06401700312256290AE
:101B40000559E0F47002A3E0604B90055AE060088C
:101B500014601A14602C803D750A01750B00900505
:101B600059E0780A120FBEE50A42808028750A0102
:101B7000750B00900559E0780A120FBEE50A4290F5
:101B80008013750A01750B00900559E0780A120F51
:101B9000BEE50A42A01227421226A68A0A8B0BA88B
:101BA0000AA90BE8496015E5E170FCE82414F58208
:101BB000E93400F583E0F46003E0F5E174016F704F
:101BC0000A7A019003C0E0F9122A96021AF974F118
:101BD0001210948A0A8B0B8C0C8D0D740F12101C32
:101BE000780E120EA19082C5780A120E7B9082C5E3
:101BF000780E120E7B780A790E120CB35015780A03
:101C0000790E120E539082A1780A120CD3401579E6
:101C1000018013780E790A120E539082A1780E1269
:101C20000CD340EB79007F0802114074ED12109440
:101C30008A0A8B0B8C0C8D0D741312101C780E12EB
:101C40000EA19082C5780A120E7B9082C5780E1282
:101C50000E7B780E790A120CB34011780A790E12B5
:101C60000E53AA0AAB0BAC0CAD0D80227512007599
:101C700013007514007515017812790E120E537841
:101C800012790A120E1AAA12AB13AC14AD157F0CFE
:101C90000211409082C5780A120EA18A828B837845
:101CA0000A120E8E7F0402114074F51210948C8279
:101CB0008D83780A120EA18A828B83780A120E67AE
:101CC000EA2404F8EB3400F98C828D83A3A3A3A348
:101CD000E0FCA3E0FD88828983C3E09CF0A3E09D43
:101CE000F088828983C3E09420A3E0944E40229040
:101CF00082ED780A120EA18A828B83780A120E4036
:101D00008A828B83A3A3A3A3E02420F0A3E0344E14
:101D1000F0808074F5121094E9FE900513E0FAA3A8
:101D2000E0FBEEC333F8E433F9745928F58274818B
:101D300039F583E02AF50AA3E03BF50B780A121285
:101D40003B9082DD120EBF1218987402120FE78AC0
:101D50000A8B0B8C0C8D0D7410780A120DE2AA0AF6
:101D6000AB0B7F0402114074F11210948A0E8B0F9A
:101D70008C108D11740F12101CE0FAA3E0FB74118B
:101D800012101CE0F50AA3E0F50B741312101CE00E
:101D9000FEA3E0FF780A12123BEA2401F50AEB34B5
:101DA00000F50BE4F50CF50D780E790A120CF290A3
:101DB0008291780A120EA1780E790A120CF2AA0EFC
:101DC000AB0FAC10AD111218987402120FE78B0B09
:101DD000EA450B60047A0180027A00EC2AFCED34BB
:101DE00000FDECF8EDF97A717B02120F46880A8942
:101DF0000BE4F50CF50D8E828F83780A120EB0EC91
:101E0000F8EDF97A717B02120F468A0A8B0B740582
:101E1000780A120FBE8E828F83A3A3A3A3E50AF0D4
:101E2000A3E50BF07F08021140C082C083E99060F7
:101E300000F0D083D08222C0E074F2121180A2AFF1
:101E4000E433FED2AFE589A2E15003122C2E75894E
:101E500000C2C5751C00EEA2E092AF7F010211DF47
:101E6000C0E074F2121180A2AFE433FED2AFE58B72
:101E7000A2E05003122C2E758B00C2E880D5C0E082
:101E8000C0D0E8C0E0E9C0E0E5A8D2AFC2C7751C89
:101E900000A2E7A2E792AFD0E0F9D0E0F8D0D0D02E
:101EA000E032120C89B09C07120C89C79C07120CF7
:101EB00089F69C07120C892F9D07120C89579D07E4
:101EC000120C89859D07120C899C9D07120C89B301
:101ED0009D07120C89C99D07120C89F09D07120CF1
:101EE00089039E07120C89199E07120C892C9E07E4
:101EF000120C89519E07120C8911A406120C89102C
:101F0000A506120C8945A506120C8966A506120CB9
:101F10008976A506120C8997A506120C89A3A60638
:101F2000120C8970A706120C89E3A706120C8969A6
:101F3000A806120C89ACA806120C89E3A806120C9C
:101F40008969A906120C893BAA06120C8999AA066E
:101F5000120C89B1AA06120C892BAB06120C892E21
:101F6000AB06120C8931AB06120C89D8AB06120CE9
:101F700089F0AB06120C8920AC06120C8940AC0625
:101F8000120C892EAD06120C89E4AD06120C8917CD
:101F9000EE06120C893FEE06120C896DEE06120C4D
:101FA00089A4EE06120C890CEF06120C8955EF0677
:101FB000120C89A0EF06120C89DEEF06120C891BA9
:101FC000F006120C8949F006120C89F0F006120C8A
:101FD00089FAF006120C8907F106120C893AF1060B
:101FE000120C89FCF106120C8908F206120C8920E9
:101FF000F206120C892AF206120C89FDA607120CB1
:10200000890BA707120C8923A707120C893BA70786
:10201000120C893CAB05120C89DAAB05120C895203
:10202000AC05120C8967AD05120C89A1AD05120C27
:10203000894AAE05120C891FAF05120C8983B005C1
:10204000120C89DAB005120C8961B105120C8948AD
:10205000B205120C8995B205120C8923B305120C36
:102060008947B305120C891CB505120C895DB505AD
:10207000120C897FB505120C8900B605120C89EA8D
:10208000B605120C89B0B705120C897ACE06120C6F
:10209000894CCF06120C89F5CF06120C8938D00670
:1020A000120C89C5D006120C8951D106120C893246
:1020B000D206120C8961D206120C895DD306120C6D
:1020C00089A5D306120C89A7D406120C89EBD40675
:1020D000120C8911D506120C89D4A707120C89ECB1
:1020E0008307120C89028407120C89288407120CBA
:1020F00089508507120C895A8507120C89B3860707
:10210000120C89B38707120C8924E906120C893155
:10211000EA06120C8965EA06120C89A7EA06120C77
:102120008961EC06120C89102E00120C89732E00A6
:10213000120C89B82F00120C89C82F00120C89EBE1
:102140002F00120C89363000120C89DB3000120C83
:1021500089D13100120C899B3200120C8913340092
:10216000120C89553400120C89F33400120C89408A
:102170003500120C89663500120C89543700120C98
:1021800089593700120C893A3900120C898E3900AE
:10219000120C89F03900120C89183A00120C89BC13
:1021A0003A00120C897E3B00120C89AF3B00120CE6
:1021B00089B23B00120C89FA3B00120C893C3C00AE
:1021C000120C89A33C00120C896D3D00120C898011
:1021D0003D00120C89993D00120C89E43D00120C5F
:1021E00089BF3E00120C894E3F00120C89993F00B6
:1021F000120C8900B004120C890CB004120C894531
:10220000B004120C898AB004120C8941B104120C7A
:1022100089C7B104120C892CB204120C8958B2047B
:10222000120C8991B204120C89A5B404120C898194
:10223000B604120C896CB804120C89A3B904120CF0
:102240008903BC04120C89EFBC04120C8935BE044E
:10225000120C8942BF04120C895FBF04120C8997CB
:10226000BF04120C89B1BF04120C8919C004120CEE
:1022700089B3C404120C8954C504120C89A5C50481
:10228000120C89CCC504120C891AC604120C8938A8
:10229000C604120C898CC604120C8965C704120C82
:1022A00089ECC804120C8974C904120C89FCE2067A
:1022B000120C8906E306120C89D1E306120C89156B
:1022C000E406120C893BE406120C8987E406120C22
:1022D00089BFE406120C89E8E406120C8925E6069B
:1022E000120C8952E606120C897FE606120C89CA86
:1022F000E606120C89E5E606120C8930E706120C98
:10230000896AE706120C89A4E706120C89F9E70628
:10231000120C8964E806120C89ADE806120C89D704
:10232000E806120C89FCE806120C89008007120CE2
:1023300089CA8007120C89AD8107120C8923820794
:10234000120C89658207120C89928307120C89008E
:102350008006120C89298006120C89428006120C14
:1023600089878106120C89658206120C898482068F
:10237000120C89118306120C89548306120C89A150
:102380008406120C89408506120C89BF8706120C40
:1023900089568806120C892A8906120C890C8A062D
:1023A000120C89788B06120C890B8C06120C891082
:1023B000A307120C8979A307120C89CDA307120C6D
:1023C00089F4A307120C894CF706120C89B9F70699
:1023D000120C8904F806120C89F9F806120C89F51A
:1023E000F906120C89DFFA06120C894FAE06120CA0
:1023F0008991AE06120C896BAF06120C8944B006A7
:10240000120C893FB106120C891EB206120C898A81
:10241000B206120C8951B306120C89BCB306120C19
:102420008923B406120C894EB406120C89BFB40677
:10243000120C8952B506120C89BBB506120C89D054
:10244000B506120C8918B606120C8931B606120CA4
:102450008996B606120C8999B606120C89AB8E07BE
:10246000120C89D38E07120C89118F07120C89CF99
:102470008F07120C893A9007120C89569007120C9C
:10248000897E9007120C89AE9007120C89BD9007C7
:10249000120C89379107120C895D9107120C896320
:1024A000C805120C8940CA05120C893BCC05120CD8
:1024B000890ECD05120C8959CD05120C89A4CD05C4
:1024C000120C89C2CD05120C8904CE05120C891F8D
:1024D000CE05120C896BCE05120C89A5CE05120C07
:1024E00089C8CE05120C8915CF05120C8988CF0535
:1024F000120C899AD105120C8944D305120C8994C7
:10250000D305120C89F9D405120C894FD505120C8C
:1025100089BDD505120C8908D605120C8932D6055D
:10252000120C89828C06120C89AD8C06120C8994CF
:102530009306120C89B89506120C89739706120C33
:1025400089D09806120C89DBC904120C8972CA045E
:10255000120C899FCA04120C89E5CA04120C892442
:10256000CC04120C89BBCD04120C8910CE04120CC1
:102570008985CE04120C89B4CF04120C890FD104C2
:10258000120C8911D204120C896ED304120C8987A3
:10259000D304120C89E4D304120C89C6D404120C9F
:1025A00089F9D404120C8969D504120C89E3D50485
:1025B000120C8932D604120C89FED604120C89033F
:1025C000D804120C89E2D804120C896DD904120CBB
:1025D00089DBD904120C894FDA04120C8978DA04E9
:1025E000120C8937DB04120C89B1DC04120C89CE81
:1025F000DC04120C89EDDC04120C897EDD04120C63
:1026000089A3DD04120C89CBDD04120C8946DE049B
:10261000120C89A0DE04120C89F4DF04120C89B1BB
:10262000E004120C8984E104120C895DD605120CB9
:1026300089ADD605120C89B9D605120C8996D70535
:10264000120C89C6D705120C89FED705120C897D9C
:10265000D805120C89B5D805120C8907D905120CBA
:102660008944D905120C8969DB05120C8995DD05B1
:10267000120C8990DF05120C896BE105120C89EFB1
:102680003F00120C898B9705120C89D59705120C07
:1026900089B49D05120C89359F05120C8994A505F6
:1026A000120C898FA605120C89CCA605120C89EF95
:1026B000A605120C8931A705120C893AA705120C40
:1026C0008944A705120C8930A805120C8924A90594
:1026D000120C89B2E104120C892AEC04120C893024
:1026E000EC04120C893CF304120C89BD8707120C10
:1026F00089538807120C89698807120C89E38807B7
:10270000120C89398907120C89778907120C89D430
:102710008907120C89518A07120C895A8A07120CF0
:1027200089668A07120C89798A07120C89B58A078B
:10273000120C89CB8A07120C892A8B07120C89A1EB
:10274000FB06120C89AEFB06120C89C8FB06120CA4
:102750008907FC06120C8945FC06120C89AAFC06A6
:10276000120C89BFFC06120C89CAFC06120C89D710
:10277000FC06120C89EEFC06120C89FCFC06120CFD
:102780008907FD06120C8913FD06120C8922FD062D
:10279000120C892DFD06120C8950FD06120C89F9C8
:1027A000FD06120C8909FE06120C8923FE06120C86
:1027B0008940FE06120C895CFE06120C8981FE0619
:1027C000120C898BFE06120C899FFE06120C89BE24
:1027D000FE06120C891FFF06120C8925FF06120C3B
:1027E000892BFF06120C8931FF06120C893DFF066A
:1027F000120C8970FF06120C8931E405120C89B3A2
:10280000E405120C895CE505120C89A4E605120C9E
:1028100089B2E805120C8998E905120C89CDE90501
:10282000120C89EFE905120C8998EA05120C8968E7
:10283000EC05120C8991EC05120C8909ED05120CBE
:10284000893BED05120C8948ED05120C8993ED05C5
:10285000120C89B7ED05120C8908F005120C8912CB
:10286000F105120C896EF105120C89E5B905120CFF
:1028700089F6BA05120C89DABB05120C89E4BB058E
:10288000120C8906BC05120C8912BC05120C89B603
:10289000BD05120C89E3BD05120C89F9BE05120CA9
:1028A000894EBF05120C899DC005120C8972C105A5
:1028B000120C89CEC105120C8939C205120C896E21
:1028C000C205120C89B1C205120C897BC505120C18
:1028D0008993C505120C8924C605120C8932C605D8
:1028E000120C897FC605120C898DC605120C89F958
:1028F000C605120C8974C705120C89CBC705120CCA
:1029000089F39806120C89159906120C89269B06E4
:10291000120C89E59D06120C890F9F06120C89CDB9
:102920009F06120C89B9A006120C89F79A07120C9F
:10293000891C9B07120C89929B07120C895DC706A4
:10294000120C8966C706120C896FC706120C8947DC
:10295000C806120C89F8C906120C8928CA06120C7E
:102960008953CA06120C8983CA06120C89AECA069C
:10297000120C89E2CA06120C890ECB06120C895180
:10298000CB06120C897CCB06120C89C3CB06120C29
:102990008918CC06120C895ACC06120C89B4CC06C4
:1029A000120C89DFCC06120C892ECD06120C895E22
:1029B000CD06120C8989CD06120C89B7CD06120CF2
:1029C00089DACD06120C895DA807120C8989A8073F
:1029D000120C89B6A807120C89C0A807120C89D05E
:1029E000A807120C89BDB606120C89C7B606120CD0
:1029F0008905B706120C894EB706120C8988B706EE
:102A0000120C89E2B706120C8903B806120C89DB96
:102A1000BA06120C89E4BA06120C8931BB06120CF4
:102A2000895ABB06120C8964BB06120C89D0BB06FE
:102A3000120C8962BC06120C89ACBC06120C89E22D
:102A4000BC06120C896EBD06120C89AFBD06120CB5
:102A500089E6BD06120C89F8BD06120C8917BE0660
:102A6000120C8920BE06120C89EDBE06120C8929B3
:102A7000A507120C89069907120C893C9907120CBC
:102A800089729907120C89BD9A07120C8935FF05C6
:102A9000120C894BFF05120C8955FF05120C899FFA
:102AA000FF05120C89DAA807120C89BFF206120C76
:102AB00089D4F206120C8984F306120C89C4F30639
:102AC000120C89DDF306120C8918F406120C8965C4
:102AD000F406120C8997F406120C89D9F406120C2C
:102AE00089DAF606120C8999A107120C89C2A1078E
:102AF000120C89F1A107120C8989A207120C89CB4B
:102B0000A207120C89A59107120C89CA9107120C11
:102B100089F49107120C8991A907120C8977830512
:102B2000120C89548505120C89FA8605120C89AE9F
:102B30008705120C89388805120C89B98805120C92
:102B400089E28805120C89A08C05120C89268D0556
:102B5000120C894D8E05120C89878E05120C89C8BE
:102B60008E05120C89109005120C896D9005120CBF
:102B700089B69005120C89219105120C8992910554
:102B8000120C89C49105120C89DC9105120C89087C
:102B90009305120C89189305120C89C29405120C26
:102BA00089D99405120C890B9505120C89BF9605DD
:102BB000120C894C9705120C8933FF04120C8944BE
:102BC000FF04120C89E7A907120C8926AA07120C28
:102BD00089E4FF04120C89EFFF04120C89F4FF044E
:102BE000120C89EDFF06120C8920A607120C893001
:102BF000A607120C8945A607120C89F7A607120C26
:102C00008925A407120C89AAA407120C8910A5070C
:102C1000120C89639E07120C898C9E07120C89F294
:102C20009E07120C89129F07120C89639F07120CD2
:102C300089BE9F07120C89F89F07120C89FB9F071A
:102C4000120C895A8B07120C896F8B07120C899A08
:102C50008C07120C89168D07120C898A8D07120CAD
:102C600089A48D07120C89BB8D07120C89CE8D07A4
:102C7000120C89E88D07120C89FF8D07120C89252B
:102C80008E07120C89768E07120C8984AA07120C03
:102C90008994AA07120C8997AA07120C89F83F0099
:102CA000120C89C89607120C895C9807120C89BD12
:102CB0009807120C89039907120C8949DC06120C3B
:102CC000898BDC06120C89A6DC06120C8977DD06DE
:102CD000120C8965DE06120C8985E006120C89F754
:102CE000E006120C89DFE106120C89B8E206120C2C
:102CF0008905A007120C8957A007120C89CAA007E2
:102D0000120C8933A107120C89839407120C89AD28
:102D10009407120C897B9507120C89569607120CA2
:102D2000891BBF06120C89E2BF06120C8919C00666
:102D3000120C8943C006120C89A3C006120C89F933
:102D4000C006120C895EC106120C89F6C106120C6F
:102D50008905C306120C899CC406120C8929C50674
:102D6000120C8990C506120C89A7C506120C89C1E0
:102D7000C606120C89FFC606120C89BBF105120C9F
:102D80008952F505120C89C9F605120C8919F70547
:102D9000120C8936F705120C89B4F705120C89D686
:102DA000F905120C899CFD05120C89F7F704120C29
:102DB000897FFC04120C892AFD04120C893FFE0451
:102DC000120C89B2FE04120C8986D506120C89CB2E
:102DD000D506120C89E8D506120C89B6D606120C57
:102DE000892AD706120C891DD806120C8910DC0618
:102DF000120C89C33F00120C8930AA07120C89CD2E
:102E0000FF05120C8966AA0731B1E1FFFFFFFFFF42
:102E100074F61210289002D074FEF0A304F0900211
:102E2000D3F09002D2F07A018A0A750B007402780E
:102E30000A120FBE123C31EA88828983700774FE41
:102E4000F0A304800474FFF0A3F088828983A3A315
:102E5000A3F088828983A3A3F00AEAC3940240C83E
:102E60007A727B211221C67AC07B211224607900FC
:102E70000239D374F2121028EAFEEBFF8E828F83A0
:102E800012344D6046123B63122FAD750D00780C65
:102E900012123B8A828B83A3121252123405120F34
:102EA000E7E9702C850A82850B83122FAD780C120E
:102EB000123B8A828B83A31212527C027D007A41DC
:102EC0007B8312340D120FE7E970057902022F9906
:102ED0009009F612344D600CC3E498FAE499FB12A1
:102EE0002F9E50057901022F997A067B00122A7EC7
:102EF0008A0C8B0DEA450D70057913022F997A0023
:102F00007B0080409009F61239218A0E8B0F7403E2
:102F1000780E120FBE850A82850B83E0250EF8A37A
:102F2000E0350F8882F583A3A3A3A3ECF0A3EDF013
:102F30009009F6E02401F0A3E03400F0EA24010A4D
:102F4000EB3400FB122F9E40BB850C82850D83E481
:102F5000F0A3F0750A04F50B780A12123BEEFCEFB1
:102F6000FDE50C2402FAE50D123914120FE7900268
:102F7000D812344D9002D86017E0FAA3E08003E83D
:102F8000FAE9FB8A828B8312344D70F38A828B8339
:102F9000E50CF0A3E50DF079007F060210FA8E82B1
:102FA0008F83E0F8A3E0F9C3EA98EB9922123B780B
:102FB0008A828B83E0F50C22C082C083E99009F5F8
:102FC000F0D083D082020C8674F7121028E9FE74C8
:102FD000145E6007791012248A800BEEA2E0400490
:102FE0007902800279007F010210FA74F71210282A
:102FF000ECFEEDFFE9A2E55007791012248A803437
:10300000A2E35026791012248AE96026EE2418F5EE
:1030100082EF3400F583E0601BEE2417F582EF3475
:1030200000F583E06401600A800AA2E140047903AC
:103030008002790080B074F412102874E9120FD164
:10304000EAFEEBFF890AE4F50CF50D780C12123B51
:10305000750C02780C12123B750C49750D83780CB7
:1030600012123B7CFF7DFF7A017B00123B5D120F49
:10307000E78A828B83E58245836054123A9B851AE6
:1030800082851B83123BF4740212101C7404F0142A
:1030900012101C7401F0740412101CE4F074051278
:1030A000101C74FFF0740612101C74FFF0E50AF592
:1030B0000B780B12123F7900740112101CAC82AD18
:1030C00083EEFAEFFB1221607401120FE7800279A0
:1030D000017417120FE77F040210FA74E812102827
:1030E0008A188B198C148D15741812101CE0F516A3
:1030F000A3E0F517741A12101CE0F50CA3E0F50D0F
:10310000741C12101CE0F512A3E0F5139002D88095
:1031100006850A82850B83E0F50AA3E0F50BE50A34
:10312000450B70030231C87E007F00E50A2404F5D8
:1031300010E50B3400F5118008EE24010EEF340089
:10314000FF850A82850B83123A9DC3EE98EF995052
:10315000C08E0E8F0F7403780E120FBE85108285FD
:103160001183E0250EF50EA3E0350FF50F850E82D5
:10317000F583123A9BC3E89518E9951940BBC3E55E
:103180001498E5159940B2E50C450D6020780C12B5
:10319000123B781612123B850E82850F83E0FC7D70
:1031A00000123B7312340D120FE7E9608CE51245F3
:1031B00013600F85108285118312374B123A9B12D0
:1031C0003BEEAA0EAB0F80047A007B007F1002104A
:1031D000FA74EE121028ECFEEDFF9002D8E0FCA38A
:1031E000E0800A8C828D83123A9FE8FCE9FDEC4D69
:1031F00070030232928C828D83123A9B880A890B6B
:103200008882F583A3A3A3A3E0F50EA3E0F50FC383
:10321000EA950EEB950F40CB8C828D83A3A3E0F54E
:1032200010A3E0F511E50E2510F8E50F3511F9C3EF
:10323000EA98EB9950AD750C00750D00800CE50C0B
:103240002401F50CE50D3400F50DC3E50C9510E5F2
:103250000D9511508E850C12850D13740378121282
:103260000FBEE50A2512F8E50B3513F9888289832C
:10327000A3A3A3A3E06A7003A3E06B70C1EE4F6049
:103280000B8E828F83E50EF0A3E50FF0E8FAE9FBE1
:1032900080047A007B007F0A0210FA74EC12102876
:1032A00074FE120FD1EAFEEBFF741612101CE0F54B
:1032B00010A3E0F511741812101CE0F512A3E0F54C
:1032C00013750A00750B00851A82851B83E4F0A331
:1032D000F0EE2404F50EEF3400F50F850E82F58331
:1032E000123A93A385820C85830D74FF6A70037470
:1032F000FF6B603B851A82851B8385820A85830B61
:10330000780A12123B8E828F83E0F50A750B0078E3
:103310000A12123B850C82850D83121252EA240197
:103320000AEB3400FB123B5D120FE78A0A8B0B8E0F
:10333000828F83E0F514751500781412123B850C0A
:1033400082850D83121252123405120FE7E970269E
:103350008E828F83E0F514781412123B850C8285DF
:103360000D831212527C027D007A417B8312340D50
:10337000120FE7E96016850E82850F83123B7412E7
:10338000216C8A0C8B0DA80CA90D80628E828F8314
:10339000E0F514781412123B850C82850D8312120D
:1033A000527C027D007A3F7B8312340D120FE7E9D5
:1033B0006031E50A450B6011851A82851B83E06543
:1033C000107004A3E065116006AA10AB1180B085EF
:1033D0000A82850B83A3A3A3A3E024FFF8A3E03410
:1033E000FF800A850E82850F83E0F8A3E0F9E512DD
:1033F00045136003123BEEAA0AAB0B7402120FE7EF
:103400007F0C0210FA7C027D007A437B83121F80BE
:10341000740422C082C0839002D812344D60278881
:10342000828983A3A3A3A3E0FCA3E0F5838C82A3FA
:10343000A3A3A3E06A7003A3E06B8882898370DA98
:10344000A3123B7380047A007B00022FC1E0F8A333
:10345000E0F9E8492274F312102874FE120FD1EA41
:10346000FEEBFF8C0A8D0B890C740F12101CE0F51B
:103470000D851A82851B83AC82AD831221AEE9F5DE
:103480000E7064E50C600E7910EEFAEFFB12248AE0
:10349000E9F50E7052AC0AAD0BEEFAEFFB121EF01E
:1034A000E9F50E7042851A82851B83E0FEA3E0FFDA
:1034B00074FF650D6031EE2402F50AEF12398712B0
:1034C000123B750A1E750B00780A12123BEEFCEFD8
:1034D000FD7ABA7B211221E47404120FE78E828FE9
:1034E00083A3A3A3E50DF0A90E7402120FE77F05D5
:1034F0000210FA74F512102874FE120FD1EAFEEBD6
:10350000FF8C0A8D0B890C851A82851B83AC82ADDA
:10351000831221AE7417696010E50C60167910EE05
:10352000FAEFFB12248AE9600A7402120FE77F03A4
:103530000210FAAC0AAD0BEEFAEFFB121EEA80E9BC
:1035400074F6121028EAFEEBFF12215AEA4B600FC4
:10355000EE24FFF8EF34FFF9EA28FAEB398003EEA6
:10356000FAEFFB0239D374F012102874E3120FD172
:103570008A0A8B0BEC2402FEED123C8CF510741EB3
:10358000651070531221B48A0C8B0DEA450D604210
:10359000EA2403F50EEB3400F50FE4F510F511788D
:1035A0001012123B8E828F83E0FD7C00AA0AAB0BC7
:1035B000850E82850F83123C9B120FE7E50C2402D7
:1035C000FAE50D3400FB1221EA850E82850F837423
:1035D000FFF079000237469009F5E0F46065E510E8
:1035E000C39419505EE510C333F8E433F9E854FC92
:1035F000F8740028F8748039F9E824FCFAE934FFFB
:10360000FB8A0E8B0F8A82F583123B74EA4B603380
:10361000E824FEF582E934FFF58312344D60248CF2
:10362000828D83A385820C85830D8C828D83E0F946
:10363000700B850C82850D83E06401700B7412653C
:103640001060057906023746740412101C8582103A
:10365000858311781012123B8C828D83A3A3A31251
:1036600012528C828D83A3A3A3A3A3123921850CAC
:1036700082850D83E0FA850E82850F8312374B1207
:1036800010267404120FE7E9F50E60030237447444
:103690000412101CAC82AD83AA0AAB0B8E828F83FE
:1036A000E0C333F8E433F9E854FCF874FE28F582FB
:1036B000747F39F58312374B121026E9F50E702C02
:1036C0008E828F83E0FD74046D6079740412101C87
:1036D00085820C85830D780C12123B7C00AA0AAB04
:1036E0000B9009F5123C9B120FE78058850C8285E0
:1036F0000D83E0704F8E828F83E0851A82851B8355
:10370000F0740312101CE9F08E828F83E0F87404C9
:1037100068600D7406686008740868600374106857
:10372000740412101C123A9F740112101C123BF404
:10373000851A82851B83AC82AD83AA0AAB0B121E4D
:10374000A2750E00A90E741D023AB4E0F8A3E0F5CC
:10375000838882227900020C8674F012102874EAA1
:10376000120FD18A0E8B0F8C828D83123B74750CD5
:1037700000EC2402FEED3400FF8E828F83C3E09ABA
:10378000A3E09B4004EA4B70057901023909851AD0
:1037900082851B83E4F0E4F50AF50B780A12123BEC
:1037A000780A12123B780A12123B8E828F831239EA
:1037B00021123B5D120FE78A0A8B0BA80AA90BE8BE
:1037C0004970030238EF88828983A3AA82AB83E819
:1037D0002404F50AE93400F50B851A82851B83E081
:1037E000707188828983E06402700A740112101C6F
:1037F0007401F08068740112101C7402F0123927F1
:1038000075F012A4F885F00DA90DE58228F582E582
:103810008339F583A3A3ECF0A3EDF07510107511B7
:1038200000781012123B12391D740212101CE07540
:10383000F012A4F8A9F0E58228F8E5833912390ED0
:10384000120FE7851A82851B83E004F060030238BB
:10385000D48072740112101CE0640170A088828907
:1038600083E0640260030238EF123927F510751106
:103870000074027810120FBEE5822510F582E583F0
:103880003511F583A3A3ECF0A3EDF07510027511CB
:1038900000781012123B12391D740212101CE0F550
:1038A0001074027810120FBEE5822510F8E58335FA
:1038B0001112390E120FE7851A82851B83E004F07E
:1038C000C39405500F850A82850B83E0F47003A32F
:1038D000E0F47003750C01850A82850B83E02401F6
:1038E000FAA3E03400FBE50CA2E040030237968522
:1038F0001A82851B83E07004790A800DAC82AD8347
:10390000AA0EAB0F121EAE79007416023AB4F9E893
:103910002404FAE93400FB1229E87402228A828B1B
:1039200083E0FCA3E0FD22850A82850B83E0FCA3F3
:10393000E0FD851A82851B83E02274F6121028129E
:1039400039D84004EA4B700479018033E4F50AF574
:103950000B780A12123B8C828D83A3A3A3A3E0F5FC
:103960000A780A12123B12398112123B123B591289
:103970000FE78B0BEA450B7004790A80027900800F
:1039800052EC2405F50AED3400F50B780A2274F6A2
:103990001210281239D84004EA4B700479018033A0
:1039A000E4F50AF50B780A12123B8C828D83A3A3EF
:1039B000A3A3E0F50A780A12123B12398112123BD6
:1039C000123B59120FE78B0BEA450B7004790A8002
:1039D0000279007F020210FA8C828D83A3A3E0FE9D
:1039E000A3E0FF8C828D83123B78C3EE9AEF9B227B
:1039F00074F6121028EAFEEBFF8C828D837C007D2A
:103A000000123AA570047901800CA3A3A3E0F9EE9B
:103A1000FAEFFB12213680BB74F01210288A0C8B4F
:103A20000DECFEEDFF750E008002050EEE2416F57E
:103A300082EF3400F583E0F8E50EC3985051E50EAF
:103A4000C333F8E433F9EE28F50AEF39F50B7C00BF
:103A50007D00850A82F583123AA57014850A828555
:103A60000B83123A9F8E828F83123BF4790180215F
:103A7000A3A3A3E0F9AA0CAB0D122136E960AB8534
:103A80000A82850B83123A93EAF0A3EBF080027965
:103A9000008024123B788E828F8322A3A3A3A3E00D
:103AA000F8A3E0F922123B7812214E8A828B83E53B
:103AB00082458322120FE77F080210FA74F0121079
:103AC00028ECFEEDFF8E828F83123A9F123B63C378
:103AD000E098A3E0994004E849700479018077EE0A
:103AE0002405F50EEF3400F50FEE2404F50CEF3449
:103AF00000F50D850C82F583E0F510751100781046
:103B000012123B780E12123B123405120FE7E970C5
:103B10000479108041E4F510781012123B850C8274
:103B2000850D83E0F50C750D00780C12123B780EB4
:103B300012123B850A82850B831239218E828F8374
:103B4000123B74123B5D120FE78B0BEA450B7004BE
:103B5000790A80027900023AB7EEFCEFFD122148A3
:103B6000740622EE2402F50AEF3400F50B850A8272
:103B7000F58322A3123B7822E0FAA3E0FB2274F43F
:103B80001210288A0A8B0BECFEEDFF7C007D008E64
:103B9000828F83123AA5700479018010EEFCEFFD4C
:103BA000A3A3A3E0F9AA0AAB0B12213C0230D60270
:103BB000375474F6121028ECFEEDFF123D5F6029B9
:103BC000EE4F60078E828F83123BF488828983A335
:103BD000A3E0F874FE6870047917800F74FF6870B2
:103BE00004790080067916800279020239D38512A1
:103BF00082851383E8F0A3E9F02274F61210287C82
:103C0000008C0A750B007402780A120FBE123C3148
:103C100088828983E06A7003A3E06B7006E8FAE9A2
:103C2000FB800B0CECC3940240D77A007B00023976
:103C3000D374D0250AF87402350BF92274F41210EB
:103C400028EA4B6044EA2402FEEB123C8CF4603913
:103C5000E064FE6034EA2403F50AEB3400F50BE47B
:103C6000F50CF50D780C12123B7D1E7C178A828BA9
:103C700083123B74123C95120FE78E828F8374FE81
:103C8000F0850A82850B8304F00230D63400FF8E63
:103C9000828F83E022850A82850B83E0F91221DE80
:103CA00074022274F01210288A0C8B0D890E74FE97
:103CB000650C700474FF650D7003023D5CE97025AE
:103CC0001221B48B0BEA450B6003023D5C7AFF7B4B
:103CD000FF123D5F7003023D5C88828983E50CF032
:103CE000A3E50D80767401650E7010123D5F606C67
:103CF0008882898374FFF0A3F080177402650E70C8
:103D00005B790112247EE97053AA0CAB0D123D5F62
:103D1000604AE82402FEE9123C8CFA74FF6A603CB7
:103D2000E82403F50AE93400F50B74FE6A6018E430
:103D3000F510F511781012123B7D1E7C14AA0CAB05
:103D40000D123C95120FE7EEFAEFFB1221EA850AFD
:103D500082850B8374FFF08E828F83F0023AB71254
:103D600021B48A0A8B0BA80AA90BE84922C082C099
:103D7000839002DBEAF0A3EBF0D083D082020C86C2
:103D800074F7121028E99002DAF07A047B0012230B
:103D9000AC1221247F010210FA74F41210288A0A4E
:103DA0008B0BEB548060349002DAE0F9122A2A8AF5
:103DB0000C8B0DA80CA90DE8FEE9FFE84960138EF5
:103DC000828F83E064A070031221D8EEFAEFFB1219
:103DD0002A18AA0AE50B6480FB80047A007B007F26
:103DE000040210FA74F612102874F5120FD1EAFECC
:103DF000EBFF740412101CAC82AD83121EF6E96056
:103E000003023E91EE2402F50AEF3400F50B74062E
:103E100012101CE0A2E050219002DDE0F8A3E0F9CE
:103E2000E849606D740412101C123EAF9002DEE08F
:103E3000F583888212102680589002DBE0F8A3E018
:103E4000F9E8496019740412101C123EAF9002DCAC
:103E5000E0F5838882121026E9F870048033780632
:103E6000740512101CE07029740612101CE0851AEB
:103E700082851B83F0740112101CE4F0A3F074031C
:103E800012101CE8F0851A82851B83123EAF121EA9
:103E9000A28E828F83A3A3A3A3A3A3123EB9EA4B4E
:103EA0006003122CF4740B120FE77F020210FAACBD
:103EB00082AD83850A82850B83E0FAA3E0FB22743E
:103EC000EE12102889108A0E8B0F8C0C8D0D741237
:103ED00012101CE0F50AA3E0F50B7A1E7B00122AF3
:103EE000128A128B13AE12AF13EE4F605C8E828F6C
:103EF0008374B0F0A3E50CF08E828F83A3A3E50E4C
:103F0000F0A3E50FF08E828F83A3A3A3A3E50DF0AA
:103F1000EE2405FAEF3400FBE50A450B6019750E37
:103F200019750F00780E12123BAC0AAD0B1229E87E
:103F30007402120FE780097C197D007900122A00B3
:103F4000EEFAEFFBA910122A1E7F0A0210FA74F48F
:103F5000121028740C12101CE0F50AA3E0F50B7483
:103F60000E12101CE0F50CA3E0F50D780C12123BBC
:103F7000E50A75F0E8A4C50AA8F075F003A428F8CE
:103F800075F0E8E50BA428F50B780A12123B122D08
:103F9000127404120FE7023DDF74F7121028EAFED4
:103FA000EBFFEE4F601A8E828F83E0F974FF696039
:103FB0000F74FE69600A122D188E828F8374FFF0D1
:103FC000023D94C082C083851A82851B83E0F8A3DA
:103FD000E0F9E84960128A828B83ECF0A3E824FFC1
:103FE00018E934FFF94870F2D083D082020C8602BF
:103FF0000C86FFFFFFFFFFFF851C87C2AF020C8608
:10400000FFFFFFFFFFFFFFFFFFFFFFFFFFFFFFFFC0
:10401000FFFFFFFFFFFFFFFFFFFFFFFFFFFFFFFFB0
:10402000FFFFFFFFFFFFFFFFFFFFFFFFFFFFFFFFA0
:10403000FFFFFFFFFFFFFFFFFFFFFFFFFFFFFFFF90
:020000040002F8
:10300000C082C083E99009F8F002B28474F712100C
:1030100028E99002DFF07C177D037AFF7BFF122204
:10302000809002E074FFF0A3F0A3E4F0A3F0790530
:103030001222089002DFE0F91221307A9E7B2212E0
:10304000246002BF9274F41210288A0A8B0BEB548E
:103050008060309002DFE0F9122A2A8A0C8B0DAED4
:103060000CAF0DEE4F60138E828F83E064B070035F
:10307000122220EEFAEFFB122A18AA0AE50B64804E
:10308000FB80047A007B0002B25374F212102874A1
:10309000FC120FD1EAFEEBFF741212101C12C4795D
:1030A000EE4F700302B12D740212101CEEF0A3EF6C
:1030B00012B48EECF0A3ED12B48EAA82AB8312216F
:1030C0002AE9F50C706AE50A450B60648E828F83ED
:1030D00012C45FEE4F60567A067B00122A7E8A0E7B
:1030E0008B0FA80EA90FE8497005750C1380418855
:1030F000828983E412B13AEEF0A3EF12C48AE50AA2
:10310000F0A3E50BF09002E512B1C19002E5700565
:1031100012BF3C801B12BF2A8003EAFCEBFD8C82AD
:103120008D8312B1C170F38C828D8380E3750C02A4
:10313000A90C7404120FE702C679F0A312C430A3DD
:103140002274F2121028890CE975F017A4FEAFF072
:103150009002E4E4F09002E212B1C1600A122A8403
:103160009002E2E4F0A3F0EEFAEFFB122A7E8A0A64
:103170008B0BEA450B602FEEFCEFFD7900122A0065
:103180009002E2E50AF0A3E50BF07B00800812B1A3
:10319000ABE4F0A3F00BEBC3950C40F2E50C90020E
:1031A000E4F079008002791302C679EB75F017A478
:1031B000F8A9F09002E2E028FAA3E0398A82F583C8
:1031C0002212BBCEEA4B2274F4121028740C121097
:1031D0001C12C454FEE9FF750A00750B00800CE553
:1031E0000A2401F50AE50B3400F50BC3E50A9CE55A
:1031F0000B9D5032850A0C850B0D7403780C120F51
:10320000BEEA250CF8EB350DF988828983A3A3A3C8
:10321000A3A3A312C011EE650C7003EF650D70BF80
:10322000E8FAE9FB80047A007B00802774F412102E
:10323000287900EAA2E0501B750A60750B82780AB3
:1032400012123B7C047D007AFA7B0912220274027E
:10325000120FE77F040210FAC082C0839002E512C9
:10326000B28B601C88828983A3A3E06A7003A3E009
:103270006B8882898370E8A3A3A3A312BBCA8004CE
:103280007A007B00D083D082020C8612C75FE849A7
:103290002274EE12102874FC120FD1EAFEEBFF85A7
:1032A0001A82851B83E4F0A3F0EE240212BF1CEE09
:1032B000240512C437EE2404F510EF12B843E024BD
:1032C000FE603924FC604624FE605224FE605E24C9
:1032D000FE700302B3A424FE700302B40824FE703F
:1032E0000302B41724FE700302B42624FC70030208
:1032F000B43524FE700302B44402B4819002FE741B
:1033000017F0A3E412B496121EA802B481851A82A3
:10331000851B83AC82AD8312222602B451851A82AA
:10332000851B83AC82AD8312222C02B451850E0A18
:10333000850F0B740212101CAC82AD83850A828546
:103340000B8312BBCA12214E8A0E8B0FAC0EAD0F2F
:10335000EC4D603BE4F50EF50F780E12123B750E46
:10336000FE750F02780E12123B750EFF750F027874
:103370000E12123B740812101C12125212C8DB12E9
:103380000FE7E9F50E700B12BBC0121EC0800F755F
:103390000E01850A82850B8312B48412BF3C850E10
:1033A0000A02B454740212101CAC82AD83850E82E2
:1033B000850F8312B995603C850E82850F83A3A388
:1033C0001212527512FE751302781212123B751208
:1033D000FF751302781212123B740812101C12129D
:1033E0005212C8DB120FE7E9F50B700B12BBC012CB
:1033F0001EC6800F750B01850E82850F8312B48463
:1034000012BF3C850B0A804C851A82851B83AC82D7
:10341000AD83122232803A851A82851B83AC82AD3D
:1034200083122238802B851A82851B83AC82AD8360
:1034300012223E801C851A82851B83AC82AD8312CA
:103440002244800D851A82851B83AC82AD831222B3
:103450004AE9F50AE50A60298E828F83A3E06414A5
:10346000601F851082851183E09002FE12B48E12D7
:10347000C75B9002FF12BF3CE50AA312B496121E6E
:10348000A202BE2B12C75F851A82851B8322F0859C
:103490001A82851B8322F07CFE7D02850C82850DBD
:1034A0008312BBCE2274EE12102874FC120FD18A44
:1034B0000C8B0D8C108D11EA2405F50AEB3400F508
:1034C0000B7C157D0079007AFE7B02122A00E50A4A
:1034D0002402F50EE50B12C43A851A82851B8385FA
:1034E0008212858313781212123B850A82850B8320
:1034F000A3A3A3A312B98C12123BE50A2405F5126B
:10350000E50B3400F513781212123B850E82850FFD
:103510008312BCE11221487406120FE78A128B1342
:10352000AE12AF13E50C2402F50CE50D12BF1FEE31
:103530004F700302B6638017740212101C12BBCACC
:1035400088828983EAF0A3EBF09002FEE004F09019
:1035500002FEE0C39405400302B663E4F512F513DE
:10356000781212123B7512E7751302781212123B91
:103570007512E8751302781212123B740612101CB1
:103580001212527910EEFCEFFD12C8DD120FE7E9BE
:10359000705E850A82850B83A3A3A3A3A3A3A3E0E4
:1035A000F89002E7E068704812B98C12123B7CE890
:1035B0007D02E50A2408FAE50B3400FB1229FA74AF
:1035C00002120FE7E960298E828F83A3A3A3A312BF
:1035D000BBCA9002FEE0F51274027812120FBE749C
:1035E000FF2512F58274023513F583EAF0A3EBF0A0
:1035F000740212101C858212858313781212123BFA
:10360000740212101C121252850E82850F8312BB97
:10361000F0120FE78A128B13AE12AF139002FEE086
:10362000F51275130074027812120FBE74FE251283
:10363000F874023513F988828983A312B1C170032B
:1036400002B52FE82403080808E93400F9EE4F60BA
:103650000302B5388882898374FFF0A3F09002FEDC
:10366000E004F09002FEE0600A12BBC0121EB479C2
:1036700000800B850A82850B8312BF33790A02BE54
:103680002B74EA12102874FE120FD18C148D15EAD7
:103690002405F50EEB12C8C512C463750A00750B3C
:1036A00000EA2402F512EB3400F513851A82851B1B
:1036B0008385820C85830D780C12123B850E8285E2
:1036C0000F83A3A3A3A312B85912123BE50E24053E
:1036D000F50CE50F12BF1F780C12123B850E828588
:1036E0000F8312B85D1221487406120FE78A0C8B03
:1036F0000DEA450D700302B7FEEA2404F510EB1243
:10370000B84312C4638A828B83A3A3A3E0F9851212
:103710008285138312BBD4600302B7FEE4F516F56D
:1037200017781612123B7516E775170278161212E3
:103730003B7516E8751702781612123B74061210C4
:103740001C1212527913AC0CAD0D851282851383B5
:1037500012C8E3120FE7E9F50B600302B7FE90020F
:10376000E7E0F8E50A7009E024029002FFF0801417
:103770009002FFE0FCE82402FAE43400FBEA6C70FB
:1037800001EB707E850A82AA8212B983941412B961
:103790007B506B851082851183E0C0E074002A1293
:1037A000B83AD0E0F0050A851082851183A3E0C005
:1037B000E0850A0C7400250C12B83AD0E0F0050A36
:1037C0009002E712B85912123B7CE87D02850A0C80
:1037D0007400250C12B84D120FE79002E7E0250A9D
:1037E000F50A74FF6E700374FF6F6012EE24010E11
:1037F000EF3400FFE50AC39414500302B6ABE50AA8
:10380000601312BBDE85128285138312BBCA121E9F
:10381000BA79008014E50B7003750B0A8514828554
:103820001583EEF0A3EFF0A90B7402120FE77F0EE1
:103830000210FA850A0E7400250EF5827403340016
:10384000F583223400F511851082F58322FA740382
:103850003400FB1229E874022212C49922A3A31295
:10386000B8632212BF2AFDEEFAEFFB2274EE1210AB
:103870002874FE120FD18C108D11EA2405F50EEB81
:1038800012C43A750D009002FEE4F0F50CEA240231
:10389000F50AEB3400F50B80449002FEE0FA90024A
:1038A000E7E0F812B983941712B97B400D9002FE3D
:1038B000E0F87416C3989002E7F012B98C12123B2C
:1038C0007CE87D0274FF2AFA740212B850120FE7E6
:1038D0009002E7E0F89002FEE028F0050CE50E24E7
:1038E00016F582E50F12B83EE0F8E50CC398507467
:1038F0009002FEE0C39416506BE50CC333F8E4333A
:10390000F9E50E28FEE50F39FF851A82851B83AC89
:1039100082AD838E828F8312B9957008750D011266
:10392000BF2F8050E4F512F513781212123B751276
:10393000E7751302781212123B7512E875130278BC
:103940001212123B740612101C1212527916850ABA
:1039500082850B8312C8E3120FE7E9F50D700302AD
:10396000B89980BB7CFE7D02850A82850B8312BBE1
:10397000CA121ECCA90D740202BE2DE99400C365C3
:10398000D03322EA28F8E43400F9E822E0F5127591
:10399000130078122212BE228A128B13AC12AD13BE
:1039A000EC4D2274EA12102874FC120FD18A0E8B8F
:1039B0000F8C148D15EA2405F50CEB12BF1F750A48
:1039C00000750B00E50C2402F512E50D3400F5132B
:1039D000740212101C858210858311781012123B1C
:1039E000850C82850D83A3A3A3A312C43F12123BAF
:1039F000E50C2405F510E50D3400F51178101212D0
:103A00003B85128285138312BF2512BBC412214845
:103A10007406120FE78A108B11AE10AF11E50E2459
:103A200002F510E50F3400F511803888828983741F
:103A3000FFF0050A12B83374FFF0050A9002E7E0C0
:103A4000F50E750F00780E12123B7CE87D02850A98
:103A50000E7400250E12B84D120FE79002E7E02514
:103A60000AF50AEE4F60278E828F83A3A3A3E0F9A5
:103A700085108285118312BBD4EE240412C437E969
:103A80006027850E82850F8312BBB612BF3CE50A04
:103A9000700302BB9C12BBDE85108285118312BBB2
:103AA000CA121ED2790002BBB1E4F516F5177816DA
:103AB00012123B7516E7751702781612123B75162F
:103AC000E8751702781612123B740812101C1212B5
:103AD000527911EEFCEFFD85108285118312C8E347
:103AE000120FE7E9F50B709A850A82AA82EA900222
:103AF000E77009E024049002FFF08025E0F89002CE
:103B0000FFE0F516E82404FCE43400FDEC651670D3
:103B100001ED708112B983941212B97B400302BA8D
:103B200095850E82850F83E0C0E074002A12B83AB2
:103B3000D0E0F0050A850E82850F83A3E0C0E01275
:103B4000B833D0E012BBF985820E85830F780E1250
:103B5000123B740412101C121252851282851383B8
:103B600012BBF0120FE78A0E8B0FAE0EAF0F850A55
:103B70000E7400250EF874033400F9EE4F70030242
:103B8000BA2B851A82851B83E08882898312BBF950
:103B9000A3E0C0E012B833D0E002BA39E50B7003FD
:103BA000750B0A850C82850D8312BBB612BF3CA92A
:103BB0000B740402B82B12C75F851482851583220B
:103BC0007CFE7D02850C82850D8312BBCE22E0FA3D
:103BD000A3E0FB2212BBCE122136E9F50B229002A4
:103BE000FFE0F5F0E50A849002FEF07CFE7D022203
:103BF00012B863122154740422F0050A851A8285D2
:103C00001B832274EC12102874FE120FD18A0A8BC7
:103C10000B8C108D11EA2405FEEB3400FF12BE0C54
:103C2000EE241812C437EA450D700302BCAF12BD72
:103C3000F5502912BCD48A128B13EA4513606B79B4
:103C400012AC0CAD0D850A82850B8312BBCA85129E
:103C500082851383121026E9F50C7058E4F50CF5F3
:103C60000D780C12123B8E828F83A3A3E0F50C78A3
:103C70000C12123BEE240312BF1C780C12123B8E66
:103C8000828F8312BCE112226E7406120FE7E9F5EF
:103C90000C7021850E82850F83E0701F850A828556
:103CA0000B8312BBCA121ED88011750C0E800975C9
:103CB0000C018004E50C600312BF2F850E82850F76
:103CC00083E0600479008002A90C7402120FE77F80
:103CD0000C0210FA851A82851B8312BBCE12225C5D
:103CE0002212BF2AFD850A82850B8312BBCE227465
:103CF000EE12102874FE120FD18A0A8B0B8C0E8DD7
:103D00000FEA2405FEEB3400FF75100012BE0CEA2A
:103D1000450D700302BDD312BDF5502C12BCD48AE0
:103D2000108B11EA4511604A7912AC0CAD0D850A71
:103D300082850B8312BBCA851082851183121026DF
:103D4000E9F510600302BDD6850A82850B8312C097
:103D500011AA0CFB12BDE770147AFF7BFF12BDE7BE
:103D6000606C88828983E50CF0A3E50DF0750C008A
:103D7000800775100E805F050C9002E4E0FAE50CF8
:103D8000C39A504AE50C75F017A4FAABF088828903
:103D900083A3A3E02AFAA3E03BFB8A828B8312BFB2
:103DA00025EC4D70D2750C17750D00780C12123B76
:103DB000EEFCEFFD1229E87402120FE7EEFCEFFDB6
:103DC000850A82850B8312BBCA121EDE8014751011
:103DD00009800375100112C757850E82850F831263
:103DE000BF3CA91002B9761222508A128B13A81276
:103DF000A913E84922E50A2402F50AE50B3400F587
:103E00000B8A828B83A3A3A3E0A2E522851A828575
:103E10001B83AC82AD838E828F8312BE228A0C8B71
:103E20000D22E0FAA3E0FB12214E227404120FE7E8
:103E30007F0A0210FA74EC1210288C128D13EA24F7
:103E400005F50EEB12C43A751100EA2402F50CEBED
:103E500012BF1F850C82F58312BBCA12C969700399
:103E600002BF117510008071850E82850F83E0649A
:103E700001704F8E828F83A3A31212528E828F8382
:103E8000A3A3A3A3E0F514751500781412123BEE5A
:103E90002405F514EF3400F515781412123B12BB0B
:103EA000C412226E7406120FE7E9F5116014850E34
:103EB00082850F83E4F012C757851282851383121F
:103EC000BF3C7C177D007900EEFAEFFB122A008ED2
:103ED000828F83E4F0A3F005109002E4E0F8E5108F
:103EE000C398501EE51075F017A4F8A9F0850A8252
:103EF000850B83A3A312C8CF12BF25EC4D6003022C
:103F0000BE68850A82850B8374FFF0A3F0E511700B
:103F10000612BBC4121EE4A91102BCCFF50CEF348B
:103F200000F50D22A312BF2AFD22E0FCA3E0228EA1
:103F3000828F8312C75F851082851183E8F0A3E921
:103F4000F022C082C0839002E0E06A7003A3E06BBD
:103F500070067AE07B0280047A007B0002B28474EF
:103F6000F71210287F00EF75F003A4F8A9F0EC28F1
:103F7000F8ED39F988828983E06A7003A3E06B70F9
:103F800006E8FAE9FB800B0FEFC3940240D87A00F1
:103F90007B007F010210FA74F612102812C54870D7
:103FA000067A007B008007A3A3A3A312BBCA02C6A4
:103FB0000974F2121028E9FE740E12101C12C011BE
:103FC000741012101C12C4798C828D83E06402700C
:103FD0003BA312C75B88828983E0F50EA3E0F9A8B2
:103FE0000E74026870037429697021750E02750FD2
:103FF00000780E12123B780A12123B780C12123B18
:10400000EEF91222927406120FE78002790102C6BD
:1040100079E0F50CA3E0F50D2274E812102874FB8A
:10402000120FD1E9851A82851B83F08A188B198CAF
:10403000108D11741F12101C12C479742112101CDF
:1040400012C011742312101C12C4637512008C82EA
:104050008D83A3A3A3E0A2E4502A741D12101C12A6
:10406000BCDA8A828B83E5824583700302C125799D
:104070000AAC10AD11AA18AB19121026E9F512609E
:104080000302C128851082851183E0640260030267
:10409000C3DEA312C75B850A82850B83A3858214C6
:1040A000858315E5102406F50EE51112C43A8882C1
:1040B0008983E0FAA3E0F9EA2400F516E439F5175C
:1040C00078161212C5010000280128EDC007000271
:1040D00028C4C1032834C10029EEC2012916C30235
:1040E00029BDC20329EEC204297FC3DEC3EE4F708F
:1040F0003E850E82850F8312C454FAE9FB8A828BB7
:1041000083E0850C82850D8312C49012123B8A8253
:104110008B83A312BF2AFDAA0AAB0B1229E87402F3
:10412000120FE7800375120EA912740502C8BD753F
:10413000120B80F4EE4F70F7850C82850D837401AD
:10414000F012C469850A82850B83F07C007D0085AE
:104150001082851183A3A3A3A3E02401FAA3E03472
:1041600000FB12214EEA4B60418A828B83E02402DD
:10417000F8850C82850D83E028F0EA2404F8EB34FE
:1041800000F988828983E085148285158312C4A290
:1041900012C49012123B8A828B8312BF24E50A2438
:1041A00003FAE50B3400FB02C11B850C82850D83ED
:1041B000E02404F07C047D007900AA14AB15122AD7
:1041C0000002C128EE4F600302C12F12C469FEA392
:1041D000E0FF850C82850D837404F0EE850A8285EC
:1041E0000B83F0EF851482851583F0740312101C85
:1041F000AC82AD83EEFAEFFB12C536700302C29AB1
:104200008A828B83A3A312C45F740112101C85825F
:1042100010858311781012123B740512101C1212B3
:10422000527CFF7DFF1221547404120FE78B11EAB8
:1042300045117033850E82850F8312C43F12123BE5
:10424000850E82850F83A31212527C027D007A4173
:104250007B83121F807404120FE7E9700A74011245
:10426000101C74FFF0A3F08E828F83E06402703420
:10427000750E02750F00780E12123B8E828F83121C
:10428000BF24E50A2404FAE50B12B850120FE785A3
:104290000C82850D83E024028009740112101CEE4B
:1042A000F0A3EFF0740112101C12C450F07401124C
:1042B000101CA312C448A3A3A3F002C128EE4F60B0
:1042C0000302C12F850E82850F8312BF25AA18AB6A
:1042D00019122286850C82850D837402F0EA850A04
:1042E00082850B83F0851482851583EB80CBEE4F9E
:1042F000600302C12F12C469F8A3E0F9850C82851E
:104300000D837402F0E8850A82850B83F0E9851439
:104310008285158380A3850E82850F8312BBCA1206
:1043200029E2EAFC8C82A882C39EE49F404BE86E9F
:104330007001EF70047C00801F851A82851B83E06A
:10434000FAEE2AFAEF3400FBC3EA98EB940050032C
:10435000E08004EECCC39CFCEC850C82850D83F0E0
:104360008C0C750D00780C12123B850E82850F8324
:10437000E02EFCA3E03F02C11675120702C128EE31
:104380004F600302C12F850E82850F8312C75B85A4
:104390000C82850D837407F08882898312C44812C9
:1043A000C430E0851482851583F0E82402FAE934EC
:1043B00000FB8A828B8312C44812C48112C450A3AA
:1043C00012C48A12C459F0E82405F8E93400F988C7
:1043D00082898312C459A312C4A2A302C2B6741D57
:1043E00012101C12C541700302C12512C75B880E52
:1043F000890FE8450F700302C1258E128F137812C2
:1044000012123B780C12123B780A12123B740612FD
:10441000101CE0F9AC10AD11AA18AB19850E8285FD
:104420000F831210267406120FE7E9F51202C12855
:10443000F088828983A322F50EEF3400F50F22E085
:10444000F510751100781022E0850A82850B832211
:1044500012C4A92212C75FE82212C4A9A3A322A3EF
:10446000A3A3A3E0FEA3E0FF22850E82850F83E0D5
:10447000F8A3E0F5838882E022E0F50AA3E0F50BDB
:1044800022A3A3F08A828B83A32212B13CA3A3228E
:10449000F08A828B8312C49922E0F50C750D0078A6
:1044A0000C2212C43012C4A922E0850A82850B8333
:1044B000A3A32274EE12102874FE120FD18A0C8B63
:1044C0000DECFAEDFB741412101CE0F512A3E0F5EC
:1044D00013741612101CE0FE741812101CE0F51074
:1044E000A3E0F511851A82851B83AC82AD8312C5CA
:1044F00036603E851A82851B8312C541602FA3A3B7
:1045000012C479E50A450B6024781012123B781228
:1045100012123BEEF9AC0EAD0FAA0CAB0D850A8260
:10452000850B831210267404120FE78006790E8023
:1045300002790102B97612214E8A0E8B0FEA450FDD
:104540002212BBCE12C5482212221A8A828B83E520
:104550008245832274F612102874FE120FD1740C57
:1045600012101C12C454851A82851B83F074011228
:10457000101CE9F0E4F50AF50B780A12123B750AF3
:1045800002780A12123B740412101C85820A858379
:104590000B780A12123B12226E7406120FE7740295
:1045A000120FE7806474F7121028EAFEEBFF890A05
:1045B0007C177D03122286EA5402600BA90AEEFAE8
:1045C000EFFB1221428002790102BF9274F61210B1
:1045D0002874FF6A700374FF6B701C7B00EB75F02E
:1045E00003A4F8A9F0EC28F8ED39F912C60E0BEB8C
:1045F000C39402501480E61222568A0A8B0BA80A32
:10460000A90BE849600312C60E7F020210FA8882E5
:10461000898374FF12B13AE4F02274F61210281262
:1046200022568A828B83E58245836006A3A3E0FA43
:1046300080027A007B0080D174F21210288A0A8BE3
:104640000BECFEEDFF740E12101CE0F50C12C67E92
:10465000701CEEFCEFFD7AFF7BFF12C67E700479C2
:1046600011801688828983E50AF0A3E50BF0888221
:104670008983A3A3E50CF079007F060210FA1222C9
:10468000568A0E8B0FA80EA90FE8492274EE12105D
:1046900028EAFEEBFF8C0A8D0B890E741212101C97
:1046A00012C75B741412101C12BF25741612101C52
:1046B00012BBCA750F00EC4D600302C74F74026550
:1046C0000E600302C74A8882898312BF2AF9EC244C
:1046D00000F510E439F511EAF4F8EBF4F9EC58F8C8
:1046E000E51159F9E849705DE50A2406F8E50B344F
:1046F00000F9880C890D8882F58312B85F12228632
:104700008A128B13E51065127004E511651360427F
:10471000781012123B850C82850D8312B85F12222D
:104720008C7402120FE7E9F50F7027781012123B14
:10473000850A82850B83A3A312B85D1222A474029A
:10474000120FE7800D750F808008750F0D800375BF
:104750000F0BA90F02BE308E828F8312C75F22E03B
:10476000F8A3E0F92274E812102874E7120FD1853B
:104770001A82851B83EAF0A3EBF08C188D1989103F
:10478000743112101CE0F514A3E0F5157433121007
:104790001CE0F516A3E0F517743512101CE0F511B6
:1047A000750A00750B00E50B75F003A4F8A9F085F8
:1047B0001A82851B8312C8CFE0F47003A3E0F47063
:1047C0000302C8ADEE2402F50EEF12C8C5E0700377
:1047D00002C8AD85180C85190D780C12123BAC1669
:1047E000AD17AA14AB1512220E7402120FE78A0C31
:1047F0008B0DEA450D700302C8ADE4F512F5137890
:104800001212123B740612101C85821285831378D3
:104810001212123B740912101C85821285831378C0
:104820001212123B851482851583A3A3A3A312122F
:10483000527914AC0CAD0D8E828F8312C8E3120F27
:10484000E7E97069850C82850D83A3A3A3A312C732
:104850005B740212101C12BF3C850E82850F83E030
:10486000A2E05018A910740212101CAC82AD838E05
:10487000828F8312BBCA122166E9420A850E8285A5
:104880000F83E0A2E15026E511F50C780C12123FDF
:10489000A910740312101CAC82AD838E828F831218
:1048A000BBCA1221607401120FE7E9420A050BE549
:1048B0000BC39402500302C7A6A90A7419120FE78A
:1048C0007F100210FA3400F50F850E82F58322E086
:1048D00028FEA3E039FF8E828F83227916850C8211
:1048E000850D8312BBCE12226874082274F2121056
:1048F00028EAFEEBFF890D7401650D600E740265F8
:104900000D7063790112247EE9705BEEFAEFFB1201
:10491000C9696047750C00800B7C177D0079001217
:104920002A00050C9002E4E0F8E50CC3985021E55C
:104930000C75F017A4F8A9F0850A82850B83A3A350
:10494000E028FAA3E039FB8A828B8312B28B70C90C
:10495000850A82850B8374FFF0A3F07C177D03EE3C
:10496000FAEFFB12228002C6791222508A0A8B0BC0
:10497000EA450B2274F21210288A0A8B0BECFEED2A
:10498000FF740E12101C12C0119009F8E0F4603D83
:104990007A097B00122A12EA4B60328A828B837476
:1049A000B1F0A3E412C483A312C481A3E50AF0A367
:1049B000E50B12C9D0EEF0A3EF12C9D0A3A3E50C0A
:1049C000F0A3E50DF09009F8E0F9122A1E02C6796D
:1049D000F08A828B83A3A3A3A3A322C082C0839067
:1049E00061907404F0A37448F0A37402F0906180A5
:1049F0007440F09061BC7403F09061877419F0907A
:104A00006265741BF090619C740DF090619A743330
:104A1000F0A37455F09061A0743AF090055BE064E7
:104A2000017009C2919003C5746780059003C57435
:104A300061F0902E0AE493906186F0902E0CE4933E
:104A4000F46027E493540FF8906185E0686012E504
:104A5000C654804449F5C6E59E547F644970F8E821
:104A6000F053C680E59E547F70FA79051227CC0278
:104A7000CC1DC082C083E9540FF9906185E0696064
:104A800012E5C654804449F5C6E59E547F644970DA
:104A9000F8E9F053C680E59E547F70FA02CC1DC041
